{
  "contractName": "BankContract",
  "abi": [
    {
      "inputs": [
        {
          "internalType": "contract Registry",
          "name": "_dao",
          "type": "address"
        },
        {
          "internalType": "uint256",
          "name": "_chunkSize",
          "type": "uint256"
        },
        {
          "internalType": "uint256",
          "name": "_nbShares",
          "type": "uint256"
        }
      ],
      "stateMutability": "nonpayable",
      "type": "constructor"
    },
    {
      "anonymous": false,
      "inputs": [
        {
          "indexed": true,
          "internalType": "address",
          "name": "moloch",
          "type": "address"
        },
        {
          "indexed": true,
          "internalType": "address",
          "name": "token",
          "type": "address"
        },
        {
          "indexed": false,
          "internalType": "uint256",
          "name": "amountToCollect",
          "type": "uint256"
        }
      ],
      "name": "TokensCollected",
      "type": "event"
    },
    {
      "anonymous": false,
      "inputs": [
        {
          "indexed": true,
          "internalType": "address",
          "name": "fromAddress",
          "type": "address"
        },
        {
          "indexed": true,
          "internalType": "address",
          "name": "toAddress",
          "type": "address"
        },
        {
          "indexed": false,
          "internalType": "address",
          "name": "token",
          "type": "address"
        },
        {
          "indexed": false,
          "internalType": "uint256",
          "name": "amount",
          "type": "uint256"
        }
      ],
      "name": "Transfer",
      "type": "event"
    },
    {
      "inputs": [],
      "name": "ESCROW",
      "outputs": [
        {
          "internalType": "address",
          "name": "",
          "type": "address"
        }
      ],
      "stateMutability": "view",
      "type": "function"
    },
    {
      "inputs": [],
      "name": "GUILD",
      "outputs": [
        {
          "internalType": "address",
          "name": "",
          "type": "address"
        }
      ],
      "stateMutability": "view",
      "type": "function"
    },
    {
      "inputs": [],
      "name": "MAX_TOKENS",
      "outputs": [
        {
          "internalType": "uint256",
          "name": "",
          "type": "uint256"
        }
      ],
      "stateMutability": "view",
      "type": "function"
    },
    {
      "inputs": [],
      "name": "TOTAL",
      "outputs": [
        {
          "internalType": "address",
          "name": "",
          "type": "address"
        }
      ],
      "stateMutability": "view",
      "type": "function"
    },
    {
      "inputs": [
        {
          "internalType": "address",
          "name": "",
          "type": "address"
        }
      ],
      "name": "availableTokens",
      "outputs": [
        {
          "internalType": "bool",
          "name": "",
          "type": "bool"
        }
      ],
      "stateMutability": "view",
      "type": "function"
    },
    {
      "inputs": [],
      "name": "chunkSize",
      "outputs": [
        {
          "internalType": "uint256",
          "name": "",
          "type": "uint256"
        }
      ],
      "stateMutability": "view",
      "type": "function"
    },
    {
      "inputs": [],
      "name": "sharesPerChunk",
      "outputs": [
        {
          "internalType": "uint256",
          "name": "",
          "type": "uint256"
        }
      ],
      "stateMutability": "view",
      "type": "function"
    },
    {
      "inputs": [
        {
          "internalType": "address",
          "name": "",
          "type": "address"
        },
        {
          "internalType": "address",
          "name": "",
          "type": "address"
        },
        {
          "internalType": "address",
          "name": "",
          "type": "address"
        }
      ],
      "name": "tokenBalances",
      "outputs": [
        {
          "internalType": "uint256",
          "name": "",
          "type": "uint256"
        }
      ],
      "stateMutability": "view",
      "type": "function"
    },
    {
      "inputs": [
        {
          "internalType": "uint256",
          "name": "",
          "type": "uint256"
        }
      ],
      "name": "tokens",
      "outputs": [
        {
          "internalType": "address",
          "name": "",
          "type": "address"
        }
      ],
      "stateMutability": "view",
      "type": "function"
    },
    {
      "stateMutability": "payable",
      "type": "receive"
    },
    {
      "inputs": [
        {
          "internalType": "address",
          "name": "token",
          "type": "address"
        },
        {
          "internalType": "uint256",
          "name": "amount",
          "type": "uint256"
        }
      ],
      "name": "addToEscrow",
      "outputs": [],
      "stateMutability": "nonpayable",
      "type": "function"
    },
    {
      "inputs": [
        {
          "internalType": "address",
          "name": "token",
          "type": "address"
        },
        {
          "internalType": "uint256",
          "name": "amount",
          "type": "uint256"
        }
      ],
      "name": "addToGuild",
      "outputs": [],
      "stateMutability": "nonpayable",
      "type": "function"
    },
    {
      "inputs": [
        {
          "internalType": "address",
          "name": "applicant",
          "type": "address"
        },
        {
          "internalType": "address",
          "name": "token",
          "type": "address"
        },
        {
          "internalType": "uint256",
          "name": "amount",
          "type": "uint256"
        }
      ],
      "name": "transferFromGuild",
      "outputs": [],
      "stateMutability": "nonpayable",
      "type": "function"
    },
    {
      "inputs": [
        {
          "internalType": "address",
          "name": "memberAddr",
          "type": "address"
        },
        {
          "internalType": "uint256",
          "name": "sharesToBurn",
          "type": "uint256"
        }
      ],
      "name": "burnShares",
      "outputs": [],
      "stateMutability": "nonpayable",
      "type": "function"
    },
    {
      "inputs": [
        {
          "internalType": "address",
          "name": "applicant",
          "type": "address"
        }
      ],
      "name": "isNotReservedAddress",
      "outputs": [
        {
          "internalType": "bool",
          "name": "",
          "type": "bool"
        }
      ],
      "stateMutability": "view",
      "type": "function"
    },
    {
      "inputs": [
        {
          "internalType": "address",
          "name": "user",
          "type": "address"
        },
        {
          "internalType": "address",
          "name": "token",
          "type": "address"
        }
      ],
      "name": "balanceOf",
      "outputs": [
        {
          "internalType": "uint256",
          "name": "",
          "type": "uint256"
        }
      ],
      "stateMutability": "view",
      "type": "function"
    },
    {
      "inputs": [],
      "name": "getChunkSize",
      "outputs": [
        {
          "internalType": "uint256",
          "name": "",
          "type": "uint256"
        }
      ],
      "stateMutability": "view",
      "type": "function"
    },
    {
      "inputs": [],
      "name": "getSharesPerChunk",
      "outputs": [
        {
          "internalType": "uint256",
          "name": "",
          "type": "uint256"
        }
      ],
      "stateMutability": "view",
      "type": "function"
    }
  ],
  "bytecode": "0x608060405234801561001057600080fd5b506040516115253803806115258339818101604052606081101561003357600080fd5b5080516020820151604090920151600080546001600160a01b0319166001600160a01b038416179055909190816100a6576040805162461bcd60e51b8152602060048201526012602482015271696e76616c6964205f6368756e6b53697a6560701b604482015290519081900360640190fd5b6003829055806100f1576040805162461bcd60e51b8152602060048201526011602482015270696e76616c6964205f6e6253686172657360781b604482015290519081900360640190fd5b6004555050611420806101056000396000f3fe6080604052600436106101125760003560e01c8063b01ca88f116100a5578063ee7a7c0411610074578063f47c84c511610059578063f47c84c51461040b578063f5d54c7714610420578063f7888aec1461043557610119565b8063ee7a7c0414610385578063ef6a2499146103cb57610119565b8063b01ca88f14610300578063bedcdbaa14610346578063c4a942cb1461035b578063e681c4aa1461037057610119565b806353d4de30116100e157806353d4de301461021e5780636a5a680c1461024557806389a073091461025a57806394cb0947146102ac57610119565b806303d8fed91461011e57806327efc08614610166578063292f4e95146101a45780634f64b2be146101f457610119565b3661011957005b600080fd5b34801561012a57600080fd5b506101646004803603604081101561014157600080fd5b5073ffffffffffffffffffffffffffffffffffffffff813516906020013561047d565b005b34801561017257600080fd5b5061017b6107af565b6040805173ffffffffffffffffffffffffffffffffffffffff9092168252519081900360200190f35b3480156101b057600080fd5b50610164600480360360608110156101c757600080fd5b5073ffffffffffffffffffffffffffffffffffffffff8135811691602081013590911690604001356107b5565b34801561020057600080fd5b5061017b6004803603602081101561021757600080fd5b5035610a01565b34801561022a57600080fd5b50610233610a35565b60408051918252519081900360200190f35b34801561025157600080fd5b50610233610a3b565b34801561026657600080fd5b506102336004803603606081101561027d57600080fd5b5073ffffffffffffffffffffffffffffffffffffffff8135811691602081013582169160409091013516610a41565b3480156102b857600080fd5b506102ec600480360360208110156102cf57600080fd5b503573ffffffffffffffffffffffffffffffffffffffff16610a64565b604080519115158252519081900360200190f35b34801561030c57600080fd5b506101646004803603604081101561032357600080fd5b5073ffffffffffffffffffffffffffffffffffffffff8135169060200135610a79565b34801561035257600080fd5b50610233610c62565b34801561036757600080fd5b50610233610c68565b34801561037c57600080fd5b5061017b610c6e565b34801561039157600080fd5b50610164600480360360408110156103a857600080fd5b5073ffffffffffffffffffffffffffffffffffffffff8135169060200135610c74565b3480156103d757600080fd5b506102ec600480360360208110156103ee57600080fd5b503573ffffffffffffffffffffffffffffffffffffffff16611064565b34801561041757600080fd5b506102336111e4565b34801561042c57600080fd5b5061017b6111e9565b34801561044157600080fd5b506102336004803603604081101561045857600080fd5b5073ffffffffffffffffffffffffffffffffffffffff813581169160200135166111ef565b600054604080517f42f6e389000000000000000000000000000000000000000000000000000000008152336004820152905173ffffffffffffffffffffffffffffffffffffffff9092169182916342f6e389916024808301926020929190829003018186803b1580156104ef57600080fd5b505afa158015610503573d6000803e3d6000fd5b505050506040513d602081101561051957600080fd5b5051610570576040517f08c379a00000000000000000000000000000000000000000000000000000000081526004018080602001828103825260338152602001806113b86033913960400191505060405180910390fd5b73ffffffffffffffffffffffffffffffffffffffff831661dead148015906105b0575073ffffffffffffffffffffffffffffffffffffffff831661beef14155b80156105d4575073ffffffffffffffffffffffffffffffffffffffff831661babe14155b61063f57604080517f08c379a000000000000000000000000000000000000000000000000000000000815260206004820152600d60248201527f696e76616c696420746f6b656e00000000000000000000000000000000000000604482015290519081900360640190fd5b6000546106669073ffffffffffffffffffffffffffffffffffffffff1661dead8585611233565b73ffffffffffffffffffffffffffffffffffffffff831660009081526002602052604090205460ff166107aa5760015460641161070457604080517f08c379a000000000000000000000000000000000000000000000000000000000815260206004820152601160248201527f6d6178206c696d69742072656163686564000000000000000000000000000000604482015290519081900360640190fd5b73ffffffffffffffffffffffffffffffffffffffff8316600081815260026020526040812080547fffffffffffffffffffffffffffffffffffffffffffffffffffffffffffffff001660019081179091558054808201825591527fb10e2d527612073b26eecdfd717e6a320cf44b4afac2b0732d9fcbe2b7fa0cf60180547fffffffffffffffffffffffff00000000000000000000000000000000000000001690911790555b505050565b61babe81565b600054604080517f42f6e389000000000000000000000000000000000000000000000000000000008152336004820152905173ffffffffffffffffffffffffffffffffffffffff9092169182916342f6e389916024808301926020929190829003018186803b15801561082757600080fd5b505afa15801561083b573d6000803e3d6000fd5b505050506040513d602081101561085157600080fd5b50516108a8576040517f08c379a00000000000000000000000000000000000000000000000000000000081526004018080602001828103825260338152602001806113b86033913960400191505060405180910390fd5b6000805473ffffffffffffffffffffffffffffffffffffffff908116825260056020908152604080842061dead85528252808420928716845291905290205482111561095557604080517f08c379a000000000000000000000000000000000000000000000000000000000815260206004820152601460248201527f696e73756666696369656e742062616c616e6365000000000000000000000000604482015290519081900360640190fd5b60005461097c9073ffffffffffffffffffffffffffffffffffffffff1661dead8585611299565b6000546109a19073ffffffffffffffffffffffffffffffffffffffff16858585611233565b6040805173ffffffffffffffffffffffffffffffffffffffff85811682526020820185905282519087169261dead927fd1398bee19313d6bf672ccb116e51f4a1a947e91c757907f51fbb5b5e56c698f929081900390910190a350505050565b60018181548110610a0e57fe5b60009182526020909120015473ffffffffffffffffffffffffffffffffffffffff16905081565b60035490565b60045490565b600560209081526000938452604080852082529284528284209052825290205481565b60026020526000908152604090205460ff1681565b600054604080517f42f6e389000000000000000000000000000000000000000000000000000000008152336004820152905173ffffffffffffffffffffffffffffffffffffffff9092169182916342f6e389916024808301926020929190829003018186803b158015610aeb57600080fd5b505afa158015610aff573d6000803e3d6000fd5b505050506040513d6020811015610b1557600080fd5b5051610b6c576040517f08c379a00000000000000000000000000000000000000000000000000000000081526004018080602001828103825260338152602001806113b86033913960400191505060405180910390fd5b73ffffffffffffffffffffffffffffffffffffffff831661dead14801590610bac575073ffffffffffffffffffffffffffffffffffffffff831661beef14155b8015610bd0575073ffffffffffffffffffffffffffffffffffffffff831661babe14155b610c3b57604080517f08c379a000000000000000000000000000000000000000000000000000000000815260206004820152600d60248201527f696e76616c696420746f6b656e00000000000000000000000000000000000000604482015290519081900360640190fd5b6000546106669073ffffffffffffffffffffffffffffffffffffffff1661beef8585611233565b60045481565b60035481565b61beef81565b600054604080517f42f6e389000000000000000000000000000000000000000000000000000000008152336004820152905173ffffffffffffffffffffffffffffffffffffffff9092169182916342f6e389916024808301926020929190829003018186803b158015610ce657600080fd5b505afa158015610cfa573d6000803e3d6000fd5b505050506040513d6020811015610d1057600080fd5b5051610d67576040517f08c379a00000000000000000000000000000000000000000000000000000000081526004018080602001828103825260338152602001806113b86033913960400191505060405180910390fd5b60008054604080517f21f8a7210000000000000000000000000000000000000000000000000000000081527f14ceb1149cdab84b395151a21d3de6707dd76fff3e7bc4e018925a9986b7f72f6004820152905173ffffffffffffffffffffffffffffffffffffffff909216916321f8a72191602480820192602092909190829003018186803b158015610df957600080fd5b505afa158015610e0d573d6000803e3d6000fd5b505050506040513d6020811015610e2357600080fd5b5051604080517fd5002f2e000000000000000000000000000000000000000000000000000000008152905191925060009173ffffffffffffffffffffffffffffffffffffffff84169163d5002f2e916004808301926020929190829003018186803b158015610e9157600080fd5b505afa158015610ea5573d6000803e3d6000fd5b505050506040513d6020811015610ebb57600080fd5b5051905060005b60015481101561105c57600060018281548110610edb57fe5b6000918252602080832090910154825473ffffffffffffffffffffffffffffffffffffffff908116845260058352604080852061dead86528452808520919092168085529252822054909250610f32908886611301565b90508015611052576000805473ffffffffffffffffffffffffffffffffffffffff908116825260056020908152604080842061dead855282528084209286168452919052902054811115610fe757604080517f08c379a000000000000000000000000000000000000000000000000000000000815260206004820152601460248201527f696e73756666696369656e742062616c616e6365000000000000000000000000604482015290519081900360640190fd5b6000805473ffffffffffffffffffffffffffffffffffffffff908116825260056020818152604080852061dead8652825280852087851680875290835281862080548890039055855485168652928252808520938d1685529281528284209184525290208054820190555b5050600101610ec2565b505050505050565b60008054604080517f42f6e389000000000000000000000000000000000000000000000000000000008152336004820152905173ffffffffffffffffffffffffffffffffffffffff9092169182916342f6e389916024808301926020929190829003018186803b1580156110d757600080fd5b505afa1580156110eb573d6000803e3d6000fd5b505050506040513d602081101561110157600080fd5b5051611158576040517f08c379a00000000000000000000000000000000000000000000000000000000081526004018080602001828103825260338152602001806113b86033913960400191505060405180910390fd5b73ffffffffffffffffffffffffffffffffffffffff831615801590611195575073ffffffffffffffffffffffffffffffffffffffff831661dead14155b80156111b9575073ffffffffffffffffffffffffffffffffffffffff831661beef14155b80156111dd575073ffffffffffffffffffffffffffffffffffffffff831661babe14155b9392505050565b606481565b61dead81565b6000805473ffffffffffffffffffffffffffffffffffffffff9081168252600560209081526040808420958316845294815284832093909116825291909152205490565b73ffffffffffffffffffffffffffffffffffffffff938416600090815260056020908152604080832095871683528582528083209490961680835293815285822080548401905561babe8252938452848120928152919092529190912080549091019055565b73ffffffffffffffffffffffffffffffffffffffff93841660009081526005602090815260408083209587168352858252808320949096168083529381528582208054849003905561babe825293845284812092815291909252919091208054919091039055565b60008161136f57604080517f08c379a000000000000000000000000000000000000000000000000000000000815260206004820152601c60248201527f746f74616c207368617265732073686f756c64206e6f74206265203000000000604482015290519081900360640190fd5b8361137c575060006111dd565b8383028385828161138957fe5b0414156113a25782818161139957fe5b049150506111dd565b838386816113ac57fe5b04029594505050505056fe6f6e6c7920636f7265206d6f64756c65732061726520616c6c6f77656420746f2063616c6c20746869732066756e6374696f6ea2646970667358221220bcb931b786840081ad30e4750d637d81b99b7af3bb4ab8c35cc6db324ea6b58864736f6c63430007000033",
  "immutableReferences": {},
  "source": "pragma solidity ^0.7.0;\n\n// SPDX-License-Identifier: MIT\n\nimport '../Registry.sol';\nimport '../Module.sol';\nimport '../interfaces/IBank.sol';\nimport '../interfaces/IMember.sol';\nimport '../../utils/SafeMath.sol';\nimport '../../utils/IERC20.sol';\nimport '../../guards/ModuleGuard.sol';\n\ncontract BankContract is IBank, Module, ModuleGuard {\n    using SafeMath for uint256;\n    \n    event TokensCollected(address indexed moloch, address indexed token, uint256 amountToCollect);\n    event Transfer(address indexed fromAddress, address indexed toAddress, address token, uint256 amount);\n\n    address public constant GUILD = address(0xdead);\n    address public constant ESCROW = address(0xbeef);\n    address public constant TOTAL = address(0xbabe);\n    uint256 public constant MAX_TOKENS = 100;\n\n    Registry dao;\n    address[] public tokens;\n    mapping(address => bool) public availableTokens;\n    uint256 public chunkSize;\n    uint256 public sharesPerChunk;\n\n    mapping (address => mapping(address => mapping(address => uint256))) public tokenBalances; // tokenBalances[molochAddress][userAddress][tokenAddress]\n\n    constructor(Registry _dao, uint256 _chunkSize, uint256 _nbShares) {\n        dao = _dao;\n        require(_chunkSize > 0, \"invalid _chunkSize\");\n        chunkSize = _chunkSize;\n        require(_nbShares > 0, \"invalid _nbShares\");\n        sharesPerChunk = _nbShares;\n    }\n\n    receive() external payable {\n\n    }\n\n    function addToEscrow(address token, uint256 amount) override external onlyModule(dao) {\n        require(token != GUILD && token != ESCROW && token != TOTAL, \"invalid token\");\n        unsafeAddToBalance(address(dao), ESCROW, token, amount);\n        if (!availableTokens[token]) {\n            require(tokens.length < MAX_TOKENS, \"max limit reached\");\n            availableTokens[token] = true;\n            tokens.push(token);\n        }\n    }\n\n    function addToGuild(address token, uint256 amount) override external onlyModule(dao) {\n        require(token != GUILD && token != ESCROW && token != TOTAL, \"invalid token\");\n        unsafeAddToBalance(address(dao), GUILD, token, amount);\n        if (!availableTokens[token]) {\n            require(tokens.length < MAX_TOKENS, \"max limit reached\");\n            availableTokens[token] = true;\n            tokens.push(token);\n        }\n    }\n    \n    function transferFromGuild(address applicant, address token, uint256 amount) override external onlyModule(dao) {\n        require(tokenBalances[address(dao)][GUILD][token] >= amount, \"insufficient balance\");\n        unsafeSubtractFromBalance(address(dao), GUILD, token, amount);\n        unsafeAddToBalance(address(dao), applicant, token, amount);\n        emit Transfer(GUILD, applicant, token, amount);\n    }\n\n    function burnShares(address memberAddr, uint256 sharesToBurn) override external onlyModule(dao) {\n        IMember memberContract = IMember(dao.getAddress(MEMBER_MODULE));\n        uint256 totalShares = memberContract.getTotalShares();\n        for (uint256 i = 0; i < tokens.length; i++) {\n            address token = tokens[i];\n            uint256 amountToRagequit = fairShare(tokenBalances[address(dao)][GUILD][token], sharesToBurn, totalShares);\n            if (amountToRagequit > 0) { // gas optimization to allow a higher maximum token limit\n                // deliberately not using safemath here to keep overflows from preventing the function execution (which would break ragekicks)\n                // if a token overflows, it is because the supply was artificially inflated to oblivion, so we probably don't care about it anyways\n                require(tokenBalances[address(dao)][GUILD][token] >= amountToRagequit, \"insufficient balance\");\n                tokenBalances[address(dao)][GUILD][token] -= amountToRagequit;\n                tokenBalances[address(dao)][memberAddr][token] += amountToRagequit;\n                //TODO: do we want to emit an event for each token transfer?\n                // emit Transfer(GUILD, applicant, token, amount);\n            }\n        }\n    }\n\n    function isNotReservedAddress(address applicant) override view external onlyModule(dao) returns (bool) {\n        return applicant != address(0x0) && applicant != GUILD && applicant != ESCROW && applicant != TOTAL;\n    }\n\n    /**\n     * Public read-only functions \n     */\n    function balanceOf(address user, address token) override external view returns (uint256) {\n        return tokenBalances[address(dao)][user][token];\n    }\n\n    function getChunkSize() override view external returns(uint256) {\n        return chunkSize;\n    }\n    \n    function getSharesPerChunk() override view external returns(uint256) {\n        return sharesPerChunk;\n    }\n\n    /**\n     * Internal bookkeeping\n     */\n    function unsafeAddToBalance(address moloch, address user, address token, uint256 amount) internal {\n        tokenBalances[moloch][user][token] += amount;\n        tokenBalances[moloch][TOTAL][token] += amount;\n    }\n\n    function unsafeSubtractFromBalance(address moloch, address user, address token, uint256 amount) internal {\n        tokenBalances[moloch][user][token] -= amount;\n        tokenBalances[moloch][TOTAL][token] -= amount;\n    }\n\n    function unsafeInternalTransfer(address from, address to, address moloch, address token, uint256 amount) internal {\n        unsafeSubtractFromBalance(moloch, from, token, amount);\n        unsafeAddToBalance(moloch, to, token, amount);\n    }\n\n    /**\n     * Internal utility\n     */\n    function fairShare(uint256 balance, uint256 shares, uint256 _totalShares) internal pure returns (uint256) {\n        require(_totalShares != 0, \"total shares should not be 0\");\n        if (balance == 0) {\n            return 0;\n        }\n        uint256 prod = balance * shares;\n        if (prod / balance == shares) { // no overflow in multiplication above?\n            return prod / _totalShares;\n        }\n        return (balance / _totalShares) * shares;\n    }\n\n}",
  "sourcePath": "/Users/davidroon/projects/moloch/contracts/v3/core/banking/Bank.sol",
  "compiler": {
    "name": "solc",
    "version": "0.7.0+commit.9e61f92b.Emscripten.clang"
  },
  "schemaVersion": "3.2.3",
  "updatedAt": "2020-09-17T11:52:26.489Z",
  "devdoc": {
    "kind": "dev",
    "methods": {},
    "version": 1
  },
  "userdoc": {
    "kind": "user",
    "methods": {
      "balanceOf(address,address)": {
        "notice": "Public read-only functions "
      }
    },
    "version": 1
  }
}