{
  "contractName": "DaoFactory",
  "abi": [
    {
      "inputs": [
        {
          "internalType": "address",
          "name": "memberAddress",
          "type": "address"
        },
        {
          "internalType": "address",
          "name": "proposalAddress",
          "type": "address"
        },
        {
          "internalType": "address",
          "name": "votingAddress",
          "type": "address"
        },
        {
          "internalType": "address",
          "name": "ragequitAddress",
          "type": "address"
        },
        {
          "internalType": "address",
          "name": "managingAddress",
          "type": "address"
        },
        {
          "internalType": "address",
          "name": "financingAddress",
          "type": "address"
        },
        {
          "internalType": "address",
          "name": "onboardingAddress",
          "type": "address"
        }
      ],
      "stateMutability": "nonpayable",
      "type": "constructor"
    },
    {
      "anonymous": false,
      "inputs": [
        {
          "indexed": false,
          "internalType": "address",
          "name": "summoner",
          "type": "address"
        },
        {
          "indexed": false,
          "internalType": "address",
          "name": "dao",
          "type": "address"
        }
      ],
      "name": "NewDao",
      "type": "event"
    },
    {
      "inputs": [
        {
          "internalType": "uint256",
          "name": "chunkSize",
          "type": "uint256"
        },
        {
          "internalType": "uint256",
          "name": "nbShares",
          "type": "uint256"
        },
        {
          "internalType": "uint256",
          "name": "votingPeriod",
          "type": "uint256"
        }
      ],
      "name": "newDao",
      "outputs": [
        {
          "internalType": "address",
          "name": "",
          "type": "address"
        }
      ],
      "stateMutability": "nonpayable",
      "type": "function"
    }
  ],
  "bytecode": "0x608060405234801561001057600080fd5b50604051612d33380380612d33833981810160405260e081101561003357600080fd5b50805160208083015160408401516060850151608086015160a087015160c0909701516000958690527f66cfa405c1480bd558b278e007fe87b9e269278c2b3196a990526a17cc2af59180546001600160a01b039889166001600160a01b0319918216179091557f1ae0ffcdb37e43718322cb4fe7a68ed1ca422e7f09c1b43082a9a4391eaa743d8054968916968216969096179095557f1c1717f4b46b3c45a76b87ef2e64b7fd88860a7079804cf9e04f80276ff467e78054948816948616949094179093557f94c639881fefee5f8f5278b04874aae53170ec59c7f4b63b56d33bae50fed1758054928716928516929092179091557fd17312918ddb1a195ebac43ad478105424f8bb6601c2cc3082fc36886c9a41c880549186169184169190911790557f43ac218be5e0da60363aa80dd7419b24036419bdc6b64e7e98feb8461e44d2448054958516958316959095179094557f68c24fc24acf5b51ccf67c01fea706e9e0e110825d4f88d07623f64f32f55d899091527fb37725651d2cc09d66105b54dd85c7c76ac8cad03a01e3ea70ae9b5116cf65178054929093169116179055612b4b806101e86000396000f3fe608060405234801561001057600080fd5b506004361061002b5760003560e01c806315284e7114610030575b600080fd5b6100596004803603606081101561004657600080fd5b5080359060208101359060400135610082565b6040805173ffffffffffffffffffffffffffffffffffffffff9092168252519081900360200190f35b60008060405161009190610a99565b604051809103906000f0801580156100ad573d6000803e3d6000fd5b50905060008190508173ffffffffffffffffffffffffffffffffffffffff166335324eee7fea0ca03c7adbe41dc655fec28a9209dc8e6e042f3d991a67765ba285b9cf73a084898960405161010190610aa6565b808473ffffffffffffffffffffffffffffffffffffffff1681526020018381526020018281526020019350505050604051809103906000f08015801561014b573d6000803e3d6000fd5b506040518363ffffffff1660e01b8152600401808381526020018273ffffffffffffffffffffffffffffffffffffffff16815260200192505050600060405180830381600087803b15801561019f57600080fd5b505af11580156101b3573d6000803e3d6000fd5b50507f14ceb1149cdab84b395151a21d3de6707dd76fff3e7bc4e018925a9986b7f72f600081815260208190527f66cfa405c1480bd558b278e007fe87b9e269278c2b3196a990526a17cc2af59154604080517f35324eee000000000000000000000000000000000000000000000000000000008152600481019490945273ffffffffffffffffffffffffffffffffffffffff91821660248501525190871694506335324eee935060448084019382900301818387803b15801561027657600080fd5b505af115801561028a573d6000803e3d6000fd5b50507fb6d2dc83590271a7c0a5ab5fbf6a2dad418bbfd533c253e3d69a6772712809c7600081815260208190527f1ae0ffcdb37e43718322cb4fe7a68ed1ca422e7f09c1b43082a9a4391eaa743d54604080517f35324eee000000000000000000000000000000000000000000000000000000008152600481019490945273ffffffffffffffffffffffffffffffffffffffff91821660248501525190871694506335324eee935060448084019382900301818387803b15801561034d57600080fd5b505af1158015610361573d6000803e3d6000fd5b50507f0e49311626a26ba5be58a3b13d239908e80ce0dffdd5c50bf1d9c82ff35d1ab3600081815260208190527f1c1717f4b46b3c45a76b87ef2e64b7fd88860a7079804cf9e04f80276ff467e754604080517f35324eee000000000000000000000000000000000000000000000000000000008152600481019490945273ffffffffffffffffffffffffffffffffffffffff91821660248501525190871694506335324eee935060448084019382900301818387803b15801561042457600080fd5b505af1158015610438573d6000803e3d6000fd5b50507f68c24fc24acf5b51ccf67c01fea706e9e0e110825d4f88d07623f64f32f55d89600081815260208190527fb37725651d2cc09d66105b54dd85c7c76ac8cad03a01e3ea70ae9b5116cf651754604080517f35324eee000000000000000000000000000000000000000000000000000000008152600481019490945273ffffffffffffffffffffffffffffffffffffffff91821660248501525190871694506335324eee935060448084019382900301818387803b1580156104fb57600080fd5b505af115801561050f573d6000803e3d6000fd5b50507f903b70ab7c13e94d5db58ae5205461e75e7c006ddff7cb26a3d9c1b246a62a5f600081815260208190527f43ac218be5e0da60363aa80dd7419b24036419bdc6b64e7e98feb8461e44d24454604080517f35324eee000000000000000000000000000000000000000000000000000000008152600481019490945273ffffffffffffffffffffffffffffffffffffffff91821660248501525190871694506335324eee935060448084019382900301818387803b1580156105d257600080fd5b505af11580156105e6573d6000803e3d6000fd5b50507fb5d1b10526b91c1951e75295138b32c80917c8ba0b96f19926ef2008a82b6511600081815260208190527fd17312918ddb1a195ebac43ad478105424f8bb6601c2cc3082fc36886c9a41c854604080517f35324eee000000000000000000000000000000000000000000000000000000008152600481019490945273ffffffffffffffffffffffffffffffffffffffff91821660248501525190871694506335324eee935060448084019382900301818387803b1580156106a957600080fd5b505af11580156106bd573d6000803e3d6000fd5b50507f54527537e04b80d3b3bd9dfa43834f03d4b745f8411ca72260a3c7e02ea7fa3f600081815260208190527f94c639881fefee5f8f5278b04874aae53170ec59c7f4b63b56d33bae50fed17554604080517f35324eee000000000000000000000000000000000000000000000000000000008152600481019490945273ffffffffffffffffffffffffffffffffffffffff91821660248501525190871694506335324eee935060448084019382900301818387803b15801561078057600080fd5b505af1158015610794573d6000803e3d6000fd5b50507f0e49311626a26ba5be58a3b13d239908e80ce0dffdd5c50bf1d9c82ff35d1ab3600090815260208190527f1c1717f4b46b3c45a76b87ef2e64b7fd88860a7079804cf9e04f80276ff467e754604080517f354f795f00000000000000000000000000000000000000000000000000000000815273ffffffffffffffffffffffffffffffffffffffff8781166004830152602482018b9052915191909216945084935063354f795f9260448084019391929182900301818387803b15801561085d57600080fd5b505af1158015610871573d6000803e3d6000fd5b50507f14ceb1149cdab84b395151a21d3de6707dd76fff3e7bc4e018925a9986b7f72f600090815260208190527f66cfa405c1480bd558b278e007fe87b9e269278c2b3196a990526a17cc2af59154604080517fbed0903800000000000000000000000000000000000000000000000000000000815273ffffffffffffffffffffffffffffffffffffffff898116600483015233602483015260016044830152915191909216945084935063bed090389260648084019391929182900301818387803b15801561094057600080fd5b505af1158015610954573d6000803e3d6000fd5b50507f68c24fc24acf5b51ccf67c01fea706e9e0e110825d4f88d07623f64f32f55d89600090815260208190527fb37725651d2cc09d66105b54dd85c7c76ac8cad03a01e3ea70ae9b5116cf651754604080517f8f30aa2300000000000000000000000000000000000000000000000000000000815273ffffffffffffffffffffffffffffffffffffffff8a81166004830152602482018f9052604482018e90529151919092169450849350638f30aa239260648084019391929182900301818387803b158015610a2457600080fd5b505af1158015610a38573d6000803e3d6000fd5b50506040805133815273ffffffffffffffffffffffffffffffffffffffff8816602082015281517f46cbfe2c048a0dda4faa21bf335a3984a9b4455b4aaa7c1d9ff453444ef4f4969450908190039091019150a15091979650505050505050565b610b3d80610ab483390190565b611525806115f18339019056fe608060405234801561001057600080fd5b50600080546001600160a01b031916339081178255604051909182917f8be0079c531659141344cd1fd0a4f28419497f9722a3daafe3b4186f6b6457e0908290a3507f14748f6bfff2d8158c3447bdb0641e791ab47d274e214ef85cf9b2fc9b5d7c5a80546001600160a01b0319163390811790915560009081526002602052604090207f02016836a56b71f0d02689e69e326f4f4c1b9057164ef592671cf0d37c8040c09055610a77806100c66000396000f3fe60806040526004361061007f5760003560e01c8063715018a61161004e578063715018a6146102775780638da5cb5b1461028c5780638f32d59b146102a1578063f2fde38b146102b657610159565b806321f8a7211461015e57806335324eee146101b15780634114509b146101f957806342f6e3891461022357610159565b36610159577f68c24fc24acf5b51ccf67c01fea706e9e0e110825d4f88d07623f64f32f55d89600090815260016020527f92f52b956cda82911ad57c5f95472a35257cc429d7d1c9eb7d553b49d2d1f02a54604080517fbd85df0e000000000000000000000000000000000000000000000000000000008152306004820152905173ffffffffffffffffffffffffffffffffffffffff90921692839263bd85df0e92602480820193929182900301818387803b15801561013e57600080fd5b505af1158015610152573d6000803e3d6000fd5b5050505050005b600080fd5b34801561016a57600080fd5b506101886004803603602081101561018157600080fd5b50356102f6565b6040805173ffffffffffffffffffffffffffffffffffffffff9092168252519081900360200190f35b3480156101bd57600080fd5b506101f7600480360360408110156101d457600080fd5b508035906020013573ffffffffffffffffffffffffffffffffffffffff1661031e565b005b34801561020557600080fd5b506101f76004803603602081101561021c57600080fd5b5035610560565b34801561022f57600080fd5b506102636004803603602081101561024657600080fd5b503573ffffffffffffffffffffffffffffffffffffffff16610724565b604080519115158252519081900360200190f35b34801561028357600080fd5b506101f761074e565b34801561029857600080fd5b50610188610830565b3480156102ad57600080fd5b5061026361084c565b3480156102c257600080fd5b506101f7600480360360208110156102d957600080fd5b503573ffffffffffffffffffffffffffffffffffffffff1661086a565b60009081526001602052604090205473ffffffffffffffffffffffffffffffffffffffff1690565b33600090815260026020526040902054610383576040517f08c379a0000000000000000000000000000000000000000000000000000000008152600401808060200182810382526039815260200180610a096039913960400191505060405180910390fd5b816103ef57604080517f08c379a000000000000000000000000000000000000000000000000000000000815260206004820152601b60248201527f6d6f64756c65206964206d757374206e6f7420626520656d7074790000000000604482015290519081900360640190fd5b73ffffffffffffffffffffffffffffffffffffffff811661047157604080517f08c379a000000000000000000000000000000000000000000000000000000000815260206004820181905260248201527f6d6f64756c652061646472657373206d757374206e6f7420626520656d707479604482015290519081900360640190fd5b60008281526001602052604090205473ffffffffffffffffffffffffffffffffffffffff161561050257604080517f08c379a000000000000000000000000000000000000000000000000000000000815260206004820152601860248201527f6d6f64756c6520696420616c726561647920696e207573650000000000000000604482015290519081900360640190fd5b6000828152600160209081526040808320805473ffffffffffffffffffffffffffffffffffffffff9095167fffffffffffffffffffffffff000000000000000000000000000000000000000090951685179055928252600290522055565b336000908152600260205260409020546105c5576040517f08c379a0000000000000000000000000000000000000000000000000000000008152600401808060200182810382526039815260200180610a096039913960400191505060405180910390fd5b8061063157604080517f08c379a000000000000000000000000000000000000000000000000000000000815260206004820152601b60248201527f6d6f64756c65206964206d757374206e6f7420626520656d7074790000000000604482015290519081900360640190fd5b60008181526001602052604090205473ffffffffffffffffffffffffffffffffffffffff166106c157604080517f08c379a000000000000000000000000000000000000000000000000000000000815260206004820152601560248201527f6d6f64756c65206e6f7420726567697374657265640000000000000000000000604482015290519081900360640190fd5b6000818152600160208181526040808420805473ffffffffffffffffffffffffffffffffffffffff1685526002835290842084905593909252905280547fffffffffffffffffffffffff0000000000000000000000000000000000000000169055565b73ffffffffffffffffffffffffffffffffffffffff16600090815260026020526040902054151590565b61075661084c565b6107c157604080517f08c379a000000000000000000000000000000000000000000000000000000000815260206004820181905260248201527f4f776e61626c653a2063616c6c6572206973206e6f7420746865206f776e6572604482015290519081900360640190fd5b6000805460405173ffffffffffffffffffffffffffffffffffffffff909116907f8be0079c531659141344cd1fd0a4f28419497f9722a3daafe3b4186f6b6457e0908390a3600080547fffffffffffffffffffffffff0000000000000000000000000000000000000000169055565b60005473ffffffffffffffffffffffffffffffffffffffff1690565b60005473ffffffffffffffffffffffffffffffffffffffff16331490565b61087261084c565b6108dd57604080517f08c379a000000000000000000000000000000000000000000000000000000000815260206004820181905260248201527f4f776e61626c653a2063616c6c6572206973206e6f7420746865206f776e6572604482015290519081900360640190fd5b6108e6816108e9565b50565b73ffffffffffffffffffffffffffffffffffffffff8116610955576040517f08c379a00000000000000000000000000000000000000000000000000000000081526004018080602001828103825260268152602001806109e36026913960400191505060405180910390fd5b6000805460405173ffffffffffffffffffffffffffffffffffffffff808516939216917f8be0079c531659141344cd1fd0a4f28419497f9722a3daafe3b4186f6b6457e091a3600080547fffffffffffffffffffffffff00000000000000000000000000000000000000001673ffffffffffffffffffffffffffffffffffffffff9290921691909117905556fe4f776e61626c653a206e6577206f776e657220697320746865207a65726f20616464726573736f6e6c7920612072656769737465726564206d6f64756c6520697320616c6c6f77656420746f2063616c6c20746869732066756e6374696f6ea264697066735822122090d20afde1baee2d256f46cfb6aba0e34f5f93e1ccf94ebc54885b6bbd40cc7064736f6c63430007000033608060405234801561001057600080fd5b506040516115253803806115258339818101604052606081101561003357600080fd5b5080516020820151604090920151600080546001600160a01b0319166001600160a01b038416179055909190816100a6576040805162461bcd60e51b8152602060048201526012602482015271696e76616c6964205f6368756e6b53697a6560701b604482015290519081900360640190fd5b6003829055806100f1576040805162461bcd60e51b8152602060048201526011602482015270696e76616c6964205f6e6253686172657360781b604482015290519081900360640190fd5b6004555050611420806101056000396000f3fe6080604052600436106101125760003560e01c8063b01ca88f116100a5578063ee7a7c0411610074578063f47c84c511610059578063f47c84c51461040b578063f5d54c7714610420578063f7888aec1461043557610119565b8063ee7a7c0414610385578063ef6a2499146103cb57610119565b8063b01ca88f14610300578063bedcdbaa14610346578063c4a942cb1461035b578063e681c4aa1461037057610119565b806353d4de30116100e157806353d4de301461021e5780636a5a680c1461024557806389a073091461025a57806394cb0947146102ac57610119565b806303d8fed91461011e57806327efc08614610166578063292f4e95146101a45780634f64b2be146101f457610119565b3661011957005b600080fd5b34801561012a57600080fd5b506101646004803603604081101561014157600080fd5b5073ffffffffffffffffffffffffffffffffffffffff813516906020013561047d565b005b34801561017257600080fd5b5061017b6107af565b6040805173ffffffffffffffffffffffffffffffffffffffff9092168252519081900360200190f35b3480156101b057600080fd5b50610164600480360360608110156101c757600080fd5b5073ffffffffffffffffffffffffffffffffffffffff8135811691602081013590911690604001356107b5565b34801561020057600080fd5b5061017b6004803603602081101561021757600080fd5b5035610a01565b34801561022a57600080fd5b50610233610a35565b60408051918252519081900360200190f35b34801561025157600080fd5b50610233610a3b565b34801561026657600080fd5b506102336004803603606081101561027d57600080fd5b5073ffffffffffffffffffffffffffffffffffffffff8135811691602081013582169160409091013516610a41565b3480156102b857600080fd5b506102ec600480360360208110156102cf57600080fd5b503573ffffffffffffffffffffffffffffffffffffffff16610a64565b604080519115158252519081900360200190f35b34801561030c57600080fd5b506101646004803603604081101561032357600080fd5b5073ffffffffffffffffffffffffffffffffffffffff8135169060200135610a79565b34801561035257600080fd5b50610233610c62565b34801561036757600080fd5b50610233610c68565b34801561037c57600080fd5b5061017b610c6e565b34801561039157600080fd5b50610164600480360360408110156103a857600080fd5b5073ffffffffffffffffffffffffffffffffffffffff8135169060200135610c74565b3480156103d757600080fd5b506102ec600480360360208110156103ee57600080fd5b503573ffffffffffffffffffffffffffffffffffffffff16611064565b34801561041757600080fd5b506102336111e4565b34801561042c57600080fd5b5061017b6111e9565b34801561044157600080fd5b506102336004803603604081101561045857600080fd5b5073ffffffffffffffffffffffffffffffffffffffff813581169160200135166111ef565b600054604080517f42f6e389000000000000000000000000000000000000000000000000000000008152336004820152905173ffffffffffffffffffffffffffffffffffffffff9092169182916342f6e389916024808301926020929190829003018186803b1580156104ef57600080fd5b505afa158015610503573d6000803e3d6000fd5b505050506040513d602081101561051957600080fd5b5051610570576040517f08c379a00000000000000000000000000000000000000000000000000000000081526004018080602001828103825260338152602001806113b86033913960400191505060405180910390fd5b73ffffffffffffffffffffffffffffffffffffffff831661dead148015906105b0575073ffffffffffffffffffffffffffffffffffffffff831661beef14155b80156105d4575073ffffffffffffffffffffffffffffffffffffffff831661babe14155b61063f57604080517f08c379a000000000000000000000000000000000000000000000000000000000815260206004820152600d60248201527f696e76616c696420746f6b656e00000000000000000000000000000000000000604482015290519081900360640190fd5b6000546106669073ffffffffffffffffffffffffffffffffffffffff1661dead8585611233565b73ffffffffffffffffffffffffffffffffffffffff831660009081526002602052604090205460ff166107aa5760015460641161070457604080517f08c379a000000000000000000000000000000000000000000000000000000000815260206004820152601160248201527f6d6178206c696d69742072656163686564000000000000000000000000000000604482015290519081900360640190fd5b73ffffffffffffffffffffffffffffffffffffffff8316600081815260026020526040812080547fffffffffffffffffffffffffffffffffffffffffffffffffffffffffffffff001660019081179091558054808201825591527fb10e2d527612073b26eecdfd717e6a320cf44b4afac2b0732d9fcbe2b7fa0cf60180547fffffffffffffffffffffffff00000000000000000000000000000000000000001690911790555b505050565b61babe81565b600054604080517f42f6e389000000000000000000000000000000000000000000000000000000008152336004820152905173ffffffffffffffffffffffffffffffffffffffff9092169182916342f6e389916024808301926020929190829003018186803b15801561082757600080fd5b505afa15801561083b573d6000803e3d6000fd5b505050506040513d602081101561085157600080fd5b50516108a8576040517f08c379a00000000000000000000000000000000000000000000000000000000081526004018080602001828103825260338152602001806113b86033913960400191505060405180910390fd5b6000805473ffffffffffffffffffffffffffffffffffffffff908116825260056020908152604080842061dead85528252808420928716845291905290205482111561095557604080517f08c379a000000000000000000000000000000000000000000000000000000000815260206004820152601460248201527f696e73756666696369656e742062616c616e6365000000000000000000000000604482015290519081900360640190fd5b60005461097c9073ffffffffffffffffffffffffffffffffffffffff1661dead8585611299565b6000546109a19073ffffffffffffffffffffffffffffffffffffffff16858585611233565b6040805173ffffffffffffffffffffffffffffffffffffffff85811682526020820185905282519087169261dead927fd1398bee19313d6bf672ccb116e51f4a1a947e91c757907f51fbb5b5e56c698f929081900390910190a350505050565b60018181548110610a0e57fe5b60009182526020909120015473ffffffffffffffffffffffffffffffffffffffff16905081565b60035490565b60045490565b600560209081526000938452604080852082529284528284209052825290205481565b60026020526000908152604090205460ff1681565b600054604080517f42f6e389000000000000000000000000000000000000000000000000000000008152336004820152905173ffffffffffffffffffffffffffffffffffffffff9092169182916342f6e389916024808301926020929190829003018186803b158015610aeb57600080fd5b505afa158015610aff573d6000803e3d6000fd5b505050506040513d6020811015610b1557600080fd5b5051610b6c576040517f08c379a00000000000000000000000000000000000000000000000000000000081526004018080602001828103825260338152602001806113b86033913960400191505060405180910390fd5b73ffffffffffffffffffffffffffffffffffffffff831661dead14801590610bac575073ffffffffffffffffffffffffffffffffffffffff831661beef14155b8015610bd0575073ffffffffffffffffffffffffffffffffffffffff831661babe14155b610c3b57604080517f08c379a000000000000000000000000000000000000000000000000000000000815260206004820152600d60248201527f696e76616c696420746f6b656e00000000000000000000000000000000000000604482015290519081900360640190fd5b6000546106669073ffffffffffffffffffffffffffffffffffffffff1661beef8585611233565b60045481565b60035481565b61beef81565b600054604080517f42f6e389000000000000000000000000000000000000000000000000000000008152336004820152905173ffffffffffffffffffffffffffffffffffffffff9092169182916342f6e389916024808301926020929190829003018186803b158015610ce657600080fd5b505afa158015610cfa573d6000803e3d6000fd5b505050506040513d6020811015610d1057600080fd5b5051610d67576040517f08c379a00000000000000000000000000000000000000000000000000000000081526004018080602001828103825260338152602001806113b86033913960400191505060405180910390fd5b60008054604080517f21f8a7210000000000000000000000000000000000000000000000000000000081527f14ceb1149cdab84b395151a21d3de6707dd76fff3e7bc4e018925a9986b7f72f6004820152905173ffffffffffffffffffffffffffffffffffffffff909216916321f8a72191602480820192602092909190829003018186803b158015610df957600080fd5b505afa158015610e0d573d6000803e3d6000fd5b505050506040513d6020811015610e2357600080fd5b5051604080517fd5002f2e000000000000000000000000000000000000000000000000000000008152905191925060009173ffffffffffffffffffffffffffffffffffffffff84169163d5002f2e916004808301926020929190829003018186803b158015610e9157600080fd5b505afa158015610ea5573d6000803e3d6000fd5b505050506040513d6020811015610ebb57600080fd5b5051905060005b60015481101561105c57600060018281548110610edb57fe5b6000918252602080832090910154825473ffffffffffffffffffffffffffffffffffffffff908116845260058352604080852061dead86528452808520919092168085529252822054909250610f32908886611301565b90508015611052576000805473ffffffffffffffffffffffffffffffffffffffff908116825260056020908152604080842061dead855282528084209286168452919052902054811115610fe757604080517f08c379a000000000000000000000000000000000000000000000000000000000815260206004820152601460248201527f696e73756666696369656e742062616c616e6365000000000000000000000000604482015290519081900360640190fd5b6000805473ffffffffffffffffffffffffffffffffffffffff908116825260056020818152604080852061dead8652825280852087851680875290835281862080548890039055855485168652928252808520938d1685529281528284209184525290208054820190555b5050600101610ec2565b505050505050565b60008054604080517f42f6e389000000000000000000000000000000000000000000000000000000008152336004820152905173ffffffffffffffffffffffffffffffffffffffff9092169182916342f6e389916024808301926020929190829003018186803b1580156110d757600080fd5b505afa1580156110eb573d6000803e3d6000fd5b505050506040513d602081101561110157600080fd5b5051611158576040517f08c379a00000000000000000000000000000000000000000000000000000000081526004018080602001828103825260338152602001806113b86033913960400191505060405180910390fd5b73ffffffffffffffffffffffffffffffffffffffff831615801590611195575073ffffffffffffffffffffffffffffffffffffffff831661dead14155b80156111b9575073ffffffffffffffffffffffffffffffffffffffff831661beef14155b80156111dd575073ffffffffffffffffffffffffffffffffffffffff831661babe14155b9392505050565b606481565b61dead81565b6000805473ffffffffffffffffffffffffffffffffffffffff9081168252600560209081526040808420958316845294815284832093909116825291909152205490565b73ffffffffffffffffffffffffffffffffffffffff938416600090815260056020908152604080832095871683528582528083209490961680835293815285822080548401905561babe8252938452848120928152919092529190912080549091019055565b73ffffffffffffffffffffffffffffffffffffffff93841660009081526005602090815260408083209587168352858252808320949096168083529381528582208054849003905561babe825293845284812092815291909252919091208054919091039055565b60008161136f57604080517f08c379a000000000000000000000000000000000000000000000000000000000815260206004820152601c60248201527f746f74616c207368617265732073686f756c64206e6f74206265203000000000604482015290519081900360640190fd5b8361137c575060006111dd565b8383028385828161138957fe5b0414156113a25782818161139957fe5b049150506111dd565b838386816113ac57fe5b04029594505050505056fe6f6e6c7920636f7265206d6f64756c65732061726520616c6c6f77656420746f2063616c6c20746869732066756e6374696f6ea2646970667358221220bcb931b786840081ad30e4750d637d81b99b7af3bb4ab8c35cc6db324ea6b58864736f6c63430007000033a26469706673582212206d4e54bdbffebf759ddf89fd7f55b151a1ea93e43e409f5a164e2920d2455d2264736f6c63430007000033",
  "immutableReferences": {},
  "source": "pragma solidity ^0.7.0;\n\n// SPDX-License-Identifier: MIT\n\nimport './Module.sol';\nimport './Registry.sol';\nimport '../core/interfaces/IVoting.sol';\nimport '../core/interfaces/IProposal.sol';\nimport '../core/interfaces/IMember.sol';\nimport '../core/banking/Bank.sol';\nimport '../adapters/Onboarding.sol';\nimport '../adapters/Financing.sol';\nimport '../adapters/Managing.sol';\nimport '../adapters/Ragequit.sol';\n\ncontract DaoFactory is Module {\n\n    event NewDao(address summoner, address dao);\n\n    mapping(bytes32 => address) addresses;\n\n    constructor (address memberAddress, address proposalAddress, address votingAddress, address ragequitAddress, address managingAddress, address financingAddress, address onboardingAddress) {\n        addresses[MEMBER_MODULE] = memberAddress;\n        addresses[PROPOSAL_MODULE] = proposalAddress;\n        addresses[VOTING_MODULE] = votingAddress;\n        addresses[RAGEQUIT_MODULE] = ragequitAddress;\n        addresses[MANAGING_MODULE] = managingAddress;\n        addresses[FINANCING_MODULE] = financingAddress;\n        addresses[ONBOARDING_MODULE] = onboardingAddress;\n    }\n\n    /*\n     * @dev: A new DAO is instantiated with only the Core Modules enabled, to reduce the call cost. \n     *       Another call must be made to enable the default Adapters, see @registerDefaultAdapters.\n     */\n    function newDao(uint256 chunkSize, uint256 nbShares, uint256 votingPeriod) external returns (address) {\n        Registry dao = new Registry();\n        address daoAddress = address(dao);\n        //Registering Core Modules\n        dao.addModule(BANK_MODULE, address(new BankContract(dao, chunkSize, nbShares)));\n        dao.addModule(MEMBER_MODULE, addresses[MEMBER_MODULE]);\n        dao.addModule(PROPOSAL_MODULE, addresses[PROPOSAL_MODULE]);\n        dao.addModule(VOTING_MODULE, addresses[VOTING_MODULE]);\n\n        //Registring Adapters\n        dao.addModule(ONBOARDING_MODULE, addresses[ONBOARDING_MODULE]);\n        dao.addModule(FINANCING_MODULE, addresses[FINANCING_MODULE]);\n        dao.addModule(MANAGING_MODULE, addresses[MANAGING_MODULE]);\n        dao.addModule(RAGEQUIT_MODULE, addresses[RAGEQUIT_MODULE]);\n\n        IVoting votingContract = IVoting(addresses[VOTING_MODULE]);\n        votingContract.registerDao(daoAddress, votingPeriod);\n\n        IMember memberContract = IMember(addresses[MEMBER_MODULE]);\n        memberContract.updateMember(dao, msg.sender, 1);\n\n        OnboardingContract onboardingContract = OnboardingContract(addresses[ONBOARDING_MODULE]);\n        onboardingContract.configureOnboarding(dao, chunkSize, nbShares);\n\n        emit NewDao(msg.sender, daoAddress);\n\n        return daoAddress;\n    }\n\n}",
  "sourcePath": "/Users/davidroon/projects/moloch/contracts/v3/core/DaoFactory.sol",
  "compiler": {
    "name": "solc",
    "version": "0.7.0+commit.9e61f92b.Emscripten.clang"
  },
  "schemaVersion": "3.2.3",
  "updatedAt": "2020-09-17T11:52:26.483Z",
  "devdoc": {
    "kind": "dev",
    "methods": {},
    "version": 1
  },
  "userdoc": {
    "kind": "user",
    "methods": {},
    "version": 1
  }
}