{
  "contractName": "FinancingContract",
  "abi": [
    {
      "inputs": [
        {
          "internalType": "address",
          "name": "",
          "type": "address"
        },
        {
          "internalType": "uint256",
          "name": "",
          "type": "uint256"
        }
      ],
      "name": "proposals",
      "outputs": [
        {
          "internalType": "address",
          "name": "applicant",
          "type": "address"
        },
        {
          "internalType": "uint256",
          "name": "amount",
          "type": "uint256"
        },
        {
          "internalType": "address",
          "name": "token",
          "type": "address"
        },
        {
          "internalType": "bytes32",
          "name": "details",
          "type": "bytes32"
        },
        {
          "internalType": "bool",
          "name": "processed",
          "type": "bool"
        }
      ],
      "stateMutability": "view",
      "type": "function"
    },
    {
      "stateMutability": "payable",
      "type": "receive"
    },
    {
      "inputs": [
        {
          "internalType": "contract Registry",
          "name": "dao",
          "type": "address"
        },
        {
          "internalType": "address",
          "name": "applicant",
          "type": "address"
        },
        {
          "internalType": "address",
          "name": "token",
          "type": "address"
        },
        {
          "internalType": "uint256",
          "name": "amount",
          "type": "uint256"
        },
        {
          "internalType": "bytes32",
          "name": "details",
          "type": "bytes32"
        }
      ],
      "name": "createFinancingRequest",
      "outputs": [
        {
          "internalType": "uint256",
          "name": "",
          "type": "uint256"
        }
      ],
      "stateMutability": "nonpayable",
      "type": "function"
    },
    {
      "inputs": [
        {
          "internalType": "contract Registry",
          "name": "dao",
          "type": "address"
        },
        {
          "internalType": "uint256",
          "name": "proposalId",
          "type": "uint256"
        },
        {
          "internalType": "bytes",
          "name": "data",
          "type": "bytes"
        }
      ],
      "name": "sponsorProposal",
      "outputs": [],
      "stateMutability": "nonpayable",
      "type": "function"
    },
    {
      "inputs": [
        {
          "internalType": "contract Registry",
          "name": "dao",
          "type": "address"
        },
        {
          "internalType": "uint256",
          "name": "proposalId",
          "type": "uint256"
        }
      ],
      "name": "processProposal",
      "outputs": [],
      "stateMutability": "nonpayable",
      "type": "function"
    }
  ],
  "bytecode": "0x608060405234801561001057600080fd5b5061108a806100206000396000f3fe6080604052600436106100435760003560e01c80633027329a146100525780637eb9b674146100c05780638e23a2f514610161578063da4dfce6146101ee5761004d565b3661004d57600080fd5b600080fd5b34801561005e57600080fd5b506100ae600480360360a081101561007557600080fd5b5073ffffffffffffffffffffffffffffffffffffffff813581169160208101358216916040820135169060608101359060800135610234565b60408051918252519081900360200190f35b3480156100cc57600080fd5b5061015f600480360360608110156100e357600080fd5b73ffffffffffffffffffffffffffffffffffffffff8235169160208101359181019060608101604082013564010000000081111561012057600080fd5b82018360208201111561013257600080fd5b8035906020019184600183028401116401000000008311171561015457600080fd5b5090925090506106ad565b005b34801561016d57600080fd5b506101a76004803603604081101561018457600080fd5b5073ffffffffffffffffffffffffffffffffffffffff81351690602001356109c8565b6040805173ffffffffffffffffffffffffffffffffffffffff9687168152602081019590955292909416838301526060830152911515608082015290519081900360a00190f35b3480156101fa57600080fd5b5061015f6004803603604081101561021157600080fd5b5073ffffffffffffffffffffffffffffffffffffffff8135169060200135610a1b565b60008083116102a457604080517f08c379a000000000000000000000000000000000000000000000000000000000815260206004820152601860248201527f696e76616c69642072657175657374656420616d6f756e740000000000000000604482015290519081900360640190fd5b73ffffffffffffffffffffffffffffffffffffffff84161561032757604080517f08c379a000000000000000000000000000000000000000000000000000000000815260206004820152601f60248201527f6f6e6c79207261772065746820746f6b656e20697320737570706f7274656400604482015290519081900360640190fd5b60008673ffffffffffffffffffffffffffffffffffffffff166321f8a7217fea0ca03c7adbe41dc655fec28a9209dc8e6e042f3d991a67765ba285b9cf73a06040518263ffffffff1660e01b81526004018082815260200191505060206040518083038186803b15801561039a57600080fd5b505afa1580156103ae573d6000803e3d6000fd5b505050506040513d60208110156103c457600080fd5b5051604080517fef6a249900000000000000000000000000000000000000000000000000000000815273ffffffffffffffffffffffffffffffffffffffff898116600483015291519293509083169163ef6a2499916024808201926020929091908290030181600087803b15801561043b57600080fd5b505af115801561044f573d6000803e3d6000fd5b505050506040513d602081101561046557600080fd5b50516104bc576040517f08c379a0000000000000000000000000000000000000000000000000000000008152600401808060200182810382526024815260200180610fff6024913960400191505060405180910390fd5b60008773ffffffffffffffffffffffffffffffffffffffff166321f8a7217fb6d2dc83590271a7c0a5ab5fbf6a2dad418bbfd533c253e3d69a6772712809c76040518263ffffffff1660e01b81526004018082815260200191505060206040518083038186803b15801561052f57600080fd5b505afa158015610543573d6000803e3d6000fd5b505050506040513d602081101561055957600080fd5b5051604080517f07eecaf500000000000000000000000000000000000000000000000000000000815273ffffffffffffffffffffffffffffffffffffffff8b811660048301529151929350600092918416916307eecaf59160248082019260209290919082900301818787803b1580156105d257600080fd5b505af11580156105e6573d6000803e3d6000fd5b505050506040513d60208110156105fc57600080fd5b505173ffffffffffffffffffffffffffffffffffffffff998a1660009081526020818152604080832084845290915290208054998b167fffffffffffffffffffffffff00000000000000000000000000000000000000009a8b16178155600181019790975560038701959095555050506004830180547fffffffffffffffffffffffffffffffffffffffffffffffffffffffffffffff00169055506002909101805492909416919092161790915590565b8360008173ffffffffffffffffffffffffffffffffffffffff166321f8a7217f14ceb1149cdab84b395151a21d3de6707dd76fff3e7bc4e018925a9986b7f72f6040518263ffffffff1660e01b81526004018082815260200191505060206040518083038186803b15801561072157600080fd5b505afa158015610735573d6000803e3d6000fd5b505050506040513d602081101561074b57600080fd5b5051604080517f8ecf772000000000000000000000000000000000000000000000000000000000815273ffffffffffffffffffffffffffffffffffffffff8581166004830152336024830152915192935090831691638ecf7720916044808201926020929091908290030181600087803b1580156107c857600080fd5b505af11580156107dc573d6000803e3d6000fd5b505050506040513d60208110156107f257600080fd5b5051610849576040517f08c379a00000000000000000000000000000000000000000000000000000000081526004018080602001828103825260328152602001806110236032913960400191505060405180910390fd5b60008673ffffffffffffffffffffffffffffffffffffffff166321f8a7217fb6d2dc83590271a7c0a5ab5fbf6a2dad418bbfd533c253e3d69a6772712809c76040518263ffffffff1660e01b81526004018082815260200191505060206040518083038186803b1580156108bc57600080fd5b505afa1580156108d0573d6000803e3d6000fd5b505050506040513d60208110156108e657600080fd5b50516040517ff62ee05a00000000000000000000000000000000000000000000000000000000815273ffffffffffffffffffffffffffffffffffffffff89811660048301908152602483018a90523360448401819052608060648501908152608485018a90529495509185169363f62ee05a938c938c9390928c928c92919060a401848480828437600081840152601f19601f8201169050808301925050509650505050505050600060405180830381600087803b1580156109a757600080fd5b505af11580156109bb573d6000803e3d6000fd5b5050505050505050505050565b60006020818152928152604080822090935290815220805460018201546002830154600384015460049094015473ffffffffffffffffffffffffffffffffffffffff938416949293909116919060ff1685565b8160008173ffffffffffffffffffffffffffffffffffffffff166321f8a7217f14ceb1149cdab84b395151a21d3de6707dd76fff3e7bc4e018925a9986b7f72f6040518263ffffffff1660e01b81526004018082815260200191505060206040518083038186803b158015610a8f57600080fd5b505afa158015610aa3573d6000803e3d6000fd5b505050506040513d6020811015610ab957600080fd5b5051604080517f8ecf772000000000000000000000000000000000000000000000000000000000815273ffffffffffffffffffffffffffffffffffffffff8581166004830152336024830152915192935090831691638ecf7720916044808201926020929091908290030181600087803b158015610b3657600080fd5b505af1158015610b4a573d6000803e3d6000fd5b505050506040513d6020811015610b6057600080fd5b5051610bb7576040517f08c379a00000000000000000000000000000000000000000000000000000000081526004018080602001828103825260328152602001806110236032913960400191505060405180910390fd5b610bbf610fab565b5073ffffffffffffffffffffffffffffffffffffffff808516600090815260208181526040808320878452825291829020825160a0810184528154851681526001820154928101929092526002810154909316918101919091526003820154606082015260049091015460ff161580156080830152610c9f57604080517f08c379a000000000000000000000000000000000000000000000000000000000815260206004820152601a60248201527f70726f706f73616c20616c72656164792070726f636573736564000000000000604482015290519081900360640190fd5b60008573ffffffffffffffffffffffffffffffffffffffff166321f8a7217f0e49311626a26ba5be58a3b13d239908e80ce0dffdd5c50bf1d9c82ff35d1ab36040518263ffffffff1660e01b81526004018082815260200191505060206040518083038186803b158015610d1257600080fd5b505afa158015610d26573d6000803e3d6000fd5b505050506040513d6020811015610d3c57600080fd5b5051604080517f8df8ca2c00000000000000000000000000000000000000000000000000000000815273ffffffffffffffffffffffffffffffffffffffff898116600483015260248201899052915192935090831691638df8ca2c916044808201926020929091908290030181600087803b158015610dba57600080fd5b505af1158015610dce573d6000803e3d6000fd5b505050506040513d6020811015610de457600080fd5b5051600214610e3e576040517f08c379a0000000000000000000000000000000000000000000000000000000008152600401808060200182810382526025815260200180610fda6025913960400191505060405180910390fd5b60008673ffffffffffffffffffffffffffffffffffffffff166321f8a7217fea0ca03c7adbe41dc655fec28a9209dc8e6e042f3d991a67765ba285b9cf73a06040518263ffffffff1660e01b81526004018082815260200191505060206040518083038186803b158015610eb157600080fd5b505afa158015610ec5573d6000803e3d6000fd5b505050506040513d6020811015610edb57600080fd5b505173ffffffffffffffffffffffffffffffffffffffff8089166000908152602081815260408083208b84528252808320600490810180547fffffffffffffffffffffffffffffffffffffffffffffffffffffffffffffff00166001179055885189830151938a015183517f292f4e950000000000000000000000000000000000000000000000000000000081529187169282019290925292851660248401526044830152519394509184169263292f4e9592606480820193929182900301818387803b1580156109a757600080fd5b6040805160a0810182526000808252602082018190529181018290526060810182905260808101919091529056fe70726f706f73616c206e65656420746f207061737320746f2062652070726f6365737365646170706c6963616e7420616464726573732063616e6e6f742062652072657365727665646f6e6c792044414f206d656d626572732061726520616c6c6f77656420746f2063616c6c20746869732066756e6374696f6ea264697066735822122060e5b3eec2a93871bc481f432b803547495c17bb5a08ce60fadcb00bc908c87a64736f6c63430007000033",
  "immutableReferences": {},
  "source": "pragma solidity ^0.7.0;\n\n// SPDX-License-Identifier: MIT\n\nimport './interfaces/IFinancing.sol';\nimport '../core/Module.sol';\nimport '../core/Registry.sol';\nimport '../core/interfaces/IVoting.sol';\nimport '../core/interfaces/IProposal.sol';\nimport '../core/interfaces/IBank.sol';\nimport '../guards/AdapterGuard.sol';\nimport '../utils/SafeMath.sol';\n\ncontract FinancingContract is IFinancing, Module, AdapterGuard  {\n    using SafeMath for uint256;\n\n    struct ProposalDetails {\n        address applicant;\n        uint256 amount;\n        address token;\n        bytes32 details;\n        bool processed;\n    }\n\n    mapping(address => mapping(uint256 => ProposalDetails)) public proposals;\n\n    /* \n     * default fallback function to prevent from sending ether to the contract\n     */\n    receive() external payable {\n        revert();\n    }\n\n    function createFinancingRequest(Registry dao, address applicant, address token, uint256 amount, bytes32 details) override external returns (uint256) {\n        require(amount > 0, \"invalid requested amount\");\n        require(token == address(0x0), \"only raw eth token is supported\");\n        //TODO (fforbeck): check if other types of tokens are supported/allowed\n\n        IBank bankContract = IBank(dao.getAddress(BANK_MODULE));\n        require(bankContract.isNotReservedAddress(applicant), \"applicant address cannot be reserved\");\n        \n        IProposal proposalContract = IProposal(dao.getAddress(PROPOSAL_MODULE));\n        uint256 proposalId = proposalContract.createProposal(dao);\n\n        ProposalDetails storage proposal = proposals[address(dao)][proposalId];\n        proposal.applicant = applicant;\n        proposal.amount = amount;\n        proposal.details = details;\n        proposal.processed = false;\n        proposal.token = token;\n        return proposalId;\n    }\n\n    function sponsorProposal(Registry dao, uint256 proposalId, bytes calldata data) override external onlyMember(dao) {\n        IProposal proposalContract = IProposal(dao.getAddress(PROPOSAL_MODULE));\n        proposalContract.sponsorProposal(dao, proposalId, msg.sender, data);\n    }\n\n    function processProposal(Registry dao, uint256 proposalId) override external onlyMember(dao) {\n        ProposalDetails memory proposal = proposals[address(dao)][proposalId];\n        require(!proposal.processed, \"proposal already processed\");\n\n        IVoting votingContract = IVoting(dao.getAddress(VOTING_MODULE));\n        require(votingContract.voteResult(dao, proposalId) == 2, \"proposal need to pass to be processed\");\n\n        IBank bankContract = IBank(dao.getAddress(BANK_MODULE));\n        proposals[address(dao)][proposalId].processed = true;\n        bankContract.transferFromGuild(proposal.applicant, proposal.token, proposal.amount);\n    }\n}",
  "sourcePath": "/Users/davidroon/projects/moloch/contracts/v3/adapters/Financing.sol",
  "compiler": {
    "name": "solc",
    "version": "0.7.0+commit.9e61f92b.Emscripten.clang"
  },
  "schemaVersion": "3.2.3",
  "updatedAt": "2020-09-17T11:52:26.473Z",
  "devdoc": {
    "kind": "dev",
    "methods": {},
    "version": 1
  },
  "userdoc": {
    "kind": "user",
    "methods": {},
    "version": 1
  }
}