{
  "contractName": "FlagHelper",
  "abi": [
    {
      "inputs": [
        {
          "internalType": "uint256",
          "name": "flags",
          "type": "uint256"
        },
        {
          "internalType": "uint256",
          "name": "pos",
          "type": "uint256"
        }
      ],
      "name": "getFlag",
      "outputs": [
        {
          "internalType": "bool",
          "name": "",
          "type": "bool"
        }
      ],
      "stateMutability": "pure",
      "type": "function"
    },
    {
      "inputs": [
        {
          "internalType": "uint256",
          "name": "flags",
          "type": "uint256"
        },
        {
          "internalType": "uint256",
          "name": "pos",
          "type": "uint256"
        },
        {
          "internalType": "bool",
          "name": "value",
          "type": "bool"
        }
      ],
      "name": "setFlag",
      "outputs": [
        {
          "internalType": "uint256",
          "name": "",
          "type": "uint256"
        }
      ],
      "stateMutability": "pure",
      "type": "function"
    },
    {
      "inputs": [
        {
          "internalType": "uint256",
          "name": "flags",
          "type": "uint256"
        }
      ],
      "name": "exists",
      "outputs": [
        {
          "internalType": "bool",
          "name": "",
          "type": "bool"
        }
      ],
      "stateMutability": "pure",
      "type": "function"
    },
    {
      "inputs": [
        {
          "internalType": "uint256",
          "name": "flags",
          "type": "uint256"
        }
      ],
      "name": "isSponsored",
      "outputs": [
        {
          "internalType": "bool",
          "name": "",
          "type": "bool"
        }
      ],
      "stateMutability": "pure",
      "type": "function"
    },
    {
      "inputs": [
        {
          "internalType": "uint256",
          "name": "flags",
          "type": "uint256"
        }
      ],
      "name": "isProcessed",
      "outputs": [
        {
          "internalType": "bool",
          "name": "",
          "type": "bool"
        }
      ],
      "stateMutability": "pure",
      "type": "function"
    },
    {
      "inputs": [
        {
          "internalType": "uint256",
          "name": "flags",
          "type": "uint256"
        }
      ],
      "name": "hasPassed",
      "outputs": [
        {
          "internalType": "bool",
          "name": "",
          "type": "bool"
        }
      ],
      "stateMutability": "pure",
      "type": "function"
    },
    {
      "inputs": [
        {
          "internalType": "uint256",
          "name": "flags",
          "type": "uint256"
        }
      ],
      "name": "isCancelled",
      "outputs": [
        {
          "internalType": "bool",
          "name": "",
          "type": "bool"
        }
      ],
      "stateMutability": "pure",
      "type": "function"
    },
    {
      "inputs": [
        {
          "internalType": "uint256",
          "name": "flags",
          "type": "uint256"
        }
      ],
      "name": "isJailed",
      "outputs": [
        {
          "internalType": "bool",
          "name": "",
          "type": "bool"
        }
      ],
      "stateMutability": "pure",
      "type": "function"
    },
    {
      "inputs": [
        {
          "internalType": "uint256",
          "name": "flags",
          "type": "uint256"
        }
      ],
      "name": "isPass",
      "outputs": [
        {
          "internalType": "bool",
          "name": "",
          "type": "bool"
        }
      ],
      "stateMutability": "pure",
      "type": "function"
    }
  ],
  "bytecode": "0x6103b5610026600b82828239805160001a60731461001957fe5b30600052607381538281f3fe73000000000000000000000000000000000000000030146080604052600436106100ad5760003560e01c8063683fb45b11610080578063bfe7edd711610065578063bfe7edd714610194578063cdf92c27146101b1578063fc258031146101ce576100ad565b8063683fb45b1461013a578063b244a41d14610157576100ad565b80633aa5289e146100b25780634f558e79146100e35780635d897e16146101005780636351775c1461011d575b600080fd5b6100cf600480360360208110156100c857600080fd5b50356101f1565b604080519115158252519081900360200190f35b6100cf600480360360208110156100f957600080fd5b5035610204565b6100cf6004803603602081101561011657600080fd5b5035610211565b6100cf6004803603602081101561013357600080fd5b503561021e565b6100cf6004803603602081101561015057600080fd5b503561022b565b6101826004803603606081101561016d57600080fd5b50803590602081013590604001351515610238565b60408051918252519081900360200190f35b6100cf600480360360208110156101aa57600080fd5b50356102cb565b6100cf600480360360208110156101c757600080fd5b50356102d8565b6100cf600480360360408110156101e457600080fd5b50803590602001356102e1565b60006101fe8260016102e1565b92915050565b60006101fe8260006102e1565b60006101fe8260066102e1565b60006101fe8260056102e1565b60006101fe8260036102e1565b60006101008310610294576040517f08c379a00000000000000000000000000000000000000000000000000000000081526004018080602001828103825260378152602001806103496037913960400191505060405180910390fd5b8115156102a185856102e1565b1515146102c45781156102bb578260020a840190506102c4565b8260020a840390505b9392505050565b60006101fe8260026102e1565b60006101fe8260045b6000610100821061033d576040517f08c379a00000000000000000000000000000000000000000000000000000000081526004018080602001828103825260378152602001806103496037913960400191505060405180910390fd5b501c6001908116149056fe706f736974696f6e206f766572666c6f772e20506f736974696f6e2073686f756c64206265206265747765656e203020616e6420323535a2646970667358221220d86b6af07e0d106e14a7494aa5357b62660c43a3a6a4fa31521f5eab3acfb5bb64736f6c63430007000033",
  "immutableReferences": {},
  "source": "pragma solidity ^0.7.0;\n\n// SPDX-License-Identifier: MIT\n\nlibrary FlagHelper {\n    //helper\n    function getFlag(uint256 flags, uint256 pos) public pure returns (bool) {\n        require(pos < 256, \"position overflow. Position should be between 0 and 255\");\n        return (flags >> pos) % 2 == 1;\n    }\n\n    function setFlag(uint256 flags, uint256 pos, bool value) public pure returns (uint256) {\n        require(pos < 256, \"position overflow. Position should be between 0 and 255\");\n\n        if(getFlag(flags, pos) != value) {\n            if(value) {\n                return flags + (2 ** pos);\n            } else {\n                return flags - (2 ** pos);\n            }\n        }\n    }\n    //[sponsored, processed, didPass, cancelled]\n    function exists(uint256 flags) public pure returns (bool) {\n        return getFlag(flags, 0);\n    }\n    function isSponsored(uint256 flags) public pure returns (bool) {\n        return getFlag(flags, 1);\n    }\n\n    function isProcessed(uint256 flags) public pure returns (bool) {\n        return getFlag(flags, 2);\n    }\n    function hasPassed(uint256 flags) public pure returns (bool) {\n        return getFlag(flags, 3);\n    }\n    function isCancelled(uint256 flags) public pure returns (bool) {\n        return getFlag(flags, 4);\n    }\n    function isJailed(uint256 flags) public pure returns (bool) {\n        return getFlag(flags, 5);\n    }\n    function isPass(uint256 flags) public pure returns (bool) {\n        return getFlag(flags, 6);\n    }\n}",
  "sourcePath": "/Users/davidroon/projects/moloch/contracts/v3/helpers/FlagHelper.sol",
  "compiler": {
    "name": "solc",
    "version": "0.7.0+commit.9e61f92b.Emscripten.clang"
  },
  "schemaVersion": "3.2.3",
  "updatedAt": "2020-09-17T11:52:26.514Z",
  "devdoc": {
    "kind": "dev",
    "methods": {},
    "version": 1
  },
  "userdoc": {
    "kind": "user",
    "methods": {},
    "version": 1
  }
}