{
  "contractName": "ManagingContract",
  "abi": [
    {
      "inputs": [
        {
          "internalType": "uint256",
          "name": "",
          "type": "uint256"
        }
      ],
      "name": "proposals",
      "outputs": [
        {
          "internalType": "address",
          "name": "applicant",
          "type": "address"
        },
        {
          "internalType": "bytes32",
          "name": "moduleId",
          "type": "bytes32"
        },
        {
          "internalType": "address",
          "name": "moduleAddress",
          "type": "address"
        },
        {
          "internalType": "bool",
          "name": "processed",
          "type": "bool"
        }
      ],
      "stateMutability": "view",
      "type": "function"
    },
    {
      "stateMutability": "payable",
      "type": "receive"
    },
    {
      "inputs": [
        {
          "internalType": "contract Registry",
          "name": "dao",
          "type": "address"
        },
        {
          "internalType": "address",
          "name": "applicant",
          "type": "address"
        },
        {
          "internalType": "bytes32",
          "name": "moduleId",
          "type": "bytes32"
        },
        {
          "internalType": "address",
          "name": "moduleAddress",
          "type": "address"
        }
      ],
      "name": "createModuleChangeRequest",
      "outputs": [
        {
          "internalType": "uint256",
          "name": "",
          "type": "uint256"
        }
      ],
      "stateMutability": "nonpayable",
      "type": "function"
    },
    {
      "inputs": [
        {
          "internalType": "contract Registry",
          "name": "dao",
          "type": "address"
        },
        {
          "internalType": "uint256",
          "name": "proposalId",
          "type": "uint256"
        },
        {
          "internalType": "bytes",
          "name": "data",
          "type": "bytes"
        }
      ],
      "name": "sponsorProposal",
      "outputs": [],
      "stateMutability": "nonpayable",
      "type": "function"
    },
    {
      "inputs": [
        {
          "internalType": "contract Registry",
          "name": "dao",
          "type": "address"
        },
        {
          "internalType": "uint256",
          "name": "proposalId",
          "type": "uint256"
        }
      ],
      "name": "processProposal",
      "outputs": [],
      "stateMutability": "nonpayable",
      "type": "function"
    }
  ],
  "bytecode": "0x608060405234801561001057600080fd5b506110c9806100206000396000f3fe6080604052600436106100435760003560e01c8063013cf08b146100525780637eb9b674146100be5780639bc0b6a51461015f578063da4dfce6146101c75761004d565b3661004d57600080fd5b600080fd5b34801561005e57600080fd5b5061007c6004803603602081101561007557600080fd5b503561020d565b6040805173ffffffffffffffffffffffffffffffffffffffff958616815260208101949094529190931682820152911515606082015290519081900360800190f35b3480156100ca57600080fd5b5061015d600480360360608110156100e157600080fd5b73ffffffffffffffffffffffffffffffffffffffff8235169160208101359181019060608101604082013564010000000081111561011e57600080fd5b82018360208201111561013057600080fd5b8035906020019184600183028401116401000000008311171561015257600080fd5b509092509050610263565b005b34801561016b57600080fd5b506101b56004803603608081101561018257600080fd5b5073ffffffffffffffffffffffffffffffffffffffff81358116916020810135821691604082013591606001351661057e565b60408051918252519081900360200190f35b3480156101d357600080fd5b5061015d600480360360408110156101ea57600080fd5b5073ffffffffffffffffffffffffffffffffffffffff8135169060200135610a59565b60006020819052908152604090208054600182015460029092015473ffffffffffffffffffffffffffffffffffffffff918216929181169074010000000000000000000000000000000000000000900460ff1684565b8360008173ffffffffffffffffffffffffffffffffffffffff166321f8a7217f14ceb1149cdab84b395151a21d3de6707dd76fff3e7bc4e018925a9986b7f72f6040518263ffffffff1660e01b81526004018082815260200191505060206040518083038186803b1580156102d757600080fd5b505afa1580156102eb573d6000803e3d6000fd5b505050506040513d602081101561030157600080fd5b5051604080517f8ecf772000000000000000000000000000000000000000000000000000000000815273ffffffffffffffffffffffffffffffffffffffff8581166004830152336024830152915192935090831691638ecf7720916044808201926020929091908290030181600087803b15801561037e57600080fd5b505af1158015610392573d6000803e3d6000fd5b505050506040513d60208110156103a857600080fd5b50516103ff576040517f08c379a00000000000000000000000000000000000000000000000000000000081526004018080602001828103825260328152602001806110626032913960400191505060405180910390fd5b60008673ffffffffffffffffffffffffffffffffffffffff166321f8a7217fb6d2dc83590271a7c0a5ab5fbf6a2dad418bbfd533c253e3d69a6772712809c76040518263ffffffff1660e01b81526004018082815260200191505060206040518083038186803b15801561047257600080fd5b505afa158015610486573d6000803e3d6000fd5b505050506040513d602081101561049c57600080fd5b50516040517ff62ee05a00000000000000000000000000000000000000000000000000000000815273ffffffffffffffffffffffffffffffffffffffff89811660048301908152602483018a90523360448401819052608060648501908152608485018a90529495509185169363f62ee05a938c938c9390928c928c92919060a401848480828437600081840152601f19601f8201169050808301925050509650505050505050600060405180830381600087803b15801561055d57600080fd5b505af1158015610571573d6000803e3d6000fd5b5050505050505050505050565b600073ffffffffffffffffffffffffffffffffffffffff821661060257604080517f08c379a000000000000000000000000000000000000000000000000000000000815260206004820152601660248201527f696e76616c6964206d6f64756c65206164647265737300000000000000000000604482015290519081900360640190fd5b60008573ffffffffffffffffffffffffffffffffffffffff166321f8a7217fea0ca03c7adbe41dc655fec28a9209dc8e6e042f3d991a67765ba285b9cf73a06040518263ffffffff1660e01b81526004018082815260200191505060206040518083038186803b15801561067557600080fd5b505afa158015610689573d6000803e3d6000fd5b505050506040513d602081101561069f57600080fd5b5051604080517fef6a249900000000000000000000000000000000000000000000000000000000815273ffffffffffffffffffffffffffffffffffffffff888116600483015291519293509083169163ef6a2499916024808201926020929091908290030181600087803b15801561071657600080fd5b505af115801561072a573d6000803e3d6000fd5b505050506040513d602081101561074057600080fd5b5051610797576040517f08c379a000000000000000000000000000000000000000000000000000000000815260040180806020018281038252602481526020018061103e6024913960400191505060405180910390fd5b8073ffffffffffffffffffffffffffffffffffffffff1663ef6a2499846040518263ffffffff1660e01b8152600401808273ffffffffffffffffffffffffffffffffffffffff168152602001915050602060405180830381600087803b15801561080057600080fd5b505af1158015610814573d6000803e3d6000fd5b505050506040513d602081101561082a57600080fd5b5051610881576040517f08c379a000000000000000000000000000000000000000000000000000000000815260040180806020018281038252602181526020018061101d6021913960400191505060405180910390fd5b60008673ffffffffffffffffffffffffffffffffffffffff166321f8a7217fb6d2dc83590271a7c0a5ab5fbf6a2dad418bbfd533c253e3d69a6772712809c76040518263ffffffff1660e01b81526004018082815260200191505060206040518083038186803b1580156108f457600080fd5b505afa158015610908573d6000803e3d6000fd5b505050506040513d602081101561091e57600080fd5b5051604080517f07eecaf500000000000000000000000000000000000000000000000000000000815273ffffffffffffffffffffffffffffffffffffffff8a811660048301529151929350600092918416916307eecaf59160248082019260209290919082900301818787803b15801561099757600080fd5b505af11580156109ab573d6000803e3d6000fd5b505050506040513d60208110156109c157600080fd5b5051600081815260208190526040902080547fffffffffffffffffffffffff000000000000000000000000000000000000000090811673ffffffffffffffffffffffffffffffffffffffff9a8b161782556001820198909855600201805490971695909716949094177fffffffffffffffffffffff00ffffffffffffffffffffffffffffffffffffffff169094555092949350505050565b8160008173ffffffffffffffffffffffffffffffffffffffff166321f8a7217f14ceb1149cdab84b395151a21d3de6707dd76fff3e7bc4e018925a9986b7f72f6040518263ffffffff1660e01b81526004018082815260200191505060206040518083038186803b158015610acd57600080fd5b505afa158015610ae1573d6000803e3d6000fd5b505050506040513d6020811015610af757600080fd5b5051604080517f8ecf772000000000000000000000000000000000000000000000000000000000815273ffffffffffffffffffffffffffffffffffffffff8581166004830152336024830152915192935090831691638ecf7720916044808201926020929091908290030181600087803b158015610b7457600080fd5b505af1158015610b88573d6000803e3d6000fd5b505050506040513d6020811015610b9e57600080fd5b5051610bf5576040517f08c379a00000000000000000000000000000000000000000000000000000000081526004018080602001828103825260328152602001806110626032913960400191505060405180910390fd5b610bfd610fd0565b50600083815260208181526040918290208251608081018452815473ffffffffffffffffffffffffffffffffffffffff90811682526001830154938201939093526002909101549182169281019290925274010000000000000000000000000000000000000000900460ff161580156060830152610cdc57604080517f08c379a000000000000000000000000000000000000000000000000000000000815260206004820152601a60248201527f70726f706f73616c20616c72656164792070726f636573736564000000000000604482015290519081900360640190fd5b60008573ffffffffffffffffffffffffffffffffffffffff166321f8a7217f0e49311626a26ba5be58a3b13d239908e80ce0dffdd5c50bf1d9c82ff35d1ab36040518263ffffffff1660e01b81526004018082815260200191505060206040518083038186803b158015610d4f57600080fd5b505afa158015610d63573d6000803e3d6000fd5b505050506040513d6020811015610d7957600080fd5b5051604080517f8df8ca2c00000000000000000000000000000000000000000000000000000000815273ffffffffffffffffffffffffffffffffffffffff898116600483015260248201899052915192935090831691638df8ca2c916044808201926020929091908290030181600087803b158015610df757600080fd5b505af1158015610e0b573d6000803e3d6000fd5b505050506040513d6020811015610e2157600080fd5b5051600214610e7b576040517f08c379a0000000000000000000000000000000000000000000000000000000008152600401808060200182810382526025815260200180610ff86025913960400191505060405180910390fd5b8573ffffffffffffffffffffffffffffffffffffffff16634114509b83602001516040518263ffffffff1660e01b815260040180828152602001915050600060405180830381600087803b158015610ed257600080fd5b505af1158015610ee6573d6000803e3d6000fd5b505050508573ffffffffffffffffffffffffffffffffffffffff166335324eee836020015184604001516040518363ffffffff1660e01b8152600401808381526020018273ffffffffffffffffffffffffffffffffffffffff16815260200192505050600060405180830381600087803b158015610f6357600080fd5b505af1158015610f77573d6000803e3d6000fd5b5050506000958652505050602083905250506040902060020180547fffffffffffffffffffffff00ffffffffffffffffffffffffffffffffffffffff167401000000000000000000000000000000000000000017905550565b6040805160808101825260008082526020820181905291810182905260608101919091529056fe70726f706f73616c206e65656420746f207061737320746f2062652070726f6365737365646d6f64756c6520616464726573732063616e6e6f742062652072657365727665646170706c6963616e7420616464726573732063616e6e6f742062652072657365727665646f6e6c792044414f206d656d626572732061726520616c6c6f77656420746f2063616c6c20746869732066756e6374696f6ea2646970667358221220152cb02d0ee136afbb940e8a08026cc56ac1a4f9e83f40be07205646dc766f9e64736f6c63430007000033",
  "immutableReferences": {},
  "source": "pragma solidity ^0.7.0;\n\n// SPDX-License-Identifier: MIT\n\nimport './interfaces/IManaging.sol';\nimport '../core/Module.sol';\nimport '../core/Registry.sol';\nimport '../core/interfaces/IVoting.sol';\nimport '../core/interfaces/IProposal.sol';\nimport '../core/interfaces/IBank.sol';\nimport '../guards/AdapterGuard.sol';\nimport '../utils/SafeMath.sol';\n\ncontract ManagingContract is IManaging, Module, AdapterGuard {\n    \n    using SafeMath for uint256;\n\n    struct ProposalDetails {\n        address applicant;\n        bytes32 moduleId;\n        address moduleAddress;\n        bool processed;\n    }\n\n    mapping(uint256 => ProposalDetails) public proposals;\n\n    /* \n     * default fallback function to prevent from sending ether to the contract\n     */\n    receive() external payable {\n        revert();\n    }\n\n    function createModuleChangeRequest(Registry dao, address applicant, bytes32 moduleId, address moduleAddress) override external returns (uint256) {\n        require(moduleAddress != address(0x0), \"invalid module address\");\n\n        IBank bankContract = IBank(dao.getAddress(BANK_MODULE));\n        require(bankContract.isNotReservedAddress(applicant), \"applicant address cannot be reserved\");\n        require(bankContract.isNotReservedAddress(moduleAddress), \"module address cannot be reserved\");\n\n        //FIXME: is there a way to check if the new module implements the module interface properly?\n        \n        IProposal proposalContract = IProposal(dao.getAddress(PROPOSAL_MODULE));\n        uint256 proposalId = proposalContract.createProposal(dao);\n\n        ProposalDetails storage proposal = proposals[proposalId];\n        proposal.applicant = applicant;\n        proposal.moduleId = moduleId;\n        proposal.moduleAddress = moduleAddress;\n        proposal.processed = false;\n        return proposalId;\n    }\n\n    function sponsorProposal(Registry dao, uint256 proposalId, bytes calldata data) override external onlyMember(dao) {\n        IProposal proposalContract = IProposal(dao.getAddress(PROPOSAL_MODULE));\n        proposalContract.sponsorProposal(dao, proposalId, msg.sender, data);\n    }\n\n    function processProposal(Registry dao, uint256 proposalId) override external onlyMember(dao) {\n        ProposalDetails memory proposal = proposals[proposalId];\n        require(!proposal.processed, \"proposal already processed\");\n\n        IVoting votingContract = IVoting(dao.getAddress(VOTING_MODULE));\n        require(votingContract.voteResult(dao, proposalId) == 2, \"proposal need to pass to be processed\");\n\n        dao.removeModule(proposal.moduleId);\n        dao.addModule(proposal.moduleId, proposal.moduleAddress);\n        proposals[proposalId].processed = true;\n    }\n}",
  "sourcePath": "/Users/davidroon/projects/moloch/contracts/v3/adapters/Managing.sol",
  "compiler": {
    "name": "solc",
    "version": "0.7.0+commit.9e61f92b.Emscripten.clang"
  },
  "schemaVersion": "3.2.3",
  "updatedAt": "2020-09-17T11:52:26.475Z",
  "devdoc": {
    "kind": "dev",
    "methods": {},
    "version": 1
  },
  "userdoc": {
    "kind": "user",
    "methods": {},
    "version": 1
  }
}