{
  "contractName": "MemberContract",
  "abi": [
    {
      "anonymous": false,
      "inputs": [
        {
          "indexed": false,
          "internalType": "address",
          "name": "dao",
          "type": "address"
        },
        {
          "indexed": false,
          "internalType": "address",
          "name": "member",
          "type": "address"
        },
        {
          "indexed": false,
          "internalType": "uint256",
          "name": "shares",
          "type": "uint256"
        }
      ],
      "name": "UpdateMember",
      "type": "event"
    },
    {
      "inputs": [],
      "name": "totalShares",
      "outputs": [
        {
          "internalType": "uint256",
          "name": "",
          "type": "uint256"
        }
      ],
      "stateMutability": "view",
      "type": "function"
    },
    {
      "inputs": [
        {
          "internalType": "contract Registry",
          "name": "dao",
          "type": "address"
        },
        {
          "internalType": "address",
          "name": "member",
          "type": "address"
        }
      ],
      "name": "isActiveMember",
      "outputs": [
        {
          "internalType": "bool",
          "name": "",
          "type": "bool"
        }
      ],
      "stateMutability": "view",
      "type": "function"
    },
    {
      "inputs": [
        {
          "internalType": "contract Registry",
          "name": "dao",
          "type": "address"
        },
        {
          "internalType": "address",
          "name": "memberOrDelegateKey",
          "type": "address"
        }
      ],
      "name": "memberAddress",
      "outputs": [
        {
          "internalType": "address",
          "name": "",
          "type": "address"
        }
      ],
      "stateMutability": "view",
      "type": "function"
    },
    {
      "inputs": [
        {
          "internalType": "contract Registry",
          "name": "dao",
          "type": "address"
        },
        {
          "internalType": "address",
          "name": "memberAddr",
          "type": "address"
        },
        {
          "internalType": "uint256",
          "name": "shares",
          "type": "uint256"
        }
      ],
      "name": "updateMember",
      "outputs": [],
      "stateMutability": "nonpayable",
      "type": "function"
    },
    {
      "inputs": [
        {
          "internalType": "contract Registry",
          "name": "dao",
          "type": "address"
        },
        {
          "internalType": "address",
          "name": "memberAddr",
          "type": "address"
        },
        {
          "internalType": "uint256",
          "name": "sharesToBurn",
          "type": "uint256"
        }
      ],
      "name": "hasEnoughShares",
      "outputs": [
        {
          "internalType": "bool",
          "name": "",
          "type": "bool"
        }
      ],
      "stateMutability": "view",
      "type": "function"
    },
    {
      "inputs": [
        {
          "internalType": "contract Registry",
          "name": "dao",
          "type": "address"
        },
        {
          "internalType": "address",
          "name": "member",
          "type": "address"
        }
      ],
      "name": "nbShares",
      "outputs": [
        {
          "internalType": "uint256",
          "name": "",
          "type": "uint256"
        }
      ],
      "stateMutability": "view",
      "type": "function"
    },
    {
      "inputs": [],
      "name": "getTotalShares",
      "outputs": [
        {
          "internalType": "uint256",
          "name": "",
          "type": "uint256"
        }
      ],
      "stateMutability": "view",
      "type": "function"
    }
  ],
  "bytecode": "0x60806040526001805534801561001457600080fd5b506000805460ff19166001179055610910806100316000396000f3fe608060405234801561001057600080fd5b506004361061007d5760003560e01c80638ecf77201161005b5780638ecf77201461012e578063b93781a114610169578063bed09038146101cd578063d5002f2e146102125761007d565b806309681d03146100825780633a98ef39146100d957806369f9cbba146100f3575b600080fd5b6100c56004803603606081101561009857600080fd5b5073ffffffffffffffffffffffffffffffffffffffff81358116916020810135909116906040013561021a565b604080519115158252519081900360200190f35b6100e1610345565b60408051918252519081900360200190f35b6100e16004803603604081101561010957600080fd5b5073ffffffffffffffffffffffffffffffffffffffff8135811691602001351661034b565b6100c56004803603604081101561014457600080fd5b5073ffffffffffffffffffffffffffffffffffffffff81358116916020013516610387565b6101a46004803603604081101561017f57600080fd5b5073ffffffffffffffffffffffffffffffffffffffff81358116916020013516610609565b6040805173ffffffffffffffffffffffffffffffffffffffff9092168252519081900360200190f35b610210600480360360608110156101e357600080fd5b5073ffffffffffffffffffffffffffffffffffffffff81358116916020810135909116906040013561072d565b005b6100e16108a1565b6000838073ffffffffffffffffffffffffffffffffffffffff166342f6e389336040518263ffffffff1660e01b8152600401808273ffffffffffffffffffffffffffffffffffffffff16815260200191505060206040518083038186803b15801561028457600080fd5b505afa158015610298573d6000803e3d6000fd5b505050506040513d60208110156102ae57600080fd5b5051610305576040517f08c379a00000000000000000000000000000000000000000000000000000000081526004018080602001828103825260338152602001806108a86033913960400191505060405180910390fd5b505073ffffffffffffffffffffffffffffffffffffffff928316600090815260026020818152604080842095909616835293909352929092200154101590565b60015481565b73ffffffffffffffffffffffffffffffffffffffff80831660009081526002602081815260408084209486168452939052919020015492915050565b6000828073ffffffffffffffffffffffffffffffffffffffff166342f6e389336040518263ffffffff1660e01b8152600401808273ffffffffffffffffffffffffffffffffffffffff16815260200191505060206040518083038186803b1580156103f157600080fd5b505afa158015610405573d6000803e3d6000fd5b505050506040513d602081101561041b57600080fd5b5051610472576040517f08c379a00000000000000000000000000000000000000000000000000000000081526004018080602001828103825260338152602001806108a86033913960400191505060405180910390fd5b73ffffffffffffffffffffffffffffffffffffffff80851660009081526002602090815260408083209387168352928152908290205482517f4f558e79000000000000000000000000000000000000000000000000000000008152600481018290529251909273__FlagHelper____________________________92634f558e7992602480840193829003018186803b15801561050e57600080fd5b505af4158015610522573d6000803e3d6000fd5b505050506040513d602081101561053857600080fd5b505180156105c057508073__FlagHelper____________________________636351775c90916040518263ffffffff1660e01b81526004018082815260200191505060206040518083038186803b15801561059257600080fd5b505af41580156105a6573d6000803e3d6000fd5b505050506040513d60208110156105bc57600080fd5b5051155b8015610600575073ffffffffffffffffffffffffffffffffffffffff80861660009081526002602081815260408084209489168452939052919020015415155b95945050505050565b6000828073ffffffffffffffffffffffffffffffffffffffff166342f6e389336040518263ffffffff1660e01b8152600401808273ffffffffffffffffffffffffffffffffffffffff16815260200191505060206040518083038186803b15801561067357600080fd5b505afa158015610687573d6000803e3d6000fd5b505050506040513d602081101561069d57600080fd5b50516106f4576040517f08c379a00000000000000000000000000000000000000000000000000000000081526004018080602001828103825260338152602001806108a86033913960400191505060405180910390fd5b505073ffffffffffffffffffffffffffffffffffffffff9182166000908152600360209081526040808320938516835292905220541690565b828073ffffffffffffffffffffffffffffffffffffffff166342f6e389336040518263ffffffff1660e01b8152600401808273ffffffffffffffffffffffffffffffffffffffff16815260200191505060206040518083038186803b15801561079557600080fd5b505afa1580156107a9573d6000803e3d6000fd5b505050506040513d60208110156107bf57600080fd5b5051610816576040517f08c379a00000000000000000000000000000000000000000000000000000000081526004018080602001828103825260338152602001806108a86033913960400191505060405180910390fd5b73ffffffffffffffffffffffffffffffffffffffff8085166000818152600260208181526040808420958916808552958252928390206001808255928101889055825488019092558251938452830193909352818101859052517f2705f52a83c12d637cba9ccb0e1150add36e3c3877f20b23eded1fc9f5e7e6009181900360600190a15050505050565b6001549056fe6f6e6c7920636f7265206d6f64756c65732061726520616c6c6f77656420746f2063616c6c20746869732066756e6374696f6ea264697066735822122061862385d59037390f7dae8598d2b15d8ac5114cae5811f4202969297c3f237264736f6c63430007000033",
  "immutableReferences": {},
  "source": "pragma solidity ^0.7.0;\n\n// SPDX-License-Identifier: MIT\n\nimport '../Registry.sol';\nimport '../Module.sol';\nimport '../interfaces/IMember.sol';\nimport '../interfaces/IBank.sol';\nimport '../../helpers/FlagHelper.sol';\nimport '../../guards/ModuleGuard.sol';\nimport '../../guards/ReentrancyGuard.sol';\n\ncontract MemberContract is IMember, Module, ModuleGuard, ReentrancyGuard {\n    using FlagHelper for uint256;\n\n    event UpdateMember(address dao, address member, uint256 shares);\n\n    struct Member {\n        uint256 flags;\n        address delegateKey;\n        uint256 nbShares;\n    }\n\n    uint256 public totalShares = 1; // Maximum number of shares 2**256 - 1\n\n    mapping(address => mapping(address => Member)) members;\n    mapping(address => mapping(address => address)) memberAddresses;\n\n    function isActiveMember(Registry dao, address member) override external view onlyModule(dao) returns (bool) {\n        uint256 memberFlags = members[address(dao)][member].flags;\n        return memberFlags.exists() && !memberFlags.isJailed() && members[address(dao)][member].nbShares > 0;\n    }\n\n    function memberAddress(Registry dao, address memberOrDelegateKey) override external view onlyModule(dao) returns (address) {\n        return memberAddresses[address(dao)][memberOrDelegateKey];\n    }\n\n    function updateMember(Registry dao, address memberAddr, uint256 shares) override external onlyModule(dao) {\n        Member storage member = members[address(dao)][memberAddr];\n        member.flags = 1;\n        member.nbShares = shares;\n        \n        totalShares += shares;\n\n        emit UpdateMember(address(dao), memberAddr, shares);\n    }\n\n    function hasEnoughShares(Registry dao, address memberAddr, uint256 sharesToBurn) override external view onlyModule(dao) returns (bool) {\n        return members[address(dao)][memberAddr].nbShares >= sharesToBurn;\n    }\n\n    /**\n     * Public read-only functions \n     */\n    function nbShares(Registry dao, address member) override external view returns (uint256) {\n        return members[address(dao)][member].nbShares;\n    }\n\n    function getTotalShares() override external view returns(uint256) {\n        return totalShares;\n    }\n}",
  "sourcePath": "/Users/davidroon/projects/moloch/contracts/v3/core/membership/Member.sol",
  "compiler": {
    "name": "solc",
    "version": "0.7.0+commit.9e61f92b.Emscripten.clang"
  },
  "schemaVersion": "3.2.3",
  "updatedAt": "2020-09-17T11:52:26.496Z",
  "devdoc": {
    "kind": "dev",
    "methods": {},
    "version": 1
  },
  "userdoc": {
    "kind": "user",
    "methods": {
      "nbShares(address,address)": {
        "notice": "Public read-only functions "
      }
    },
    "version": 1
  }
}