{
  "contractName": "Moloch",
  "abi": [
    {
      "inputs": [
        {
          "internalType": "address",
          "name": "_summoner",
          "type": "address"
        },
        {
          "internalType": "address[]",
          "name": "_approvedTokens",
          "type": "address[]"
        },
        {
          "internalType": "uint256",
          "name": "_periodDuration",
          "type": "uint256"
        },
        {
          "internalType": "uint256",
          "name": "_votingPeriodLength",
          "type": "uint256"
        },
        {
          "internalType": "uint256",
          "name": "_gracePeriodLength",
          "type": "uint256"
        },
        {
          "internalType": "uint256",
          "name": "_proposalDeposit",
          "type": "uint256"
        },
        {
          "internalType": "uint256",
          "name": "_dilutionBound",
          "type": "uint256"
        },
        {
          "internalType": "uint256",
          "name": "_processingReward",
          "type": "uint256"
        }
      ],
      "stateMutability": "nonpayable",
      "type": "constructor"
    },
    {
      "anonymous": false,
      "inputs": [
        {
          "indexed": true,
          "internalType": "uint256",
          "name": "proposalId",
          "type": "uint256"
        },
        {
          "indexed": false,
          "internalType": "address",
          "name": "applicantAddress",
          "type": "address"
        }
      ],
      "name": "CancelProposal",
      "type": "event"
    },
    {
      "anonymous": false,
      "inputs": [
        {
          "indexed": true,
          "internalType": "uint256",
          "name": "proposalIndex",
          "type": "uint256"
        },
        {
          "indexed": true,
          "internalType": "uint256",
          "name": "proposalId",
          "type": "uint256"
        },
        {
          "indexed": false,
          "internalType": "bool",
          "name": "didPass",
          "type": "bool"
        }
      ],
      "name": "ProcessGuildKickProposal",
      "type": "event"
    },
    {
      "anonymous": false,
      "inputs": [
        {
          "indexed": true,
          "internalType": "uint256",
          "name": "proposalIndex",
          "type": "uint256"
        },
        {
          "indexed": true,
          "internalType": "uint256",
          "name": "proposalId",
          "type": "uint256"
        },
        {
          "indexed": false,
          "internalType": "bool",
          "name": "didPass",
          "type": "bool"
        }
      ],
      "name": "ProcessProposal",
      "type": "event"
    },
    {
      "anonymous": false,
      "inputs": [
        {
          "indexed": true,
          "internalType": "uint256",
          "name": "proposalIndex",
          "type": "uint256"
        },
        {
          "indexed": true,
          "internalType": "uint256",
          "name": "proposalId",
          "type": "uint256"
        },
        {
          "indexed": false,
          "internalType": "bool",
          "name": "didPass",
          "type": "bool"
        }
      ],
      "name": "ProcessWhitelistProposal",
      "type": "event"
    },
    {
      "anonymous": false,
      "inputs": [
        {
          "indexed": true,
          "internalType": "address",
          "name": "memberAddress",
          "type": "address"
        },
        {
          "indexed": false,
          "internalType": "uint256",
          "name": "sharesToBurn",
          "type": "uint256"
        },
        {
          "indexed": false,
          "internalType": "uint256",
          "name": "lootToBurn",
          "type": "uint256"
        }
      ],
      "name": "Ragequit",
      "type": "event"
    },
    {
      "anonymous": false,
      "inputs": [
        {
          "indexed": true,
          "internalType": "address",
          "name": "delegateKey",
          "type": "address"
        },
        {
          "indexed": true,
          "internalType": "address",
          "name": "memberAddress",
          "type": "address"
        },
        {
          "indexed": false,
          "internalType": "uint256",
          "name": "proposalId",
          "type": "uint256"
        },
        {
          "indexed": false,
          "internalType": "uint256",
          "name": "proposalIndex",
          "type": "uint256"
        },
        {
          "indexed": false,
          "internalType": "uint256",
          "name": "startingPeriod",
          "type": "uint256"
        }
      ],
      "name": "SponsorProposal",
      "type": "event"
    },
    {
      "anonymous": false,
      "inputs": [
        {
          "indexed": true,
          "internalType": "address",
          "name": "applicant",
          "type": "address"
        },
        {
          "indexed": false,
          "internalType": "uint256",
          "name": "sharesRequested",
          "type": "uint256"
        },
        {
          "indexed": false,
          "internalType": "uint256",
          "name": "lootRequested",
          "type": "uint256"
        },
        {
          "indexed": false,
          "internalType": "uint256",
          "name": "tributeOffered",
          "type": "uint256"
        },
        {
          "indexed": false,
          "internalType": "address",
          "name": "tributeToken",
          "type": "address"
        },
        {
          "indexed": false,
          "internalType": "uint256",
          "name": "paymentRequested",
          "type": "uint256"
        },
        {
          "indexed": false,
          "internalType": "address",
          "name": "paymentToken",
          "type": "address"
        },
        {
          "indexed": false,
          "internalType": "string",
          "name": "details",
          "type": "string"
        },
        {
          "indexed": false,
          "internalType": "bool[6]",
          "name": "flags",
          "type": "bool[6]"
        },
        {
          "indexed": false,
          "internalType": "uint256",
          "name": "proposalId",
          "type": "uint256"
        },
        {
          "indexed": true,
          "internalType": "address",
          "name": "delegateKey",
          "type": "address"
        },
        {
          "indexed": true,
          "internalType": "address",
          "name": "memberAddress",
          "type": "address"
        }
      ],
      "name": "SubmitProposal",
      "type": "event"
    },
    {
      "anonymous": false,
      "inputs": [
        {
          "indexed": false,
          "internalType": "uint256",
          "name": "proposalId",
          "type": "uint256"
        },
        {
          "indexed": true,
          "internalType": "uint256",
          "name": "proposalIndex",
          "type": "uint256"
        },
        {
          "indexed": true,
          "internalType": "address",
          "name": "delegateKey",
          "type": "address"
        },
        {
          "indexed": true,
          "internalType": "address",
          "name": "memberAddress",
          "type": "address"
        },
        {
          "indexed": false,
          "internalType": "uint8",
          "name": "uintVote",
          "type": "uint8"
        }
      ],
      "name": "SubmitVote",
      "type": "event"
    },
    {
      "anonymous": false,
      "inputs": [
        {
          "indexed": true,
          "internalType": "address",
          "name": "summoner",
          "type": "address"
        },
        {
          "indexed": false,
          "internalType": "address[]",
          "name": "tokens",
          "type": "address[]"
        },
        {
          "indexed": false,
          "internalType": "uint256",
          "name": "summoningTime",
          "type": "uint256"
        },
        {
          "indexed": false,
          "internalType": "uint256",
          "name": "periodDuration",
          "type": "uint256"
        },
        {
          "indexed": false,
          "internalType": "uint256",
          "name": "votingPeriodLength",
          "type": "uint256"
        },
        {
          "indexed": false,
          "internalType": "uint256",
          "name": "gracePeriodLength",
          "type": "uint256"
        },
        {
          "indexed": false,
          "internalType": "uint256",
          "name": "proposalDeposit",
          "type": "uint256"
        },
        {
          "indexed": false,
          "internalType": "uint256",
          "name": "dilutionBound",
          "type": "uint256"
        },
        {
          "indexed": false,
          "internalType": "uint256",
          "name": "processingReward",
          "type": "uint256"
        }
      ],
      "name": "SummonComplete",
      "type": "event"
    },
    {
      "anonymous": false,
      "inputs": [
        {
          "indexed": true,
          "internalType": "address",
          "name": "token",
          "type": "address"
        },
        {
          "indexed": false,
          "internalType": "uint256",
          "name": "amountToCollect",
          "type": "uint256"
        }
      ],
      "name": "TokensCollected",
      "type": "event"
    },
    {
      "anonymous": false,
      "inputs": [
        {
          "indexed": true,
          "internalType": "address",
          "name": "memberAddress",
          "type": "address"
        },
        {
          "indexed": false,
          "internalType": "address",
          "name": "newDelegateKey",
          "type": "address"
        }
      ],
      "name": "UpdateDelegateKey",
      "type": "event"
    },
    {
      "anonymous": false,
      "inputs": [
        {
          "indexed": true,
          "internalType": "address",
          "name": "memberAddress",
          "type": "address"
        },
        {
          "indexed": false,
          "internalType": "address",
          "name": "token",
          "type": "address"
        },
        {
          "indexed": false,
          "internalType": "uint256",
          "name": "amount",
          "type": "uint256"
        }
      ],
      "name": "Withdraw",
      "type": "event"
    },
    {
      "inputs": [],
      "name": "ESCROW",
      "outputs": [
        {
          "internalType": "address",
          "name": "",
          "type": "address"
        }
      ],
      "stateMutability": "view",
      "type": "function"
    },
    {
      "inputs": [],
      "name": "GUILD",
      "outputs": [
        {
          "internalType": "address",
          "name": "",
          "type": "address"
        }
      ],
      "stateMutability": "view",
      "type": "function"
    },
    {
      "inputs": [],
      "name": "TOTAL",
      "outputs": [
        {
          "internalType": "address",
          "name": "",
          "type": "address"
        }
      ],
      "stateMutability": "view",
      "type": "function"
    },
    {
      "inputs": [
        {
          "internalType": "uint256",
          "name": "",
          "type": "uint256"
        }
      ],
      "name": "approvedTokens",
      "outputs": [
        {
          "internalType": "address",
          "name": "",
          "type": "address"
        }
      ],
      "stateMutability": "view",
      "type": "function"
    },
    {
      "inputs": [],
      "name": "depositToken",
      "outputs": [
        {
          "internalType": "address",
          "name": "",
          "type": "address"
        }
      ],
      "stateMutability": "view",
      "type": "function"
    },
    {
      "inputs": [],
      "name": "dilutionBound",
      "outputs": [
        {
          "internalType": "uint256",
          "name": "",
          "type": "uint256"
        }
      ],
      "stateMutability": "view",
      "type": "function"
    },
    {
      "inputs": [],
      "name": "gracePeriodLength",
      "outputs": [
        {
          "internalType": "uint256",
          "name": "",
          "type": "uint256"
        }
      ],
      "stateMutability": "view",
      "type": "function"
    },
    {
      "inputs": [
        {
          "internalType": "address",
          "name": "",
          "type": "address"
        }
      ],
      "name": "memberAddressByDelegateKey",
      "outputs": [
        {
          "internalType": "address",
          "name": "",
          "type": "address"
        }
      ],
      "stateMutability": "view",
      "type": "function"
    },
    {
      "inputs": [
        {
          "internalType": "address",
          "name": "",
          "type": "address"
        }
      ],
      "name": "members",
      "outputs": [
        {
          "internalType": "address",
          "name": "delegateKey",
          "type": "address"
        },
        {
          "internalType": "uint256",
          "name": "shares",
          "type": "uint256"
        },
        {
          "internalType": "uint256",
          "name": "loot",
          "type": "uint256"
        },
        {
          "internalType": "bool",
          "name": "exists",
          "type": "bool"
        },
        {
          "internalType": "uint256",
          "name": "highestIndexYesVote",
          "type": "uint256"
        },
        {
          "internalType": "uint256",
          "name": "jailed",
          "type": "uint256"
        }
      ],
      "stateMutability": "view",
      "type": "function"
    },
    {
      "inputs": [],
      "name": "periodDuration",
      "outputs": [
        {
          "internalType": "uint256",
          "name": "",
          "type": "uint256"
        }
      ],
      "stateMutability": "view",
      "type": "function"
    },
    {
      "inputs": [],
      "name": "processingReward",
      "outputs": [
        {
          "internalType": "uint256",
          "name": "",
          "type": "uint256"
        }
      ],
      "stateMutability": "view",
      "type": "function"
    },
    {
      "inputs": [],
      "name": "proposalCount",
      "outputs": [
        {
          "internalType": "uint256",
          "name": "",
          "type": "uint256"
        }
      ],
      "stateMutability": "view",
      "type": "function"
    },
    {
      "inputs": [],
      "name": "proposalDeposit",
      "outputs": [
        {
          "internalType": "uint256",
          "name": "",
          "type": "uint256"
        }
      ],
      "stateMutability": "view",
      "type": "function"
    },
    {
      "inputs": [
        {
          "internalType": "uint256",
          "name": "",
          "type": "uint256"
        }
      ],
      "name": "proposalQueue",
      "outputs": [
        {
          "internalType": "uint256",
          "name": "",
          "type": "uint256"
        }
      ],
      "stateMutability": "view",
      "type": "function"
    },
    {
      "inputs": [
        {
          "internalType": "uint256",
          "name": "",
          "type": "uint256"
        }
      ],
      "name": "proposals",
      "outputs": [
        {
          "internalType": "address",
          "name": "applicant",
          "type": "address"
        },
        {
          "internalType": "address",
          "name": "proposer",
          "type": "address"
        },
        {
          "internalType": "address",
          "name": "sponsor",
          "type": "address"
        },
        {
          "internalType": "uint256",
          "name": "sharesRequested",
          "type": "uint256"
        },
        {
          "internalType": "uint256",
          "name": "lootRequested",
          "type": "uint256"
        },
        {
          "internalType": "uint256",
          "name": "tributeOffered",
          "type": "uint256"
        },
        {
          "internalType": "address",
          "name": "tributeToken",
          "type": "address"
        },
        {
          "internalType": "uint256",
          "name": "paymentRequested",
          "type": "uint256"
        },
        {
          "internalType": "address",
          "name": "paymentToken",
          "type": "address"
        },
        {
          "internalType": "uint256",
          "name": "startingPeriod",
          "type": "uint256"
        },
        {
          "internalType": "uint256",
          "name": "yesVotes",
          "type": "uint256"
        },
        {
          "internalType": "uint256",
          "name": "noVotes",
          "type": "uint256"
        },
        {
          "internalType": "string",
          "name": "details",
          "type": "string"
        },
        {
          "internalType": "uint256",
          "name": "maxTotalSharesAndLootAtYesVote",
          "type": "uint256"
        }
      ],
      "stateMutability": "view",
      "type": "function"
    },
    {
      "inputs": [
        {
          "internalType": "address",
          "name": "",
          "type": "address"
        }
      ],
      "name": "proposedToKick",
      "outputs": [
        {
          "internalType": "bool",
          "name": "",
          "type": "bool"
        }
      ],
      "stateMutability": "view",
      "type": "function"
    },
    {
      "inputs": [
        {
          "internalType": "address",
          "name": "",
          "type": "address"
        }
      ],
      "name": "proposedToWhitelist",
      "outputs": [
        {
          "internalType": "bool",
          "name": "",
          "type": "bool"
        }
      ],
      "stateMutability": "view",
      "type": "function"
    },
    {
      "inputs": [],
      "name": "summoningTime",
      "outputs": [
        {
          "internalType": "uint256",
          "name": "",
          "type": "uint256"
        }
      ],
      "stateMutability": "view",
      "type": "function"
    },
    {
      "inputs": [
        {
          "internalType": "address",
          "name": "",
          "type": "address"
        }
      ],
      "name": "tokenWhitelist",
      "outputs": [
        {
          "internalType": "bool",
          "name": "",
          "type": "bool"
        }
      ],
      "stateMutability": "view",
      "type": "function"
    },
    {
      "inputs": [],
      "name": "totalGuildBankTokens",
      "outputs": [
        {
          "internalType": "uint256",
          "name": "",
          "type": "uint256"
        }
      ],
      "stateMutability": "view",
      "type": "function"
    },
    {
      "inputs": [],
      "name": "totalLoot",
      "outputs": [
        {
          "internalType": "uint256",
          "name": "",
          "type": "uint256"
        }
      ],
      "stateMutability": "view",
      "type": "function"
    },
    {
      "inputs": [],
      "name": "totalShares",
      "outputs": [
        {
          "internalType": "uint256",
          "name": "",
          "type": "uint256"
        }
      ],
      "stateMutability": "view",
      "type": "function"
    },
    {
      "inputs": [
        {
          "internalType": "address",
          "name": "",
          "type": "address"
        },
        {
          "internalType": "address",
          "name": "",
          "type": "address"
        }
      ],
      "name": "userTokenBalances",
      "outputs": [
        {
          "internalType": "uint256",
          "name": "",
          "type": "uint256"
        }
      ],
      "stateMutability": "view",
      "type": "function"
    },
    {
      "inputs": [],
      "name": "votingPeriodLength",
      "outputs": [
        {
          "internalType": "uint256",
          "name": "",
          "type": "uint256"
        }
      ],
      "stateMutability": "view",
      "type": "function"
    },
    {
      "inputs": [
        {
          "internalType": "address",
          "name": "applicant",
          "type": "address"
        },
        {
          "internalType": "uint256",
          "name": "sharesRequested",
          "type": "uint256"
        },
        {
          "internalType": "uint256",
          "name": "lootRequested",
          "type": "uint256"
        },
        {
          "internalType": "uint256",
          "name": "tributeOffered",
          "type": "uint256"
        },
        {
          "internalType": "address",
          "name": "tributeToken",
          "type": "address"
        },
        {
          "internalType": "uint256",
          "name": "paymentRequested",
          "type": "uint256"
        },
        {
          "internalType": "address",
          "name": "paymentToken",
          "type": "address"
        },
        {
          "internalType": "string",
          "name": "details",
          "type": "string"
        }
      ],
      "name": "submitProposal",
      "outputs": [
        {
          "internalType": "uint256",
          "name": "proposalId",
          "type": "uint256"
        }
      ],
      "stateMutability": "nonpayable",
      "type": "function"
    },
    {
      "inputs": [
        {
          "internalType": "address",
          "name": "tokenToWhitelist",
          "type": "address"
        },
        {
          "internalType": "string",
          "name": "details",
          "type": "string"
        }
      ],
      "name": "submitWhitelistProposal",
      "outputs": [
        {
          "internalType": "uint256",
          "name": "proposalId",
          "type": "uint256"
        }
      ],
      "stateMutability": "nonpayable",
      "type": "function"
    },
    {
      "inputs": [
        {
          "internalType": "address",
          "name": "memberToKick",
          "type": "address"
        },
        {
          "internalType": "string",
          "name": "details",
          "type": "string"
        }
      ],
      "name": "submitGuildKickProposal",
      "outputs": [
        {
          "internalType": "uint256",
          "name": "proposalId",
          "type": "uint256"
        }
      ],
      "stateMutability": "nonpayable",
      "type": "function"
    },
    {
      "inputs": [
        {
          "internalType": "uint256",
          "name": "proposalId",
          "type": "uint256"
        }
      ],
      "name": "sponsorProposal",
      "outputs": [],
      "stateMutability": "nonpayable",
      "type": "function"
    },
    {
      "inputs": [
        {
          "internalType": "uint256",
          "name": "proposalIndex",
          "type": "uint256"
        },
        {
          "internalType": "uint8",
          "name": "uintVote",
          "type": "uint8"
        }
      ],
      "name": "submitVote",
      "outputs": [],
      "stateMutability": "nonpayable",
      "type": "function"
    },
    {
      "inputs": [
        {
          "internalType": "uint256",
          "name": "proposalIndex",
          "type": "uint256"
        }
      ],
      "name": "processProposal",
      "outputs": [],
      "stateMutability": "nonpayable",
      "type": "function"
    },
    {
      "inputs": [
        {
          "internalType": "uint256",
          "name": "proposalIndex",
          "type": "uint256"
        }
      ],
      "name": "processWhitelistProposal",
      "outputs": [],
      "stateMutability": "nonpayable",
      "type": "function"
    },
    {
      "inputs": [
        {
          "internalType": "uint256",
          "name": "proposalIndex",
          "type": "uint256"
        }
      ],
      "name": "processGuildKickProposal",
      "outputs": [],
      "stateMutability": "nonpayable",
      "type": "function"
    },
    {
      "inputs": [
        {
          "internalType": "uint256",
          "name": "sharesToBurn",
          "type": "uint256"
        },
        {
          "internalType": "uint256",
          "name": "lootToBurn",
          "type": "uint256"
        }
      ],
      "name": "ragequit",
      "outputs": [],
      "stateMutability": "nonpayable",
      "type": "function"
    },
    {
      "inputs": [
        {
          "internalType": "address",
          "name": "memberToKick",
          "type": "address"
        }
      ],
      "name": "ragekick",
      "outputs": [],
      "stateMutability": "nonpayable",
      "type": "function"
    },
    {
      "inputs": [
        {
          "internalType": "address",
          "name": "token",
          "type": "address"
        },
        {
          "internalType": "uint256",
          "name": "amount",
          "type": "uint256"
        }
      ],
      "name": "withdrawBalance",
      "outputs": [],
      "stateMutability": "nonpayable",
      "type": "function"
    },
    {
      "inputs": [
        {
          "internalType": "address[]",
          "name": "tokens",
          "type": "address[]"
        },
        {
          "internalType": "uint256[]",
          "name": "amounts",
          "type": "uint256[]"
        },
        {
          "internalType": "bool",
          "name": "max",
          "type": "bool"
        }
      ],
      "name": "withdrawBalances",
      "outputs": [],
      "stateMutability": "nonpayable",
      "type": "function"
    },
    {
      "inputs": [
        {
          "internalType": "address",
          "name": "token",
          "type": "address"
        }
      ],
      "name": "collectTokens",
      "outputs": [],
      "stateMutability": "nonpayable",
      "type": "function"
    },
    {
      "inputs": [
        {
          "internalType": "uint256",
          "name": "proposalId",
          "type": "uint256"
        }
      ],
      "name": "cancelProposal",
      "outputs": [],
      "stateMutability": "nonpayable",
      "type": "function"
    },
    {
      "inputs": [
        {
          "internalType": "address",
          "name": "newDelegateKey",
          "type": "address"
        }
      ],
      "name": "updateDelegateKey",
      "outputs": [],
      "stateMutability": "nonpayable",
      "type": "function"
    },
    {
      "inputs": [
        {
          "internalType": "uint256",
          "name": "highestIndexYesVote",
          "type": "uint256"
        }
      ],
      "name": "canRagequit",
      "outputs": [
        {
          "internalType": "bool",
          "name": "",
          "type": "bool"
        }
      ],
      "stateMutability": "view",
      "type": "function"
    },
    {
      "inputs": [
        {
          "internalType": "uint256",
          "name": "startingPeriod",
          "type": "uint256"
        }
      ],
      "name": "hasVotingPeriodExpired",
      "outputs": [
        {
          "internalType": "bool",
          "name": "",
          "type": "bool"
        }
      ],
      "stateMutability": "view",
      "type": "function"
    },
    {
      "inputs": [],
      "name": "getCurrentPeriod",
      "outputs": [
        {
          "internalType": "uint256",
          "name": "",
          "type": "uint256"
        }
      ],
      "stateMutability": "view",
      "type": "function"
    },
    {
      "inputs": [],
      "name": "getProposalQueueLength",
      "outputs": [
        {
          "internalType": "uint256",
          "name": "",
          "type": "uint256"
        }
      ],
      "stateMutability": "view",
      "type": "function"
    },
    {
      "inputs": [
        {
          "internalType": "uint256",
          "name": "proposalId",
          "type": "uint256"
        }
      ],
      "name": "getProposalFlags",
      "outputs": [
        {
          "internalType": "bool[6]",
          "name": "",
          "type": "bool[6]"
        }
      ],
      "stateMutability": "view",
      "type": "function"
    },
    {
      "inputs": [
        {
          "internalType": "address",
          "name": "user",
          "type": "address"
        },
        {
          "internalType": "address",
          "name": "token",
          "type": "address"
        }
      ],
      "name": "getUserTokenBalance",
      "outputs": [
        {
          "internalType": "uint256",
          "name": "",
          "type": "uint256"
        }
      ],
      "stateMutability": "view",
      "type": "function"
    },
    {
      "inputs": [
        {
          "internalType": "address",
          "name": "memberAddress",
          "type": "address"
        },
        {
          "internalType": "uint256",
          "name": "proposalIndex",
          "type": "uint256"
        }
      ],
      "name": "getMemberProposalVote",
      "outputs": [
        {
          "internalType": "enum Moloch.Vote",
          "name": "",
          "type": "uint8"
        }
      ],
      "stateMutability": "view",
      "type": "function"
    },
    {
      "inputs": [],
      "name": "getTokenCount",
      "outputs": [
        {
          "internalType": "uint256",
          "name": "",
          "type": "uint256"
        }
      ],
      "stateMutability": "view",
      "type": "function"
    }
  ],
  "bytecode": "0x608060405260006009556000600a556000600b556000600c553480156200002557600080fd5b50604051620058b7380380620058b783398181016040526101008110156200004c57600080fd5b8151602083018051604051929492938301929190846401000000008211156200007457600080fd5b9083019060208201858111156200008a57600080fd5b8251866020820283011164010000000082111715620000a857600080fd5b82525081516020918201928201910280838360005b83811015620000d7578181015183820152602001620000bd565b505050509190910160409081526020830151908301516060840151608085015160a086015160c0909601516000805460ff1916600117905593975091955093909250906001600160a01b03881662000176576040805162461bcd60e51b815260206004820152601460248201527f73756d6d6f6e65722063616e6e6f742062652030000000000000000000000000604482015290519081900360640190fd5b60008611620001cc576040805162461bcd60e51b815260206004820152601b60248201527f5f706572696f644475726174696f6e2063616e6e6f7420626520300000000000604482015290519081900360640190fd5b6000851162000222576040805162461bcd60e51b815260206004820152601f60248201527f5f766f74696e67506572696f644c656e6774682063616e6e6f74206265203000604482015290519081900360640190fd5b670de0b6b3a76400008511156200026b5760405162461bcd60e51b81526004018080602001828103825260218152602001806200585d6021913960400191505060405180910390fd5b670de0b6b3a7640000841115620002c9576040805162461bcd60e51b815260206004820181905260248201527f5f6772616365506572696f644c656e6774682065786365656473206c696d6974604482015290519081900360640190fd5b600082116200031f576040805162461bcd60e51b815260206004820152601a60248201527f5f64696c7574696f6e426f756e642063616e6e6f742062652030000000000000604482015290519081900360640190fd5b670de0b6b3a76400008211156200037d576040805162461bcd60e51b815260206004820152601c60248201527f5f64696c7574696f6e426f756e642065786365656473206c696d697400000000604482015290519081900360640190fd5b6000875111620003d4576040805162461bcd60e51b815260206004820181905260248201527f6e656564206174206c65617374206f6e6520617070726f76656420746f6b656e604482015290519081900360640190fd5b610190875111156200041f576040805162461bcd60e51b815260206004820152600f60248201526e746f6f206d616e7920746f6b656e7360881b604482015290519081900360640190fd5b80831015620004605760405162461bcd60e51b81526004018080602001828103825260398152602001806200587e6039913960400191505060405180910390fd5b866000815181106200046e57fe5b6020026020010151600860006101000a8154816001600160a01b0302191690836001600160a01b03160217905550876001600160a01b03167fc9943dac607a408ce079996205c3b771a7e464a5cf3859bc3315813f965e92408842898989898989604051808060200189815260200188815260200187815260200186815260200185815260200184815260200183815260200182810382528a818151815260200191508051906020019060200280838360005b838110156200053b57818101518382015260200162000521565b50505050905001995050505050505050505060405180910390a260005b8751811015620007115760006001600160a01b03168882815181106200057a57fe5b60200260200101516001600160a01b03161415620005df576040805162461bcd60e51b815260206004820152601a60248201527f5f617070726f766564546f6b656e2063616e6e6f742062652030000000000000604482015290519081900360640190fd5b600e6000898381518110620005f057fe5b6020908102919091018101516001600160a01b031682528101919091526040016000205460ff16156200066a576040805162461bcd60e51b815260206004820152601860248201527f6475706c696361746520617070726f76656420746f6b656e0000000000000000604482015290519081900360640190fd5b6001600e60008a84815181106200067d57fe5b60200260200101516001600160a01b03166001600160a01b0316815260200190815260200160002060006101000a81548160ff021916908315150217905550600f888281518110620006cb57fe5b60209081029190910181015182546001808201855560009485529290932090920180546001600160a01b0319166001600160a01b03909316929092179091550162000558565b50856001819055508460028190555083600381905550826004819055508160058190555080600681905550426007819055506040518060c00160405280896001600160a01b031681526020016001815260200160008152602001600115158152602001600081526020016000815250601260008a6001600160a01b03166001600160a01b0316815260200190815260200160002060008201518160000160006101000a8154816001600160a01b0302191690836001600160a01b03160217905550602082015181600101556040820151816002015560608201518160030160006101000a81548160ff0219169083151502179055506080820151816004015560a0820151816005015590505087601360008a6001600160a01b03166001600160a01b0316815260200190815260200160002060006101000a8154816001600160a01b0302191690836001600160a01b031602179055506001600a819055505050505050505050614fd680620008876000396000f3fe608060405234801561001057600080fd5b50600436106103155760003560e01c8063753d7563116101a7578063b2643aab116100ee578063e178034511610097578063e681c4aa11610071578063e681c4aa14610b9f578063f5d54c7714610ba7578063feb7ea1d14610baf57610315565b8063e178034514610b3f578063e1a0e3fa14610b65578063e63bc62d14610b8257610315565b8063da35c664116100c8578063da35c66414610af4578063dfdd369e14610afc578063e0a8f6f514610b2257610315565b8063b2643aab14610a8f578063b470aade14610ae4578063c89039c514610aec57610315565b80639425a476116101505780639d1722cb1161012a5780639d1722cb14610a62578063a3dc380014610a6a578063afe5475f14610a8757610315565b80639425a47614610a025780639746d94014610a1f57806399653fbe14610a3c57610315565b80637d5b6c72116101815780637d5b6c72146109ea5780638340bbce146109f25780638b15a605146109fa57610315565b8063753d7563146109b457806378a89567146109da578063797daf70146109e257610315565b80633793ab3c1161026b57806345f2d10511610214578063635e99aa116101ee578063635e99aa1461097657806363858f2d1461097e57806373f8fd4b1461098657610315565b806345f2d10514610842578063590f940b1461087057806359999b411461095057610315565b80633fc24bba116102455780633fc24bba146106b9578063402c1794146106f35780634482394b1461071957610315565b80633793ab3c146106775780633a98ef39146106945780633b214a741461069c57610315565b80630cf20cc9116102cd5780631dafede0116102a75780631dafede0146106105780632582bf2a1461064957806327efc0861461066f57610315565b80630cf20cc914610509578063115b2d181461053757806315eb349e146105ed57610315565b8063044a0ca8116102fe578063044a0ca814610451578063086146d21461049e57806308ae4b0c146104a657610315565b8063013cf08b1461031a57806303e32fa114610437575b600080fd5b6103376004803603602081101561033057600080fd5b5035610c65565b604051808f6001600160a01b031681526020018e6001600160a01b031681526020018d6001600160a01b031681526020018c81526020018b81526020018a8152602001896001600160a01b03168152602001888152602001876001600160a01b0316815260200186815260200185815260200184815260200180602001838152602001828103825284818151815260200191508051906020019080838360005b838110156103ef5781810151838201526020016103d7565b50505050905090810190601f16801561041c5780820380516001836020036101000a031916815260200191505b509f5050505050505050505050505050505060405180910390f35b61043f610dc8565b60408051918252519081900360200190f35b61047d6004803603604081101561046757600080fd5b506001600160a01b038135169060200135610dce565b6040518082600281111561048d57fe5b815260200191505060405180910390f35b61043f610ee4565b6104cc600480360360208110156104bc57600080fd5b50356001600160a01b0316610f0c565b604080516001600160a01b0390971687526020870195909552858501939093529015156060850152608084015260a0830152519081900360c00190f35b6105356004803603604081101561051f57600080fd5b506001600160a01b038135169060200135610f4f565b005b61043f6004803603604081101561054d57600080fd5b6001600160a01b03823516919081019060408101602082013564010000000081111561057857600080fd5b82018360208201111561058a57600080fd5b803590602001918460018302840111640100000000831117156105ac57600080fd5b91908080601f016020809104026020016040519081016040528093929190818152602001838380828437600092019190915250929550610fcb945050505050565b6105356004803603604081101561060357600080fd5b508035906020013561119d565b61062d6004803603602081101561062657600080fd5b5035611288565b604080516001600160a01b039092168252519081900360200190f35b6105356004803603602081101561065f57600080fd5b50356001600160a01b03166112af565b61062d61154f565b6105356004803603602081101561068d57600080fd5b5035611555565b61043f6117e0565b61043f600480360360208110156106b257600080fd5b50356117e6565b6106df600480360360208110156106cf57600080fd5b50356001600160a01b0316611804565b604080519115158252519081900360200190f35b61062d6004803603602081101561070957600080fd5b50356001600160a01b0316611819565b6105356004803603606081101561072f57600080fd5b81019060208101813564010000000081111561074a57600080fd5b82018360208201111561075c57600080fd5b8035906020019184602083028401116401000000008311171561077e57600080fd5b91908080602002602001604051908101604052809392919081815260200183836020028082843760009201919091525092959493602081019350359150506401000000008111156107ce57600080fd5b8201836020820111156107e057600080fd5b8035906020019184602083028401116401000000008311171561080257600080fd5b9190808060200260200160405190810160405280939291908181526020018383602002808284376000920191909152509295505050503515159050611834565b61043f6004803603604081101561085857600080fd5b506001600160a01b0381358116916020013516611984565b61043f600480360361010081101561088757600080fd5b6001600160a01b038235811692602081013592604082013592606083013592608081013582169260a08201359260c0830135169190810190610100810160e08201356401000000008111156108db57600080fd5b8201836020820111156108ed57600080fd5b8035906020019184600183028401116401000000008311171561090f57600080fd5b91908080601f0160208091040260200160405190810160405280939291908181526020018383808284376000920191909152509295506119a1945050505050565b6105356004803603602081101561096657600080fd5b50356001600160a01b0316611e4a565b61043f612165565b61043f61216b565b61043f6004803603604081101561099c57600080fd5b506001600160a01b0381358116916020013516612171565b6106df600480360360208110156109ca57600080fd5b50356001600160a01b031661219c565b61043f6121b1565b61043f6121b7565b61043f6121bd565b61043f6121c3565b61043f6121c9565b6106df60048036036020811015610a1857600080fd5b50356121cf565b61053560048036036020811015610a3557600080fd5b50356121f6565b61053560048036036040811015610a5257600080fd5b508035906020013560ff1661292d565b61043f612e0f565b6106df60048036036020811015610a8057600080fd5b5035612e15565b61043f612ec4565b610aac60048036036020811015610aa557600080fd5b5035612eca565b604051808260c080838360005b83811015610ad1578181015183820152602001610ab9565b5050505090500191505060405180910390f35b61043f612f34565b61062d612f3a565b61043f612f49565b61053560048036036020811015610b1257600080fd5b50356001600160a01b0316612f4f565b61053560048036036020811015610b3857600080fd5b50356130cc565b6106df60048036036020811015610b5557600080fd5b50356001600160a01b03166132cb565b61053560048036036020811015610b7b57600080fd5b50356132e0565b61053560048036036020811015610b9857600080fd5b5035613532565b61062d613ba5565b61062d613bab565b61043f60048036036040811015610bc557600080fd5b6001600160a01b038235169190810190604081016020820135640100000000811115610bf057600080fd5b820183602082011115610c0257600080fd5b80359060200191846001830284011164010000000083111715610c2457600080fd5b91908080601f016020809104026020016040519081016040528093929190818152602001838380828437600092019190915250929550613bb1945050505050565b60146020528060005260406000206000915090508060000160009054906101000a90046001600160a01b0316908060010160009054906101000a90046001600160a01b0316908060020160009054906101000a90046001600160a01b0316908060030154908060040154908060050154908060060160009054906101000a90046001600160a01b0316908060070154908060080160009054906101000a90046001600160a01b03169080600901549080600a01549080600b01549080600d018054600181600116156101000203166002900480601f016020809104026020016040519081016040528092919081815260200182805460018160011615610100020316600290048015610db85780601f10610d8d57610100808354040283529160200191610db8565b820191906000526020600020905b815481529060010190602001808311610d9b57829003601f168201915b50505050509080600e015490508e565b60065481565b6001600160a01b03821660009081526012602052604081206003015460ff16610e3e576040805162461bcd60e51b815260206004820152601560248201527f6d656d62657220646f6573206e6f742065786973740000000000000000000000604482015290519081900360640190fd5b6015548210610e94576040805162461bcd60e51b815260206004820152601760248201527f70726f706f73616c20646f6573206e6f74206578697374000000000000000000604482015290519081900360640190fd5b6014600060158481548110610ea557fe5b6000918252602080832090910154835282810193909352604091820181206001600160a01b0387168252600f0190925290205460ff1690505b92915050565b6000610f07600154610f0160075442613d6390919063ffffffff16565b90613daa565b905090565b6012602052600090815260409020805460018201546002830154600384015460048501546005909501546001600160a01b03909416949293919260ff9091169186565b60005460ff16610fa6576040805162461bcd60e51b815260206004820152601f60248201527f5265656e7472616e637947756172643a207265656e7472616e742063616c6c00604482015290519081900360640190fd5b6000805460ff19169055610fba8282613dcc565b50506000805460ff19166001179055565b6000805460ff16611023576040805162461bcd60e51b815260206004820152601f60248201527f5265656e7472616e637947756172643a207265656e7472616e742063616c6c00604482015290519081900360640190fd5b6000805460ff191690556110356149fa565b506001600160a01b03808416600090815260126020908152604091829020825160c081018452815490941684526001810154918401829052600281015492840192909252600382015460ff16151560608401526004820154608084015260059091015460a08301521515806110ae575060008160400151115b6110e95760405162461bcd60e51b815260040180806020018281038252602f815260200180614d27602f913960400191505060405180910390fd5b6001600160a01b038416600090815260126020526040902060050154156111415760405162461bcd60e51b8152600401808060200182810382526021815260200180614c986021913960400191505060405180910390fd5b611149614a3b565b600160a082015261116285600080808080808b89613f7b565b50506009546000805460ff191660011790557fffffffffffffffffffffffffffffffffffffffffffffffffffffffffffffffff019392505050565b60005460ff166111f4576040805162461bcd60e51b815260206004820152601f60248201527f5265656e7472616e637947756172643a207265656e7472616e742063616c6c00604482015290519081900360640190fd5b6000805460ff191681553381526012602052604090206001015415158061122c57503360009081526012602052604090206002015415155b61127d576040805162461bcd60e51b815260206004820152600c60248201527f6e6f742061206d656d6265720000000000000000000000000000000000000000604482015290519081900360640190fd5b610fba3383836141e1565b600f818154811061129557fe5b6000918252602090912001546001600160a01b0316905081565b60005460ff16611306576040805162461bcd60e51b815260206004820152601f60248201527f5265656e7472616e637947756172643a207265656e7472616e742063616c6c00604482015290519081900360640190fd5b6000805460ff1916815533815260126020526040902060010154611371576040805162461bcd60e51b815260206004820152601160248201527f6e6f742061207368617265686f6c646572000000000000000000000000000000604482015290519081900360640190fd5b6001600160a01b0381166113cc576040805162461bcd60e51b815260206004820152601a60248201527f6e657744656c65676174654b65792063616e6e6f742062652030000000000000604482015290519081900360640190fd5b6001600160a01b03811633146114a1576001600160a01b03811660009081526012602052604090206003015460ff16156114375760405162461bcd60e51b8152600401808060200182810382526021815260200180614e2e6021913960400191505060405180910390fd5b6001600160a01b03808216600090815260136020908152604080832054909316825260129052206003015460ff16156114a15760405162461bcd60e51b8152600401808060200182810382526027815260200180614b946027913960400191505060405180910390fd5b33600081815260126020908152604080832080546001600160a01b0390811685526013845282852080547fffffffffffffffffffffffff000000000000000000000000000000000000000090811690915590871680865294839020805482168717905581541684178155815193845290519093927fde7b64a369e10562cc2e71f0f1f944eaf144b75fead6ecb51fac9c4dd693488592908290030190a250506000805460ff19166001179055565b61babe81565b60005460ff166115ac576040805162461bcd60e51b815260206004820152601f60248201527f5265656e7472616e637947756172643a207265656e7472616e742063616c6c00604482015290519081900360640190fd5b6000805460ff191690556115bf816144f6565b6000601582815481106115ce57fe5b60009182526020808320919091015480835260149091526040909120600c81015491925090640100000000900460ff1661164f576040805162461bcd60e51b815260206004820152601c60248201527f6d75737420626520612077686974656c6973742070726f706f73616c00000000604482015290519081900360640190fd5b600c810180547fffffffffffffffffffffffffffffffffffffffffffffffffffffffffffff00ff166101001790556000611688846146c8565b600f549091506101901161169a575060005b801561175f57600c820180547fffffffffffffffffffffffffffffffffffffffffffffffffffffffffff00ffff16620100001790556006820180546001600160a01b039081166000908152600e60205260408120805460ff191660019081179091559254600f805494850181559091527f8d1108e10bcb7c27dddfc02ed9d693a074039d026cf4ea4240b40f7d581ac8029092018054929091167fffffffffffffffffffffffff00000000000000000000000000000000000000009092169190911790555b60068201546001600160a01b039081166000908152601060205260409020805460ff1916905560028301546117949116614764565b6040805182151581529051849186917f2094fc13d2ecb0acd6861e82bd006c7e5ab6f312ec0c6cdfe3d1a01ee54d885a9181900360200190a350506000805460ff191660011790555050565b600a5481565b601581815481106117f357fe5b600091825260209091200154905081565b60116020526000908152604090205460ff1681565b6013602052600090815260409020546001600160a01b031681565b60005460ff1661188b576040805162461bcd60e51b815260206004820152601f60248201527f5265656e7472616e637947756172643a207265656e7472616e742063616c6c00604482015290519081900360640190fd5b6000805460ff1916905581518351146118d55760405162461bcd60e51b8152600401808060200182810382526032815260200180614d7e6032913960400191505060405180910390fd5b60005b83518110156119715760008382815181106118ef57fe5b60200260200101519050821561194b57336000908152600d60205260408120865190919087908590811061191f57fe5b60200260200101516001600160a01b03166001600160a01b031681526020019081526020016000205490505b61196885838151811061195a57fe5b602002602001015182613dcc565b506001016118d8565b50506000805460ff191660011790555050565b600d60209081526000928352604080842090915290825290205481565b6000805460ff166119f9576040805162461bcd60e51b815260206004820152601f60248201527f5265656e7472616e637947756172643a207265656e7472616e742063616c6c00604482015290519081900360640190fd5b6000805460ff19169055670de0b6b3a7640000611a1689896147b3565b1115611a69576040805162461bcd60e51b815260206004820152601960248201527f746f6f206d616e79207368617265732072657175657374656400000000000000604482015290519081900360640190fd5b6001600160a01b0385166000908152600e602052604090205460ff16611ad6576040805162461bcd60e51b815260206004820152601f60248201527f74726962757465546f6b656e206973206e6f742077686974656c697374656400604482015290519081900360640190fd5b6001600160a01b0383166000908152600e602052604090205460ff16611b43576040805162461bcd60e51b815260206004820152601a60248201527f7061796d656e74206973206e6f742077686974656c6973746564000000000000604482015290519081900360640190fd5b6001600160a01b038916611b9e576040805162461bcd60e51b815260206004820152601560248201527f6170706c6963616e742063616e6e6f7420626520300000000000000000000000604482015290519081900360640190fd5b6001600160a01b03891661dead14801590611bc457506001600160a01b03891661beef14155b8015611bdb57506001600160a01b03891661babe14155b611c165760405162461bcd60e51b8152600401808060200182810382526024815260200180614c2d6024913960400191505060405180910390fd5b6001600160a01b03891660009081526012602052604090206005015415611c6e5760405162461bcd60e51b8152600401808060200182810382526025815260200180614de66025913960400191505060405180910390fd5b600086118015611cb357506001600160a01b03851660009081527fdc7fafdc41998a74ecacb8f8bd877011aba1f1d03a3a0d37a2e7879a393b1d6a6020526040902054155b15611cf95760c8600c5410611cf95760405162461bcd60e51b8152600401808060200182810382526047815260200180614c516047913960600191505060405180910390fd5b604080517f23b872dd0000000000000000000000000000000000000000000000000000000081523360048201523060248201526044810188905290516001600160a01b038716916323b872dd9160648083019260209291908290030181600087803b158015611d6757600080fd5b505af1158015611d7b573d6000803e3d6000fd5b505050506040513d6020811015611d9157600080fd5b5051611de4576040805162461bcd60e51b815260206004820152601d60248201527f7472696275746520746f6b656e207472616e73666572206661696c6564000000604482015290519081900360640190fd5b611df161beef8688614814565b611df9614a3b565b611e0a8a8a8a8a8a8a8a8a89613f7b565b50506009547fffffffffffffffffffffffffffffffffffffffffffffffffffffffffffffffff016000805460ff1916600117905598975050505050505050565b336000908152601360209081526040808320546001600160a01b031683526012909152902060010154611ec4576040805162461bcd60e51b815260206004820152600e60248201527f6e6f7420612064656c6567617465000000000000000000000000000000000000604482015290519081900360640190fd5b60005460ff16611f1b576040805162461bcd60e51b815260206004820152601f60248201527f5265656e7472616e637947756172643a207265656e7472616e742063616c6c00604482015290519081900360640190fd5b6000805460ff191681556001600160a01b0382168082527fa30f7a7832bd8a7a8daa3a3f5b7a6f7cec6a2fbb1a121fa5b76520e44736771c602090815260408084205481517f70a082310000000000000000000000000000000000000000000000000000000081523060048201529151611fe794919391926370a08231926024808301939192829003018186803b158015611fb557600080fd5b505afa158015611fc9573d6000803e3d6000fd5b505050506040513d6020811015611fdf57600080fd5b505190613d63565b90506000811161203e576040805162461bcd60e51b815260206004820152601460248201527f6e6f20746f6b656e7320746f20636f6c6c656374000000000000000000000000604482015290519081900360640190fd5b6001600160a01b0382166000908152600e602052604090205460ff166120955760405162461bcd60e51b8152600401808060200182810382526024815260200180614cdc6024913960400191505060405180910390fd5b6001600160a01b03821660009081527fdc7fafdc41998a74ecacb8f8bd877011aba1f1d03a3a0d37a2e7879a393b1d6a60205260409020546121085760405162461bcd60e51b8152600401808060200182810382526036815260200180614db06036913960400191505060405180910390fd5b61211561dead8383614814565b6040805182815290516001600160a01b038416917f9381e53ffdc9733a6783a6f8665be3f89c231bb81a6771996ed553b4e75c0fe3919081900360200190a250506000805460ff19166001179055565b600b5481565b60035481565b6001600160a01b039182166000908152600d6020908152604080832093909416825291909152205490565b600e6020526000908152604090205460ff1681565b600f5490565b60155490565b60075481565b60025481565b60045481565b60006121e6600254836147b390919063ffffffff16565b6121ee610ee4565b101592915050565b60005460ff1661224d576040805162461bcd60e51b815260206004820152601f60248201527f5265656e7472616e637947756172643a207265656e7472616e742063616c6c00604482015290519081900360640190fd5b6000805460ff19168155338152601360209081526040808320546001600160a01b0316835260129091529020600101546122ce576040805162461bcd60e51b815260206004820152600e60248201527f6e6f7420612064656c6567617465000000000000000000000000000000000000604482015290519081900360640190fd5b60085460048054604080517f23b872dd00000000000000000000000000000000000000000000000000000000815233938101939093523060248401526044830191909152516001600160a01b03909216916323b872dd916064808201926020929091908290030181600087803b15801561234757600080fd5b505af115801561235b573d6000803e3d6000fd5b505050506040513d602081101561237157600080fd5b50516123ae5760405162461bcd60e51b8152600401808060200182810382526026815260200180614eea6026913960400191505060405180910390fd5b6008546004546123cd9161beef916001600160a01b0390911690614814565b600081815260146020526040902060018101546001600160a01b031661243a576040805162461bcd60e51b815260206004820181905260248201527f70726f706f73616c206d7573742068617665206265656e2070726f706f736564604482015290519081900360640190fd5b600c81015460ff161561247e5760405162461bcd60e51b8152600401808060200182810382526023815260200180614e0b6023913960400191505060405180910390fd5b600c8101546301000000900460ff16156124df576040805162461bcd60e51b815260206004820152601b60248201527f70726f706f73616c20686173206265656e2063616e63656c6c65640000000000604482015290519081900360640190fd5b80546001600160a01b0316600090815260126020526040902060050154156125385760405162461bcd60e51b8152600401808060200182810382526025815260200180614de66025913960400191505060405180910390fd5b60008160050154118015612585575060068101546001600160a01b031660009081527fdc7fafdc41998a74ecacb8f8bd877011aba1f1d03a3a0d37a2e7879a393b1d6a6020526040902054155b156125cb5760c8600c54106125cb5760405162461bcd60e51b8152600401808060200182810382526048815260200180614ea26048913960600191505060405180910390fd5b600c810154640100000000900460ff161561271c5760068101546001600160a01b03166000908152600e602052604090205460ff161561263c5760405162461bcd60e51b8152600401808060200182810382526029815260200180614f556029913960400191505060405180910390fd5b60068101546001600160a01b031660009081526010602052604090205460ff16156126ae576040805162461bcd60e51b815260206004820152601d60248201527f616c72656164792070726f706f73656420746f2077686974656c697374000000604482015290519081900360640190fd5b600f54610190116126f05760405162461bcd60e51b8152600401808060200182810382526027815260200180614d006027913960400191505060405180910390fd5b60068101546001600160a01b03166000908152601060205260409020805460ff191660011790556127c6565b600c81015465010000000000900460ff16156127c65780546001600160a01b031660009081526011602052604090205460ff16156127a1576040805162461bcd60e51b815260206004820152601860248201527f616c72656164792070726f706f73656420746f206b69636b0000000000000000604482015290519081900360640190fd5b80546001600160a01b03166000908152601160205260409020805460ff191660011790555b600061282f60016128296127d8610ee4565b6015541561282157601580546014916000916127f5906001613d63565b815481106127ff57fe5b9060005260206000200154815260200190815260200160002060090154612824565b60005b614872565b906147b3565b60098301819055336000818152601360205260408120546002860180547fffffffffffffffffffffffff0000000000000000000000000000000000000000166001600160a01b039092169182179055600c8601805460ff19166001908117909155601580548083018255938190527f55f448fdea98c4d29eb340757ef0a66cd03dbb9538908a6a81d96026b71ec4759093018890559154939450928392917f2a383a979381335e3eb401ac01dd8083e024ff0256bf5338456ffc0063390bbd9188916128fb9190613d63565b604080519283526020830191909152818101879052519081900360600190a350506000805460ff191660011790555050565b60005460ff16612984576040805162461bcd60e51b815260206004820152601f60248201527f5265656e7472616e637947756172643a207265656e7472616e742063616c6c00604482015290519081900360640190fd5b6000805460ff19168155338152601360209081526040808320546001600160a01b031683526012909152902060010154612a05576040805162461bcd60e51b815260206004820152600e60248201527f6e6f7420612064656c6567617465000000000000000000000000000000000000604482015290519081900360640190fd5b336000908152601360209081526040808320546001600160a01b031680845260129092529091206015548410612a82576040805162461bcd60e51b815260206004820152601760248201527f70726f706f73616c20646f6573206e6f74206578697374000000000000000000604482015290519081900360640190fd5b60006014600060158781548110612a9557fe5b90600052602060002001548152602001908152602001600020905060038460ff1610612b08576040805162461bcd60e51b815260206004820152601360248201527f6d757374206265206c657373207468616e203300000000000000000000000000604482015290519081900360640190fd5b60008460ff166002811115612b1957fe5b90508160090154612b28610ee4565b1015612b7b576040805162461bcd60e51b815260206004820152601d60248201527f766f74696e6720706572696f6420686173206e6f742073746172746564000000604482015290519081900360640190fd5b612b8882600901546121cf565b15612bc45760405162461bcd60e51b8152600401808060200182810382526022815260200180614f106022913960400191505060405180910390fd5b6001600160a01b0384166000908152600f8301602052604081205460ff166002811115612bed57fe5b14612c3f576040805162461bcd60e51b815260206004820152601860248201527f6d656d6265722068617320616c726561647920766f7465640000000000000000604482015290519081900360640190fd5b6001816002811115612c4d57fe5b1480612c6457506002816002811115612c6257fe5b145b612cb5576040805162461bcd60e51b815260206004820152601d60248201527f766f7465206d7573742062652065697468657220596573206f72204e6f000000604482015290519081900360640190fd5b6001600160a01b0384166000908152600f830160205260409020805482919060ff19166001836002811115612ce657fe5b02179055506001816002811115612cf957fe5b1415612d5f576001830154600a830154612d12916147b3565b600a8301556004830154861115612d2b57600483018690555b600e820154600b54600a54612d3f916147b3565b1115612d5a57600b54600a54612d54916147b3565b600e8301555b612d8c565b6002816002811115612d6d57fe5b1415612d8c576001830154600b830154612d86916147b3565b600b8301555b836001600160a01b0316336001600160a01b0316877f804f03797630bf8b8a46b9371608abbf7d78a20df720e477bab641957ca68a2060158a81548110612dcf57fe5b906000526020600020015489604051808381526020018260ff1681526020019250505060405180910390a450506000805460ff1916600117905550505050565b600c5481565b6015546000908210612e6e576040805162461bcd60e51b815260206004820152601760248201527f70726f706f73616c20646f6573206e6f74206578697374000000000000000000604482015290519081900360640190fd5b6014600060158481548110612e7f57fe5b90600052602060002001548152602001908152602001600020600c01600160068110612ea757fe5b602081049091015460ff601f9092166101000a9004169050919050565b60055481565b612ed2614a3b565b600082815260146020526040808220815160c081019283905292600c909101916006918390855b825461010083900a900460ff161515815260206001928301818104948501949093039092029101808411612ef9575094979650505050505050565b60015481565b6008546001600160a01b031681565b60095481565b60005460ff16612fa6576040805162461bcd60e51b815260206004820152601f60248201527f5265656e7472616e637947756172643a207265656e7472616e742063616c6c00604482015290519081900360640190fd5b6000805460ff191681556001600160a01b0382168152601260205260409020600581015461301b576040805162461bcd60e51b815260206004820152601660248201527f6d656d626572206d75737420626520696e206a61696c00000000000000000000604482015290519081900360640190fd5b6000816002015411613074576040805162461bcd60e51b815260206004820152601a60248201527f6d656d626572206d757374206861766520736f6d65206c6f6f74000000000000604482015290519081900360640190fd5b6130818160040154612e15565b6130bc5760405162461bcd60e51b815260040180806020018281038252604d815260200180614bbb604d913960600191505060405180910390fd5b610fba82600083600201546141e1565b60005460ff16613123576040805162461bcd60e51b815260206004820152601f60248201527f5265656e7472616e637947756172643a207265656e7472616e742063616c6c00604482015290519081900360640190fd5b6000805460ff19168155818152601460205260409020600c81015460ff161561317d5760405162461bcd60e51b8152600401808060200182810382526023815260200180614e0b6023913960400191505060405180910390fd5b600c8101546301000000900460ff16156131c85760405162461bcd60e51b8152600401808060200182810382526023815260200180614f326023913960400191505060405180910390fd5b60018101546001600160a01b03163314613229576040805162461bcd60e51b815260206004820152601e60248201527f736f6c656c79207468652070726f706f7365722063616e2063616e63656c0000604482015290519081900360640190fd5b600c810180547fffffffffffffffffffffffffffffffffffffffffffffffffffffffff00ffffff1663010000001790556001810154600682015460058301546132849261beef926001600160a01b0391821692911690614889565b60408051338152905183917fc215fed6680bb02d323dc3f8b8f85241572607538426059c9232601bd293c3be919081900360200190a250506000805460ff19166001179055565b60106020526000908152604090205460ff1681565b60005460ff16613337576040805162461bcd60e51b815260206004820152601f60248201527f5265656e7472616e637947756172643a207265656e7472616e742063616c6c00604482015290519081900360640190fd5b6000805460ff1916905561334a816144f6565b60006015828154811061335957fe5b60009182526020808320919091015480835260149091526040909120600c8101549192509065010000000000900460ff166133db576040805162461bcd60e51b815260206004820152601d60248201527f6d7573742062652061206775696c64206b69636b2070726f706f73616c000000604482015290519081900360640190fd5b600c810180547fffffffffffffffffffffffffffffffffffffffffffffffffffffffffffff00ff166101001790556000613414846146c8565b905080156134b457600c820180547fffffffffffffffffffffffffffffffffffffffffffffffffffffffffff00ffff166201000017905581546001600160a01b03166000908152601260205260409020600581018590556001810154600282015461347e916147b3565b60028201556001810154600a5461349491613d63565b600a556001810154600b546134a8916147b3565b600b5560006001909101555b81546001600160a01b039081166000908152601160205260409020805460ff1916905560028301546134e69116614764565b6040805182151581529051849186917f0e347d00d3e9e6cdff9e6c09092c9ff1bd448f9b3dfb7091b30939ec5e7a3c739181900360200190a350506000805460ff191660011790555050565b60005460ff16613589576040805162461bcd60e51b815260206004820152601f60248201527f5265656e7472616e637947756172643a207265656e7472616e742063616c6c00604482015290519081900360640190fd5b6000805460ff1916905561359c816144f6565b6000601582815481106135ab57fe5b60009182526020808320919091015480835260149091526040909120600c81015491925090640100000000900460ff161580156135f65750600c81015465010000000000900460ff16155b613647576040805162461bcd60e51b815260206004820152601b60248201527f6d7573742062652061207374616e646172642070726f706f73616c0000000000604482015290519081900360640190fd5b600c810180547fffffffffffffffffffffffffffffffffffffffffffffffffffffffffffff00ff166101001790556000613680846146c8565b9050670de0b6b3a76400006136b283600401546128298560030154612829600b54600a546147b390919063ffffffff16565b11156136bc575060005b60088201546001600160a01b031660009081527fdc7fafdc41998a74ecacb8f8bd877011aba1f1d03a3a0d37a2e7879a393b1d6a602052604090205460078301541115613707575060005b60008260050154118015613754575060068201546001600160a01b031660009081527fdc7fafdc41998a74ecacb8f8bd877011aba1f1d03a3a0d37a2e7879a393b1d6a6020526040902054155b8015613763575060c8600c5410155b1561376c575060005b8015613b1757600c820180547fffffffffffffffffffffffffffffffffffffffffffffffffffffffffff00ffff166201000017905581546001600160a01b031660009081526012602052604090206003015460ff161561385357600382015482546001600160a01b03166000908152601260205260409020600101546137f1916147b3565b82546001600160a01b03908116600090815260126020526040808220600101939093556004850154855490921681529190912060020154613831916147b3565b82546001600160a01b03166000908152601260205260409020600201556139c6565b81546001600160a01b03908116600090815260136020908152604080832054909316825260129052206003015460ff16156138ef5781546001600160a01b0390811660009081526013602090815260408083205490931680835283832080547fffffffffffffffffffffffff00000000000000000000000000000000000000009081168317909155601290925292909120805490911690911790555b6040805160c08101825283546001600160a01b0390811680835260038087015460208086019182526004808a0154878901908152600160608901818152600060808b0181815260a08c01828152998252601287528c82209b518c54908c167fffffffffffffffffffffffff0000000000000000000000000000000000000000918216178d559751938c0193909355925160028b015551958901805496151560ff1990971696909617909555935190870155925160059095019490945586549092168083526013909152929020805490911690911790555b6003820154600a546139d7916147b3565b600a556004820154600b546139eb916147b3565b600b5560068201546001600160a01b031660009081527fdc7fafdc41998a74ecacb8f8bd877011aba1f1d03a3a0d37a2e7879a393b1d6a6020526040902054158015613a3b575060008260050154115b15613a4a57600c805460010190555b60068201546005830154613a6f9161beef9161dead916001600160a01b031690614889565b815460088301546007840154613a979261dead926001600160a01b0391821692911690614889565b60088201546001600160a01b031660009081527fdc7fafdc41998a74ecacb8f8bd877011aba1f1d03a3a0d37a2e7879a393b1d6a6020526040902054158015613ae4575060008260070154115b15613b1257600c80547fffffffffffffffffffffffffffffffffffffffffffffffffffffffffffffffff0190555b613b42565b600182015460068301546005840154613b429261beef926001600160a01b0391821692911690614889565b6002820154613b59906001600160a01b0316614764565b6040805182151581529051849186917f86f74240ecee9e4230d26ff92e17fee978460d9c0f78f5c88b2864c9e7a494279181900360200190a350506000805460ff191660011790555050565b61beef81565b61dead81565b6000805460ff16613c09576040805162461bcd60e51b815260206004820152601f60248201527f5265656e7472616e637947756172643a207265656e7472616e742063616c6c00604482015290519081900360640190fd5b6000805460ff191690556001600160a01b038316613c6e576040805162461bcd60e51b815260206004820152601a60248201527f6d7573742070726f7669646520746f6b656e2061646472657373000000000000604482015290519081900360640190fd5b6001600160a01b0383166000908152600e602052604090205460ff1615613cc65760405162461bcd60e51b8152600401808060200182810382526029815260200180614f556029913960400191505060405180910390fd5b600f5461019011613d085760405162461bcd60e51b8152600401808060200182810382526026815260200180614e4f6026913960400191505060405180910390fd5b613d10614a3b565b60016080820152613d2960008080808881808a89613f7b565b50506009547fffffffffffffffffffffffffffffffffffffffffffffffffffffffffffffffff016000805460ff1916600117905592915050565b600082821115613da45760405162461bcd60e51b815260040180806020018281038252602d815260200180614e75602d913960400191505060405180910390fd5b50900390565b6000808211613db857600080fd5b6000828481613dc357fe5b04949350505050565b336000908152600d602090815260408083206001600160a01b0386168452909152902054811115613e44576040805162461bcd60e51b815260206004820152601460248201527f696e73756666696369656e742062616c616e6365000000000000000000000000604482015290519081900360640190fd5b613e4f3383836148a5565b604080517fa9059cbb0000000000000000000000000000000000000000000000000000000081523360048201526024810183905290516001600160a01b0384169163a9059cbb9160448083019260209291908290030181600087803b158015613eb757600080fd5b505af1158015613ecb573d6000803e3d6000fd5b505050506040513d6020811015613ee157600080fd5b5051613f34576040805162461bcd60e51b815260206004820152600f60248201527f7472616e73666572206661696c65640000000000000000000000000000000000604482015290519081900360640190fd5b604080516001600160a01b038416815260208101839052815133927f9b1bfa7fa9ee420a16e124f794c35ac9f90472acc99140eb2f6447c714cad8eb928290030190a25050565b60098054600090815260146020526040812080546001600160a01b03808e167fffffffffffffffffffffffff000000000000000000000000000000000000000092831617835560018301805483163317905560028301805483169055600383018d9055600483018c9055600583018b9055600680840180548c8416908516179055600784018a9055600884018054928a169290931691909117909155928101829055600a8101829055600b8101919091559061403d90600c8301908490614a59565b50825161405390600d8301906020860190614aeb565b50600081600e0181905550600060136000336001600160a01b03166001600160a01b0316815260200190815260200160002060009054906101000a90046001600160a01b03169050806001600160a01b0316336001600160a01b03168c6001600160a01b03167fa763e0f5e4f4e33a3397b4ba22677c9b6fd2075ed6504596333006ff2f3e38748d8d8d8d8d8d8d8d600954604051808a8152602001898152602001888152602001876001600160a01b03168152602001868152602001856001600160a01b031681526020018060200184600660200280838360005b8381101561414757818101518382015260200161412f565b50505050905001838152602001828103825285818151815260200191508051906020019080838360005b83811015614189578181015183820152602001614171565b50505050905090810190601f1680156141b65780820380516001836020036101000a031916815260200191505b509a505050505050505050505060405180910390a45050600980546001019055505050505050505050565b60006141fa600b54600a546147b390919063ffffffff16565b6001600160a01b038516600090815260126020526040902060018101549192509084111561426f576040805162461bcd60e51b815260206004820152601360248201527f696e73756666696369656e742073686172657300000000000000000000000000604482015290519081900360640190fd5b82816002015410156142c8576040805162461bcd60e51b815260206004820152601160248201527f696e73756666696369656e74206c6f6f74000000000000000000000000000000604482015290519081900360640190fd5b6142d58160040154612e15565b6143105760405162461bcd60e51b815260040180806020018281038252604d815260200180614bbb604d913960600191505060405180910390fd5b600061431c85856147b3565b600183015490915061432e9086613d63565b600183015560028201546143429085613d63565b6002830155600a546143549086613d63565b600a55600b546143649085613d63565b600b5560005b600f548110156144b35761dead6000908152600d602052600f80546143e4917fdc7fafdc41998a74ecacb8f8bd877011aba1f1d03a3a0d37a2e7879a393b1d6a91849190869081106143b857fe5b60009182526020808320909101546001600160a01b031683528201929092526040019020548487614905565b905080156144aa5761dead6000908152600d602052600f805483927fdc7fafdc41998a74ecacb8f8bd877011aba1f1d03a3a0d37a2e7879a393b1d6a9290918690811061442d57fe5b60009182526020808320909101546001600160a01b0390811684528382019490945260409283018220805495909503909455918b168252600d909252908120600f8054849391908690811061447e57fe5b60009182526020808320909101546001600160a01b031683528201929092526040019020805490910190555b5060010161436a565b506040805186815260208101869052815133927fcad1a1c68982832d9abc314de8a1e5d5e8c81b0588961e360766736d10c3be1a928290030190a2505050505050565b601554811061454c576040805162461bcd60e51b815260206004820152601760248201527f70726f706f73616c20646f6573206e6f74206578697374000000000000000000604482015290519081900360640190fd5b6000601460006015848154811061455f57fe5b90600052602060002001548152602001908152602001600020905061459960035461282960025484600901546147b390919063ffffffff16565b6145a1610ee4565b10156145de5760405162461bcd60e51b8152600401808060200182810382526025815260200180614c086025913960400191505060405180910390fd5b600c810154610100900460ff16156146275760405162461bcd60e51b8152600401808060200182810382526023815260200180614f7e6023913960400191505060405180910390fd5b8115806146895750601460006015614640856001613d63565b8154811061464a57fe5b90600052602060002001548152602001908152602001600020600c0160016006811061467257fe5b602081049091015460ff601f9092166101000a9004165b6146c45760405162461bcd60e51b8152600401808060200182810382526023815260200180614cb96023913960400191505060405180910390fd5b5050565b60008060146000601585815481106146dc57fe5b90600052602060002001548152602001908152602001600020905080600b015481600a015411915080600e015461472c600554614726600b54600a546147b390919063ffffffff16565b906149a1565b101561473757600091505b80546001600160a01b03166000908152601260205260409020600501541561475e57600091505b50919050565b6008546006546147839161beef9133916001600160a01b031690614889565b6008546006546004546147b09261beef9285926001600160a01b03909216916147ab91613d63565b614889565b50565b60008282018381101561480d576040805162461bcd60e51b815260206004820152601c60248201527f75696e74206f766572666c6f77207768696c65206164646974696f6e00000000604482015290519081900360640190fd5b9392505050565b6001600160a01b039283166000908152600d602090815260408083209490951682529283528381208054830190557fa30f7a7832bd8a7a8daa3a3f5b7a6f7cec6a2fbb1a121fa5b76520e44736771c90925291902080549091019055565b600081831015614882578161480d565b5090919050565b6148948483836148a5565b61489f838383614814565b50505050565b6001600160a01b039283166000908152600d60209081526040808320949095168252928352838120805483900390557fa30f7a7832bd8a7a8daa3a3f5b7a6f7cec6a2fbb1a121fa5b76520e44736771c9092529190208054919091039055565b600081614959576040805162461bcd60e51b815260206004820152601c60248201527f746f74616c207368617265732073686f756c64206e6f74206265203000000000604482015290519081900360640190fd5b836149665750600061480d565b8383028385828161497357fe5b04141561498c5782818161498357fe5b0491505061480d565b8383868161499657fe5b040295945050505050565b6000826149b057506000610ede565b828202828482816149bd57fe5b041461480d5760405162461bcd60e51b8152600401808060200182810382526028815260200180614d566028913960400191505060405180910390fd5b6040518060c0016040528060006001600160a01b03168152602001600081526020016000815260200160001515815260200160008152602001600081525090565b6040518060c001604052806006906020820280368337509192915050565b600183019183908215614adb5791602002820160005b83821115614aac57835183826101000a81548160ff0219169083151502179055509260200192600101602081600001049283019260010302614a6f565b8015614ad95782816101000a81549060ff0219169055600101602081600001049283019260010302614aac565b505b50614ae7929150614b65565b5090565b828054600181600116156101000203166002900490600052602060002090601f016020900481019282601f10614b2c57805160ff1916838001178555614b59565b82800160010185558215614b59579182015b82811115614b59578251825591602001919060010190614b3e565b50614ae7929150614b7e565b5b80821115614ae757805460ff19168155600101614b66565b5b80821115614ae75760008155600101614b7f56fe63616e6e6f74206f7665727772697465206578697374696e672064656c6567617465206b65797363616e6e6f7420726167657175697420756e74696c206869676865737420696e6465782070726f706f73616c206d656d62657220766f74656420594553206f6e2069732070726f63657373656470726f706f73616c206973206e6f7420726561647920746f2062652070726f6365737365646170706c6963616e7420616464726573732063616e6e6f7420626520726573657276656463616e6e6f74207375626d6974206d6f726520747269627574652070726f706f73616c7320666f72206e657720746f6b656e73202d206775696c6462616e6b2069732066756c6c6d656d626572206d757374206e6f7420616c7265616479206265206a61696c656470726576696f75732070726f706f73616c206d7573742062652070726f636573736564746f6b656e20746f20636f6c6c656374206d7573742062652077686974656c697374656463616e6e6f742073706f6e736f72206d6f72652077686974656c6973742070726f706f73616c736d656d626572206d7573742068617665206174206c65617374206f6e65207368617265206f72206f6e65206c6f6f7475696e74206f766572666c6f77206465746563746564207768696c65206d756c7469706c79696e67746f6b656e7320616e6420616d6f756e747320617272617973206d757374206265206d61746368696e67206c656e67746873746f6b656e20746f20636f6c6c656374206d7573742068617665206e6f6e2d7a65726f206775696c642062616e6b2062616c616e636570726f706f73616c206170706c6963616e74206d757374206e6f74206265206a61696c656470726f706f73616c2068617320616c7265616479206265656e2073706f6e736f72656463616e6e6f74206f7665727772697465206578697374696e67206d656d6265727363616e6e6f74207375626d6974206d6f72652077686974656c6973742070726f706f73616c73737562737472616374696f6e20776f756c64206c65616420746f2061206e65676174697665206e756d6265722163616e6e6f742073706f6e736f72206d6f726520747269627574652070726f706f73616c7320666f72206e657720746f6b656e73202d206775696c6462616e6b2069732066756c6c70726f706f73616c206465706f73697420746f6b656e207472616e73666572206661696c656470726f706f73616c20766f74696e6720706572696f6420686173206578706972656470726f706f73616c2068617320616c7265616479206265656e2063616e63656c6c656463616e6e6f7420616c726561647920686176652077686974656c69737465642074686520746f6b656e70726f706f73616c2068617320616c7265616479206265656e2070726f636573736564a2646970667358221220bf640a87fbe858c3823d12927d406c14345c8a1325ee191085493c9eb50aef5064736f6c634300070000335f766f74696e67506572696f644c656e6774682065786365656473206c696d69745f70726f706f73616c4465706f7369742063616e6e6f7420626520736d616c6c6572207468616e205f70726f63657373696e67526577617264",
  "immutableReferences": {},
  "source": "pragma solidity ^0.7.0;\n\nimport \"./v3/utils/SafeMath.sol\";\nimport \"./v3/utils/IERC20.sol\";\nimport \"./v3/guards/ReentrancyGuard.sol\";\n\n// SPDX-License-Identifier: MIT\n\ncontract Moloch is ReentrancyGuard {\n    using SafeMath for uint256;\n\n    /***************\n    GLOBAL CONSTANTS\n    ***************/\n    uint256 public periodDuration; // default = 17280 = 4.8 hours in seconds (5 periods per day)\n    uint256 public votingPeriodLength; // default = 35 periods (7 days)\n    uint256 public gracePeriodLength; // default = 35 periods (7 days)\n    uint256 public proposalDeposit; // default = 10 ETH (~$1,000 worth of ETH at contract deployment)\n    uint256 public dilutionBound; // default = 3 - maximum multiplier a YES voter will be obligated to pay in case of mass ragequit\n    uint256 public processingReward; // default = 0.1 - amount of ETH to give to whoever processes a proposal\n    uint256 public summoningTime; // needed to determine the current period\n\n    address public depositToken; // deposit token contract reference; default = wETH\n\n    // HARD-CODED LIMITS\n    // These numbers are quite arbitrary; they are small enough to avoid overflows when doing calculations\n    // with periods or shares, yet big enough to not limit reasonable use cases.\n    uint256 constant MAX_VOTING_PERIOD_LENGTH = 10**18; // maximum length of voting period\n    uint256 constant MAX_GRACE_PERIOD_LENGTH = 10**18; // maximum length of grace period\n    uint256 constant MAX_DILUTION_BOUND = 10**18; // maximum dilution bound\n    uint256 constant MAX_NUMBER_OF_SHARES_AND_LOOT = 10**18; // maximum number of shares that can be minted\n    uint256 constant MAX_TOKEN_WHITELIST_COUNT = 400; // maximum number of whitelisted tokens\n    uint256 constant MAX_TOKEN_GUILDBANK_COUNT = 200; // maximum number of tokens with non-zero balance in guildbank\n\n    // ***************\n    // EVENTS\n    // ***************\n    event SummonComplete(address indexed summoner, address[] tokens, uint256 summoningTime, uint256 periodDuration, uint256 votingPeriodLength, uint256 gracePeriodLength, uint256 proposalDeposit, uint256 dilutionBound, uint256 processingReward);\n    event SubmitProposal(address indexed applicant, uint256 sharesRequested, uint256 lootRequested, uint256 tributeOffered, address tributeToken, uint256 paymentRequested, address paymentToken, string details, bool[6] flags, uint256 proposalId, address indexed delegateKey, address indexed memberAddress);\n    event SponsorProposal(address indexed delegateKey, address indexed memberAddress, uint256 proposalId, uint256 proposalIndex, uint256 startingPeriod);\n    event SubmitVote(uint256 proposalId, uint256 indexed proposalIndex, address indexed delegateKey, address indexed memberAddress, uint8 uintVote);\n    event ProcessProposal(uint256 indexed proposalIndex, uint256 indexed proposalId, bool didPass);\n    event ProcessWhitelistProposal(uint256 indexed proposalIndex, uint256 indexed proposalId, bool didPass);\n    event ProcessGuildKickProposal(uint256 indexed proposalIndex, uint256 indexed proposalId, bool didPass);\n    event Ragequit(address indexed memberAddress, uint256 sharesToBurn, uint256 lootToBurn);\n    event TokensCollected(address indexed token, uint256 amountToCollect);\n    event CancelProposal(uint256 indexed proposalId, address applicantAddress);\n    event UpdateDelegateKey(address indexed memberAddress, address newDelegateKey);\n    event Withdraw(address indexed memberAddress, address token, uint256 amount);\n\n    // *******************\n    // INTERNAL ACCOUNTING\n    // *******************\n    uint256 public proposalCount = 0; // total proposals submitted\n    uint256 public totalShares = 0; // total shares across all members\n    uint256 public totalLoot = 0; // total loot across all members\n\n    uint256 public totalGuildBankTokens = 0; // total tokens with non-zero balance in guild bank\n\n    address public constant GUILD = address(0xdead);\n    address public constant ESCROW = address(0xbeef);\n    address public constant TOTAL = address(0xbabe);\n    mapping (address => mapping(address => uint256)) public userTokenBalances; // userTokenBalances[userAddress][tokenAddress]\n\n    enum Vote {\n        Null, // default value, counted as abstention\n        Yes,\n        No\n    }\n\n    struct Member {\n        address delegateKey; // the key responsible for submitting proposals and voting - defaults to member address unless updated\n        uint256 shares; // the # of voting shares assigned to this member\n        uint256 loot; // the loot amount available to this member (combined with shares on ragequit)\n        bool exists; // always true once a member has been created\n        uint256 highestIndexYesVote; // highest proposal index # on which the member voted YES\n        uint256 jailed; // set to proposalIndex of a passing guild kick proposal for this member, prevents voting on and sponsoring proposals\n    }\n\n    struct Proposal {\n        address applicant; // the applicant who wishes to become a member - this key will be used for withdrawals (doubles as guild kick target for gkick proposals)\n        address proposer; // the account that submitted the proposal (can be non-member)\n        address sponsor; // the member that sponsored the proposal (moving it into the queue)\n        uint256 sharesRequested; // the # of shares the applicant is requesting\n        uint256 lootRequested; // the amount of loot the applicant is requesting\n        uint256 tributeOffered; // amount of tokens offered as tribute\n        address tributeToken; // tribute token contract reference\n        uint256 paymentRequested; // amount of tokens requested as payment\n        address paymentToken; // payment token contract reference\n        uint256 startingPeriod; // the period in which voting can start for this proposal\n        uint256 yesVotes; // the total number of YES votes for this proposal\n        uint256 noVotes; // the total number of NO votes for this proposal\n        bool[6] flags; // [sponsored, processed, didPass, cancelled, whitelist, guildkick]\n        string details; // proposal details - could be IPFS hash, plaintext, or JSON\n        uint256 maxTotalSharesAndLootAtYesVote; // the maximum # of total shares encountered at a yes vote on this proposal\n        mapping(address => Vote) votesByMember; // the votes on this proposal by each member\n    }\n\n    mapping(address => bool) public tokenWhitelist;\n    address[] public approvedTokens;\n\n    mapping(address => bool) public proposedToWhitelist;\n    mapping(address => bool) public proposedToKick;\n\n    mapping(address => Member) public members;\n    mapping(address => address) public memberAddressByDelegateKey;\n\n    mapping(uint256 => Proposal) public proposals;\n\n    uint256[] public proposalQueue;\n\n    modifier onlyMember {\n        require(members[msg.sender].shares > 0 || members[msg.sender].loot > 0, \"not a member\");\n        _;\n    }\n\n    modifier onlyShareholder {\n        require(members[msg.sender].shares > 0, \"not a shareholder\");\n        _;\n    }\n\n    modifier onlyDelegate {\n        require(members[memberAddressByDelegateKey[msg.sender]].shares > 0, \"not a delegate\");\n        _;\n    }\n\n    constructor(\n        address _summoner,\n        address[] memory _approvedTokens,\n        uint256 _periodDuration,\n        uint256 _votingPeriodLength,\n        uint256 _gracePeriodLength,\n        uint256 _proposalDeposit,\n        uint256 _dilutionBound,\n        uint256 _processingReward\n    ) {\n        require(_summoner != address(0), \"summoner cannot be 0\");\n        require(_periodDuration > 0, \"_periodDuration cannot be 0\");\n        require(_votingPeriodLength > 0, \"_votingPeriodLength cannot be 0\");\n        require(_votingPeriodLength <= MAX_VOTING_PERIOD_LENGTH, \"_votingPeriodLength exceeds limit\");\n        require(_gracePeriodLength <= MAX_GRACE_PERIOD_LENGTH, \"_gracePeriodLength exceeds limit\");\n        require(_dilutionBound > 0, \"_dilutionBound cannot be 0\");\n        require(_dilutionBound <= MAX_DILUTION_BOUND, \"_dilutionBound exceeds limit\");\n        require(_approvedTokens.length > 0, \"need at least one approved token\");\n        require(_approvedTokens.length <= MAX_TOKEN_WHITELIST_COUNT, \"too many tokens\");\n        require(_proposalDeposit >= _processingReward, \"_proposalDeposit cannot be smaller than _processingReward\");\n        \n        depositToken = _approvedTokens[0];\n        // NOTE: move event up here, avoid stack too deep if too many approved tokens\n        emit SummonComplete(_summoner, _approvedTokens, block.timestamp, _periodDuration, _votingPeriodLength, _gracePeriodLength, _proposalDeposit, _dilutionBound, _processingReward);\n\n\n        for (uint256 i = 0; i < _approvedTokens.length; i++) {\n            require(_approvedTokens[i] != address(0), \"_approvedToken cannot be 0\");\n            require(!tokenWhitelist[_approvedTokens[i]], \"duplicate approved token\");\n            tokenWhitelist[_approvedTokens[i]] = true;\n            approvedTokens.push(_approvedTokens[i]);\n        }\n\n        periodDuration = _periodDuration;\n        votingPeriodLength = _votingPeriodLength;\n        gracePeriodLength = _gracePeriodLength;\n        proposalDeposit = _proposalDeposit;\n        dilutionBound = _dilutionBound;\n        processingReward = _processingReward;\n\n        summoningTime = block.timestamp;\n\n        members[_summoner] = Member(_summoner, 1, 0, true, 0, 0);\n        memberAddressByDelegateKey[_summoner] = _summoner;\n        totalShares = 1;\n       \n    }\n\n    /*****************\n    PROPOSAL FUNCTIONS\n    *****************/\n    function submitProposal(\n        address applicant,\n        uint256 sharesRequested,\n        uint256 lootRequested,\n        uint256 tributeOffered,\n        address tributeToken,\n        uint256 paymentRequested,\n        address paymentToken,\n        string memory details\n    ) public nonReentrant returns (uint256 proposalId) {\n        require(sharesRequested.add(lootRequested) <= MAX_NUMBER_OF_SHARES_AND_LOOT, \"too many shares requested\");\n        require(tokenWhitelist[tributeToken], \"tributeToken is not whitelisted\");\n        require(tokenWhitelist[paymentToken], \"payment is not whitelisted\");\n        require(applicant != address(0), \"applicant cannot be 0\");\n        require(applicant != GUILD && applicant != ESCROW && applicant != TOTAL, \"applicant address cannot be reserved\");\n        require(members[applicant].jailed == 0, \"proposal applicant must not be jailed\");\n\n        if (tributeOffered > 0 && userTokenBalances[GUILD][tributeToken] == 0) {\n            require(totalGuildBankTokens < MAX_TOKEN_GUILDBANK_COUNT, 'cannot submit more tribute proposals for new tokens - guildbank is full');\n        }\n\n        // collect tribute from proposer and store it in the Moloch until the proposal is processed\n        require(IERC20(tributeToken).transferFrom(msg.sender, address(this), tributeOffered), \"tribute token transfer failed\");\n        unsafeAddToBalance(ESCROW, tributeToken, tributeOffered);\n\n        bool[6] memory flags; // [sponsored, processed, didPass, cancelled, whitelist, guildkick]\n\n        _submitProposal(applicant, sharesRequested, lootRequested, tributeOffered, tributeToken, paymentRequested, paymentToken, details, flags);\n        return proposalCount - 1; // return proposalId - contracts calling submit might want it\n    }\n\n    function submitWhitelistProposal(address tokenToWhitelist, string memory details) public nonReentrant returns (uint256 proposalId) {\n        require(tokenToWhitelist != address(0), \"must provide token address\");\n        require(!tokenWhitelist[tokenToWhitelist], \"cannot already have whitelisted the token\");\n        require(approvedTokens.length < MAX_TOKEN_WHITELIST_COUNT, \"cannot submit more whitelist proposals\");\n\n        bool[6] memory flags; // [sponsored, processed, didPass, cancelled, whitelist, guildkick]\n        flags[4] = true; // whitelist\n\n        _submitProposal(address(0), 0, 0, 0, tokenToWhitelist, 0, address(0), details, flags);\n        return proposalCount - 1;\n    }\n\n    function submitGuildKickProposal(address memberToKick, string memory details) public nonReentrant returns (uint256 proposalId) {\n        Member memory member = members[memberToKick];\n\n        require(member.shares > 0 || member.loot > 0, \"member must have at least one share or one loot\");\n        require(members[memberToKick].jailed == 0, \"member must not already be jailed\");\n\n        bool[6] memory flags; // [sponsored, processed, didPass, cancelled, whitelist, guildkick]\n        flags[5] = true; // guild kick\n\n        _submitProposal(memberToKick, 0, 0, 0, address(0), 0, address(0), details, flags);\n        return proposalCount - 1;\n    }\n\n    function _submitProposal(\n        address applicant,\n        uint256 sharesRequested,\n        uint256 lootRequested,\n        uint256 tributeOffered,\n        address tributeToken,\n        uint256 paymentRequested,\n        address paymentToken,\n        string memory details,\n        bool[6] memory flags\n    ) internal {\n        Proposal storage proposal = proposals[proposalCount];\n\n        proposal.applicant = applicant;\n        proposal.proposer = msg.sender;\n        proposal.sponsor = address(0);\n        proposal.sharesRequested = sharesRequested;\n        proposal.lootRequested = lootRequested;\n        proposal.tributeOffered = tributeOffered;\n        proposal.tributeToken = tributeToken;\n        proposal.paymentRequested = paymentRequested;\n        proposal.paymentToken = paymentToken;\n        proposal.startingPeriod = 0;\n        proposal.yesVotes = 0;\n        proposal.noVotes = 0;\n        proposal.flags = flags;\n        proposal.details = details;\n        proposal.maxTotalSharesAndLootAtYesVote = 0;\n\n        address memberAddress = memberAddressByDelegateKey[msg.sender];\n        // NOTE: argument order matters, avoid stack too deep\n        emit SubmitProposal(applicant, sharesRequested, lootRequested, tributeOffered, tributeToken, paymentRequested, paymentToken, details, flags, proposalCount, msg.sender, memberAddress);\n        proposalCount += 1;\n    }\n\n    function sponsorProposal(uint256 proposalId) public nonReentrant onlyDelegate {\n        // collect proposal deposit from sponsor and store it in the Moloch until the proposal is processed\n        require(IERC20(depositToken).transferFrom(msg.sender, address(this), proposalDeposit), \"proposal deposit token transfer failed\");\n        unsafeAddToBalance(ESCROW, depositToken, proposalDeposit);\n\n        Proposal storage proposal = proposals[proposalId];\n\n        require(proposal.proposer != address(0), 'proposal must have been proposed');\n        require(!proposal.flags[0], \"proposal has already been sponsored\");\n        require(!proposal.flags[3], \"proposal has been cancelled\");\n        require(members[proposal.applicant].jailed == 0, \"proposal applicant must not be jailed\");\n\n        if (proposal.tributeOffered > 0 && userTokenBalances[GUILD][proposal.tributeToken] == 0) {\n            require(totalGuildBankTokens < MAX_TOKEN_GUILDBANK_COUNT, 'cannot sponsor more tribute proposals for new tokens - guildbank is full');\n        }\n\n        // whitelist proposal\n        if (proposal.flags[4]) {\n            require(!tokenWhitelist[address(proposal.tributeToken)], \"cannot already have whitelisted the token\");\n            require(!proposedToWhitelist[address(proposal.tributeToken)], 'already proposed to whitelist');\n            require(approvedTokens.length < MAX_TOKEN_WHITELIST_COUNT, \"cannot sponsor more whitelist proposals\");\n            proposedToWhitelist[address(proposal.tributeToken)] = true;\n\n        // guild kick proposal\n        } else if (proposal.flags[5]) {\n            require(!proposedToKick[proposal.applicant], 'already proposed to kick');\n            proposedToKick[proposal.applicant] = true;\n        }\n\n        // compute startingPeriod for proposal\n        uint256 startingPeriod = max(\n            getCurrentPeriod(),\n            proposalQueue.length == 0 ? 0 : proposals[proposalQueue[proposalQueue.length.sub(1)]].startingPeriod\n        ).add(1);\n\n        proposal.startingPeriod = startingPeriod;\n\n        address memberAddress = memberAddressByDelegateKey[msg.sender];\n        proposal.sponsor = memberAddress;\n\n        proposal.flags[0] = true; // sponsored\n\n        // append proposal to the queue\n        proposalQueue.push(proposalId);\n        \n        emit SponsorProposal(msg.sender, memberAddress, proposalId, proposalQueue.length.sub(1), startingPeriod);\n    }\n\n    // NOTE: In MolochV2 proposalIndex !== proposalId\n    function submitVote(uint256 proposalIndex, uint8 uintVote) public nonReentrant onlyDelegate {\n        address memberAddress = memberAddressByDelegateKey[msg.sender];\n        Member storage member = members[memberAddress];\n\n        require(proposalIndex < proposalQueue.length, \"proposal does not exist\");\n        Proposal storage proposal = proposals[proposalQueue[proposalIndex]];\n\n        require(uintVote < 3, \"must be less than 3\");\n        Vote vote = Vote(uintVote);\n\n        require(getCurrentPeriod() >= proposal.startingPeriod, \"voting period has not started\");\n        require(!hasVotingPeriodExpired(proposal.startingPeriod), \"proposal voting period has expired\");\n        require(proposal.votesByMember[memberAddress] == Vote.Null, \"member has already voted\");\n        require(vote == Vote.Yes || vote == Vote.No, \"vote must be either Yes or No\");\n\n        proposal.votesByMember[memberAddress] = vote;\n\n        if (vote == Vote.Yes) {\n            proposal.yesVotes = proposal.yesVotes.add(member.shares);\n\n            // set highest index (latest) yes vote - must be processed for member to ragequit\n            if (proposalIndex > member.highestIndexYesVote) {\n                member.highestIndexYesVote = proposalIndex;\n            }\n\n            // set maximum of total shares encountered at a yes vote - used to bound dilution for yes voters\n            if (totalShares.add(totalLoot) > proposal.maxTotalSharesAndLootAtYesVote) {\n                proposal.maxTotalSharesAndLootAtYesVote = totalShares.add(totalLoot);\n            }\n\n        } else if (vote == Vote.No) {\n            proposal.noVotes = proposal.noVotes.add(member.shares);\n        }\n     \n        // NOTE: subgraph indexes by proposalId not proposalIndex since proposalIndex isn't set untill it's been sponsored but proposal is created on submission\n        emit SubmitVote(proposalQueue[proposalIndex], proposalIndex, msg.sender, memberAddress, uintVote);\n    }\n\n    function processProposal(uint256 proposalIndex) public nonReentrant {\n        _validateProposalForProcessing(proposalIndex);\n\n        uint256 proposalId = proposalQueue[proposalIndex];\n        Proposal storage proposal = proposals[proposalId];\n\n        require(!proposal.flags[4] && !proposal.flags[5], \"must be a standard proposal\");\n\n        proposal.flags[1] = true; // processed\n\n        bool didPass = _didPass(proposalIndex);\n\n        // Make the proposal fail if the new total number of shares and loot exceeds the limit\n        if (totalShares.add(totalLoot).add(proposal.sharesRequested).add(proposal.lootRequested) > MAX_NUMBER_OF_SHARES_AND_LOOT) {\n            didPass = false;\n        }\n\n        // Make the proposal fail if it is requesting more tokens as payment than the available guild bank balance\n        if (proposal.paymentRequested > userTokenBalances[GUILD][proposal.paymentToken]) {\n            didPass = false;\n        }\n\n        // Make the proposal fail if it would result in too many tokens with non-zero balance in guild bank\n        if (proposal.tributeOffered > 0 && userTokenBalances[GUILD][proposal.tributeToken] == 0 && totalGuildBankTokens >= MAX_TOKEN_GUILDBANK_COUNT) {\n           didPass = false;\n        }\n\n        // PROPOSAL PASSED\n        if (didPass) {\n            proposal.flags[2] = true; // didPass\n\n            // if the applicant is already a member, add to their existing shares & loot\n            if (members[proposal.applicant].exists) {\n                members[proposal.applicant].shares = members[proposal.applicant].shares.add(proposal.sharesRequested);\n                members[proposal.applicant].loot = members[proposal.applicant].loot.add(proposal.lootRequested);\n\n            // the applicant is a new member, create a new record for them\n            } else {\n                // if the applicant address is already taken by a member's delegateKey, reset it to their member address\n                if (members[memberAddressByDelegateKey[proposal.applicant]].exists) {\n                    address memberToOverride = memberAddressByDelegateKey[proposal.applicant];\n                    memberAddressByDelegateKey[memberToOverride] = memberToOverride;\n                    members[memberToOverride].delegateKey = memberToOverride;\n                }\n\n                // use applicant address as delegateKey by default\n                members[proposal.applicant] = Member(proposal.applicant, proposal.sharesRequested, proposal.lootRequested, true, 0, 0);\n                memberAddressByDelegateKey[proposal.applicant] = proposal.applicant;\n            }\n\n            // mint new shares & loot\n            totalShares = totalShares.add(proposal.sharesRequested);\n            totalLoot = totalLoot.add(proposal.lootRequested);\n\n            // if the proposal tribute is the first tokens of its kind to make it into the guild bank, increment total guild bank tokens\n            if (userTokenBalances[GUILD][proposal.tributeToken] == 0 && proposal.tributeOffered > 0) {\n                totalGuildBankTokens += 1;\n            }\n\n            unsafeInternalTransfer(ESCROW, GUILD, proposal.tributeToken, proposal.tributeOffered);\n            unsafeInternalTransfer(GUILD, proposal.applicant, proposal.paymentToken, proposal.paymentRequested);\n\n            // if the proposal spends 100% of guild bank balance for a token, decrement total guild bank tokens\n            if (userTokenBalances[GUILD][proposal.paymentToken] == 0 && proposal.paymentRequested > 0) {\n                totalGuildBankTokens -= 1;\n            }\n\n        // PROPOSAL FAILED\n        } else {\n            // return all tokens to the proposer (not the applicant, because funds come from proposer)\n            unsafeInternalTransfer(ESCROW, proposal.proposer, proposal.tributeToken, proposal.tributeOffered);\n        }\n\n        _returnDeposit(proposal.sponsor);\n\n        emit ProcessProposal(proposalIndex, proposalId, didPass);\n    }\n\n    function processWhitelistProposal(uint256 proposalIndex) public nonReentrant {\n        _validateProposalForProcessing(proposalIndex);\n\n        uint256 proposalId = proposalQueue[proposalIndex];\n        Proposal storage proposal = proposals[proposalId];\n\n        require(proposal.flags[4], \"must be a whitelist proposal\");\n\n        proposal.flags[1] = true; // processed\n\n        bool didPass = _didPass(proposalIndex);\n\n        if (approvedTokens.length >= MAX_TOKEN_WHITELIST_COUNT) {\n            didPass = false;\n        }\n\n        if (didPass) {\n            proposal.flags[2] = true; // didPass\n\n            tokenWhitelist[address(proposal.tributeToken)] = true;\n            approvedTokens.push(proposal.tributeToken);\n        }\n\n        proposedToWhitelist[address(proposal.tributeToken)] = false;\n\n        _returnDeposit(proposal.sponsor);\n\n        emit ProcessWhitelistProposal(proposalIndex, proposalId, didPass);\n    }\n\n    function processGuildKickProposal(uint256 proposalIndex) public nonReentrant {\n        _validateProposalForProcessing(proposalIndex);\n\n        uint256 proposalId = proposalQueue[proposalIndex];\n        Proposal storage proposal = proposals[proposalId];\n\n        require(proposal.flags[5], \"must be a guild kick proposal\");\n\n        proposal.flags[1] = true; // processed\n\n        bool didPass = _didPass(proposalIndex);\n\n        if (didPass) {\n            proposal.flags[2] = true; // didPass\n            Member storage member = members[proposal.applicant];\n            member.jailed = proposalIndex;\n\n            // transfer shares to loot\n            member.loot = member.loot.add(member.shares);\n            totalShares = totalShares.sub(member.shares);\n            totalLoot = totalLoot.add(member.shares);\n            member.shares = 0; // revoke all shares\n        }\n\n        proposedToKick[proposal.applicant] = false;\n\n        _returnDeposit(proposal.sponsor);\n\n        emit ProcessGuildKickProposal(proposalIndex, proposalId, didPass);\n    }\n\n    function _didPass(uint256 proposalIndex) internal view returns (bool didPass) {\n        Proposal storage proposal = proposals[proposalQueue[proposalIndex]];\n\n        didPass = proposal.yesVotes > proposal.noVotes;\n\n        // Make the proposal fail if the dilutionBound is exceeded\n        if ((totalShares.add(totalLoot)).mul(dilutionBound) < proposal.maxTotalSharesAndLootAtYesVote) {\n            didPass = false;\n        }\n\n        // Make the proposal fail if the applicant is jailed\n        // - for standard proposals, we don't want the applicant to get any shares/loot/payment\n        // - for guild kick proposals, we should never be able to propose to kick a jailed member (or have two kick proposals active), so it doesn't matter\n        if (members[proposal.applicant].jailed != 0) {\n            didPass = false;\n        }\n\n        return didPass;\n    }\n\n    function _validateProposalForProcessing(uint256 proposalIndex) internal view {\n        require(proposalIndex < proposalQueue.length, \"proposal does not exist\");\n        Proposal storage proposal = proposals[proposalQueue[proposalIndex]];\n\n        require(getCurrentPeriod() >= proposal.startingPeriod.add(votingPeriodLength).add(gracePeriodLength), \"proposal is not ready to be processed\");\n        require(proposal.flags[1] == false, \"proposal has already been processed\");\n        require(proposalIndex == 0 || proposals[proposalQueue[proposalIndex.sub(1)]].flags[1], \"previous proposal must be processed\");\n    }\n\n    function _returnDeposit(address sponsor) internal {\n        unsafeInternalTransfer(ESCROW, msg.sender, depositToken, processingReward);\n        unsafeInternalTransfer(ESCROW, sponsor, depositToken, proposalDeposit.sub(processingReward));\n    }\n\n    function ragequit(uint256 sharesToBurn, uint256 lootToBurn) public nonReentrant onlyMember {\n        _ragequit(msg.sender, sharesToBurn, lootToBurn);\n    }\n\n    function _ragequit(address memberAddress, uint256 sharesToBurn, uint256 lootToBurn) internal {\n        uint256 initialTotalSharesAndLoot = totalShares.add(totalLoot);\n\n        Member storage member = members[memberAddress];\n\n        require(member.shares >= sharesToBurn, \"insufficient shares\");\n        require(member.loot >= lootToBurn, \"insufficient loot\");\n\n        require(canRagequit(member.highestIndexYesVote), \"cannot ragequit until highest index proposal member voted YES on is processed\");\n\n        uint256 sharesAndLootToBurn = sharesToBurn.add(lootToBurn);\n\n        // burn shares and loot\n        member.shares = member.shares.sub(sharesToBurn);\n        member.loot = member.loot.sub(lootToBurn);\n        totalShares = totalShares.sub(sharesToBurn);\n        totalLoot = totalLoot.sub(lootToBurn);\n\n        for (uint256 i = 0; i < approvedTokens.length; i++) {\n            uint256 amountToRagequit = fairShare(userTokenBalances[GUILD][approvedTokens[i]], sharesAndLootToBurn, initialTotalSharesAndLoot);\n            if (amountToRagequit > 0) { // gas optimization to allow a higher maximum token limit\n                // deliberately not using safemath here to keep overflows from preventing the function execution (which would break ragekicks)\n                // if a token overflows, it is because the supply was artificially inflated to oblivion, so we probably don't care about it anyways\n                userTokenBalances[GUILD][approvedTokens[i]] -= amountToRagequit;\n                userTokenBalances[memberAddress][approvedTokens[i]] += amountToRagequit;\n            }\n        }\n\n        emit Ragequit(msg.sender, sharesToBurn, lootToBurn);\n    }\n\n    function ragekick(address memberToKick) public nonReentrant {\n        Member storage member = members[memberToKick];\n\n        require(member.jailed != 0, \"member must be in jail\");\n        require(member.loot > 0, \"member must have some loot\"); // note - should be impossible for jailed member to have shares\n        require(canRagequit(member.highestIndexYesVote), \"cannot ragequit until highest index proposal member voted YES on is processed\");\n\n        _ragequit(memberToKick, 0, member.loot);\n    }\n\n    function withdrawBalance(address token, uint256 amount) public nonReentrant {\n        _withdrawBalance(token, amount);\n    }\n\n    function withdrawBalances(address[] memory tokens, uint256[] memory amounts, bool max) public nonReentrant {\n        require(tokens.length == amounts.length, \"tokens and amounts arrays must be matching lengths\");\n\n        for (uint256 i=0; i < tokens.length; i++) {\n            uint256 withdrawAmount = amounts[i];\n            if (max) { // withdraw the maximum balance\n                withdrawAmount = userTokenBalances[msg.sender][tokens[i]];\n            }\n\n            _withdrawBalance(tokens[i], withdrawAmount);\n        }\n    }\n    \n    function _withdrawBalance(address token, uint256 amount) internal {\n        require(userTokenBalances[msg.sender][token] >= amount, \"insufficient balance\");\n        unsafeSubtractFromBalance(msg.sender, token, amount);\n        require(IERC20(token).transfer(msg.sender, amount), \"transfer failed\");\n        emit Withdraw(msg.sender, token, amount);\n    }\n\n    function collectTokens(address token) public onlyDelegate nonReentrant {\n        uint256 amountToCollect = IERC20(token).balanceOf(address(this)).sub(userTokenBalances[TOTAL][token]);\n        // only collect if 1) there are tokens to collect 2) token is whitelisted 3) token has non-zero balance\n        require(amountToCollect > 0, 'no tokens to collect');\n        require(tokenWhitelist[token], 'token to collect must be whitelisted');\n        require(userTokenBalances[GUILD][token] > 0, 'token to collect must have non-zero guild bank balance');\n        \n        unsafeAddToBalance(GUILD, token, amountToCollect);\n        emit TokensCollected(token, amountToCollect);\n    }\n\n    // NOTE: requires that delegate key which sent the original proposal cancels, msg.sender == proposal.proposer\n    function cancelProposal(uint256 proposalId) public nonReentrant {\n        Proposal storage proposal = proposals[proposalId];\n        require(!proposal.flags[0], \"proposal has already been sponsored\");\n        require(!proposal.flags[3], \"proposal has already been cancelled\");\n        require(msg.sender == proposal.proposer, \"solely the proposer can cancel\");\n\n        proposal.flags[3] = true; // cancelled\n        \n        unsafeInternalTransfer(ESCROW, proposal.proposer, proposal.tributeToken, proposal.tributeOffered);\n        emit CancelProposal(proposalId, msg.sender);\n    }\n\n    function updateDelegateKey(address newDelegateKey) public nonReentrant onlyShareholder {\n        require(newDelegateKey != address(0), \"newDelegateKey cannot be 0\");\n\n        // skip checks if member is setting the delegate key to their member address\n        if (newDelegateKey != msg.sender) {\n            require(!members[newDelegateKey].exists, \"cannot overwrite existing members\");\n            require(!members[memberAddressByDelegateKey[newDelegateKey]].exists, \"cannot overwrite existing delegate keys\");\n        }\n\n        Member storage member = members[msg.sender];\n        memberAddressByDelegateKey[member.delegateKey] = address(0);\n        memberAddressByDelegateKey[newDelegateKey] = msg.sender;\n        member.delegateKey = newDelegateKey;\n\n        emit UpdateDelegateKey(msg.sender, newDelegateKey);\n    }\n\n    // can only ragequit if the latest proposal you voted YES on has been processed\n    function canRagequit(uint256 highestIndexYesVote) public view returns (bool) {\n        require(highestIndexYesVote < proposalQueue.length, \"proposal does not exist\");\n        return proposals[proposalQueue[highestIndexYesVote]].flags[1];\n    }\n\n    function hasVotingPeriodExpired(uint256 startingPeriod) public view returns (bool) {\n        return getCurrentPeriod() >= startingPeriod.add(votingPeriodLength);\n    }\n\n    /***************\n    GETTER FUNCTIONS\n    ***************/\n\n    function max(uint256 x, uint256 y) internal pure returns (uint256) {\n        return x >= y ? x : y;\n    }\n\n    function getCurrentPeriod() public view returns (uint256) {\n        return block.timestamp.sub(summoningTime).div(periodDuration);\n    }\n\n    function getProposalQueueLength() public view returns (uint256) {\n        return proposalQueue.length;\n    }\n\n    function getProposalFlags(uint256 proposalId) public view returns (bool[6] memory) {\n        return proposals[proposalId].flags;\n    }\n\n    function getUserTokenBalance(address user, address token) public view returns (uint256) {\n        return userTokenBalances[user][token];\n    }\n\n    function getMemberProposalVote(address memberAddress, uint256 proposalIndex) public view returns (Vote) {\n        require(members[memberAddress].exists, \"member does not exist\");\n        require(proposalIndex < proposalQueue.length, \"proposal does not exist\");\n        return proposals[proposalQueue[proposalIndex]].votesByMember[memberAddress];\n    }\n\n    function getTokenCount() public view returns (uint256) {\n        return approvedTokens.length;\n    }\n\n    /***************\n    HELPER FUNCTIONS\n    ***************/\n    function unsafeAddToBalance(address user, address token, uint256 amount) internal {\n        userTokenBalances[user][token] += amount;\n        userTokenBalances[TOTAL][token] += amount;\n    }\n\n    function unsafeSubtractFromBalance(address user, address token, uint256 amount) internal {\n        userTokenBalances[user][token] -= amount;\n        userTokenBalances[TOTAL][token] -= amount;\n    }\n\n    function unsafeInternalTransfer(address from, address to, address token, uint256 amount) internal {\n        unsafeSubtractFromBalance(from, token, amount);\n        unsafeAddToBalance(to, token, amount);\n    }\n\n    function fairShare(uint256 balance, uint256 shares, uint256 _totalShares) internal pure returns (uint256) {\n        require(_totalShares != 0, \"total shares should not be 0\");\n\n        if (balance == 0) {\n            return 0;\n        }\n\n        uint256 prod = balance * shares;\n\n        if (prod / balance == shares) { // no overflow in multiplication above?\n            return prod / _totalShares;\n        }\n\n        return (balance / _totalShares) * shares;\n    }\n}\n",
  "sourcePath": "/Users/davidroon/projects/moloch/contracts/Moloch.sol",
  "compiler": {
    "name": "solc",
    "version": "0.7.0+commit.9e61f92b.Emscripten.clang"
  },
  "schemaVersion": "3.2.3",
  "updatedAt": "2020-09-17T11:52:26.448Z",
  "devdoc": {
    "kind": "dev",
    "methods": {},
    "version": 1
  },
  "userdoc": {
    "kind": "user",
    "methods": {},
    "version": 1
  }
}