{
  "contractName": "MolochSummoner",
  "abi": [
    {
      "anonymous": false,
      "inputs": [
        {
          "indexed": true,
          "internalType": "address",
          "name": "M",
          "type": "address"
        },
        {
          "indexed": true,
          "internalType": "address",
          "name": "_summoner",
          "type": "address"
        }
      ],
      "name": "Summoned",
      "type": "event"
    },
    {
      "inputs": [
        {
          "internalType": "uint256",
          "name": "",
          "type": "uint256"
        }
      ],
      "name": "Molochs",
      "outputs": [
        {
          "internalType": "address",
          "name": "",
          "type": "address"
        }
      ],
      "stateMutability": "view",
      "type": "function"
    },
    {
      "inputs": [
        {
          "internalType": "address",
          "name": "_summoner",
          "type": "address"
        },
        {
          "internalType": "address[]",
          "name": "_approvedTokens",
          "type": "address[]"
        },
        {
          "internalType": "uint256",
          "name": "_periodDuration",
          "type": "uint256"
        },
        {
          "internalType": "uint256",
          "name": "_votingPeriodLength",
          "type": "uint256"
        },
        {
          "internalType": "uint256",
          "name": "_gracePeriodLength",
          "type": "uint256"
        },
        {
          "internalType": "uint256",
          "name": "_proposalDeposit",
          "type": "uint256"
        },
        {
          "internalType": "uint256",
          "name": "_dilutionBound",
          "type": "uint256"
        },
        {
          "internalType": "uint256",
          "name": "_processingReward",
          "type": "uint256"
        }
      ],
      "name": "summonMoloch",
      "outputs": [],
      "stateMutability": "nonpayable",
      "type": "function"
    },
    {
      "inputs": [],
      "name": "getMolochCount",
      "outputs": [
        {
          "internalType": "uint256",
          "name": "MolochCount",
          "type": "uint256"
        }
      ],
      "stateMutability": "view",
      "type": "function"
    }
  ],
  "bytecode": "0x608060405234801561001057600080fd5b50615c32806100206000396000f3fe608060405234801561001057600080fd5b50600436106100415760003560e01c80630fe204bd1461004657806356c40ab51461006057806381fc595914610140575b600080fd5b61004e610186565b60408051918252519081900360200190f35b61013e600480360361010081101561007757600080fd5b73ffffffffffffffffffffffffffffffffffffffff82351691908101906040810160208201356401000000008111156100af57600080fd5b8201836020820111156100c157600080fd5b803590602001918460208302840111640100000000831117156100e357600080fd5b9190808060200260200160405190810160405280939291908181526020018383602002808284376000920191909152509295505082359350505060208101359060408101359060608101359060808101359060a0013561018c565b005b61015d6004803603602081101561015657600080fd5b5035610304565b6040805173ffffffffffffffffffffffffffffffffffffffff9092168252519081900360200190f35b60015490565b87878787878787876040516101a090610338565b808973ffffffffffffffffffffffffffffffffffffffff16815260200180602001888152602001878152602001868152602001858152602001848152602001838152602001828103825289818151815260200191508051906020019060200280838360005b8381101561021d578181015183820152602001610205565b505050509050019950505050505050505050604051809103906000f08015801561024b573d6000803e3d6000fd5b506000805473ffffffffffffffffffffffffffffffffffffffff9283167fffffffffffffffffffffffff0000000000000000000000000000000000000000918216178083556001805480820182559084527fb10e2d527612073b26eecdfd717e6a320cf44b4afac2b0732d9fcbe2b7fa0cf601805490921690841617905580546040518b84169391909116917f5d117058594e38d35f98a79b5e9cbcd9fa0597fad786e2826bc4f290a0f5d4a791a35050505050505050565b6001818154811061031157fe5b60009182526020909120015473ffffffffffffffffffffffffffffffffffffffff16905081565b6158b7806103468339019056fe608060405260006009556000600a556000600b556000600c553480156200002557600080fd5b50604051620058b7380380620058b783398181016040526101008110156200004c57600080fd5b8151602083018051604051929492938301929190846401000000008211156200007457600080fd5b9083019060208201858111156200008a57600080fd5b8251866020820283011164010000000082111715620000a857600080fd5b82525081516020918201928201910280838360005b83811015620000d7578181015183820152602001620000bd565b505050509190910160409081526020830151908301516060840151608085015160a086015160c0909601516000805460ff1916600117905593975091955093909250906001600160a01b03881662000176576040805162461bcd60e51b815260206004820152601460248201527f73756d6d6f6e65722063616e6e6f742062652030000000000000000000000000604482015290519081900360640190fd5b60008611620001cc576040805162461bcd60e51b815260206004820152601b60248201527f5f706572696f644475726174696f6e2063616e6e6f7420626520300000000000604482015290519081900360640190fd5b6000851162000222576040805162461bcd60e51b815260206004820152601f60248201527f5f766f74696e67506572696f644c656e6774682063616e6e6f74206265203000604482015290519081900360640190fd5b670de0b6b3a76400008511156200026b5760405162461bcd60e51b81526004018080602001828103825260218152602001806200585d6021913960400191505060405180910390fd5b670de0b6b3a7640000841115620002c9576040805162461bcd60e51b815260206004820181905260248201527f5f6772616365506572696f644c656e6774682065786365656473206c696d6974604482015290519081900360640190fd5b600082116200031f576040805162461bcd60e51b815260206004820152601a60248201527f5f64696c7574696f6e426f756e642063616e6e6f742062652030000000000000604482015290519081900360640190fd5b670de0b6b3a76400008211156200037d576040805162461bcd60e51b815260206004820152601c60248201527f5f64696c7574696f6e426f756e642065786365656473206c696d697400000000604482015290519081900360640190fd5b6000875111620003d4576040805162461bcd60e51b815260206004820181905260248201527f6e656564206174206c65617374206f6e6520617070726f76656420746f6b656e604482015290519081900360640190fd5b610190875111156200041f576040805162461bcd60e51b815260206004820152600f60248201526e746f6f206d616e7920746f6b656e7360881b604482015290519081900360640190fd5b80831015620004605760405162461bcd60e51b81526004018080602001828103825260398152602001806200587e6039913960400191505060405180910390fd5b866000815181106200046e57fe5b6020026020010151600860006101000a8154816001600160a01b0302191690836001600160a01b03160217905550876001600160a01b03167fc9943dac607a408ce079996205c3b771a7e464a5cf3859bc3315813f965e92408842898989898989604051808060200189815260200188815260200187815260200186815260200185815260200184815260200183815260200182810382528a818151815260200191508051906020019060200280838360005b838110156200053b57818101518382015260200162000521565b50505050905001995050505050505050505060405180910390a260005b8751811015620007115760006001600160a01b03168882815181106200057a57fe5b60200260200101516001600160a01b03161415620005df576040805162461bcd60e51b815260206004820152601a60248201527f5f617070726f766564546f6b656e2063616e6e6f742062652030000000000000604482015290519081900360640190fd5b600e6000898381518110620005f057fe5b6020908102919091018101516001600160a01b031682528101919091526040016000205460ff16156200066a576040805162461bcd60e51b815260206004820152601860248201527f6475706c696361746520617070726f76656420746f6b656e0000000000000000604482015290519081900360640190fd5b6001600e60008a84815181106200067d57fe5b60200260200101516001600160a01b03166001600160a01b0316815260200190815260200160002060006101000a81548160ff021916908315150217905550600f888281518110620006cb57fe5b60209081029190910181015182546001808201855560009485529290932090920180546001600160a01b0319166001600160a01b03909316929092179091550162000558565b50856001819055508460028190555083600381905550826004819055508160058190555080600681905550426007819055506040518060c00160405280896001600160a01b031681526020016001815260200160008152602001600115158152602001600081526020016000815250601260008a6001600160a01b03166001600160a01b0316815260200190815260200160002060008201518160000160006101000a8154816001600160a01b0302191690836001600160a01b03160217905550602082015181600101556040820151816002015560608201518160030160006101000a81548160ff0219169083151502179055506080820151816004015560a0820151816005015590505087601360008a6001600160a01b03166001600160a01b0316815260200190815260200160002060006101000a8154816001600160a01b0302191690836001600160a01b031602179055506001600a819055505050505050505050614fd680620008876000396000f3fe608060405234801561001057600080fd5b50600436106103155760003560e01c8063753d7563116101a7578063b2643aab116100ee578063e178034511610097578063e681c4aa11610071578063e681c4aa14610b9f578063f5d54c7714610ba7578063feb7ea1d14610baf57610315565b8063e178034514610b3f578063e1a0e3fa14610b65578063e63bc62d14610b8257610315565b8063da35c664116100c8578063da35c66414610af4578063dfdd369e14610afc578063e0a8f6f514610b2257610315565b8063b2643aab14610a8f578063b470aade14610ae4578063c89039c514610aec57610315565b80639425a476116101505780639d1722cb1161012a5780639d1722cb14610a62578063a3dc380014610a6a578063afe5475f14610a8757610315565b80639425a47614610a025780639746d94014610a1f57806399653fbe14610a3c57610315565b80637d5b6c72116101815780637d5b6c72146109ea5780638340bbce146109f25780638b15a605146109fa57610315565b8063753d7563146109b457806378a89567146109da578063797daf70146109e257610315565b80633793ab3c1161026b57806345f2d10511610214578063635e99aa116101ee578063635e99aa1461097657806363858f2d1461097e57806373f8fd4b1461098657610315565b806345f2d10514610842578063590f940b1461087057806359999b411461095057610315565b80633fc24bba116102455780633fc24bba146106b9578063402c1794146106f35780634482394b1461071957610315565b80633793ab3c146106775780633a98ef39146106945780633b214a741461069c57610315565b80630cf20cc9116102cd5780631dafede0116102a75780631dafede0146106105780632582bf2a1461064957806327efc0861461066f57610315565b80630cf20cc914610509578063115b2d181461053757806315eb349e146105ed57610315565b8063044a0ca8116102fe578063044a0ca814610451578063086146d21461049e57806308ae4b0c146104a657610315565b8063013cf08b1461031a57806303e32fa114610437575b600080fd5b6103376004803603602081101561033057600080fd5b5035610c65565b604051808f6001600160a01b031681526020018e6001600160a01b031681526020018d6001600160a01b031681526020018c81526020018b81526020018a8152602001896001600160a01b03168152602001888152602001876001600160a01b0316815260200186815260200185815260200184815260200180602001838152602001828103825284818151815260200191508051906020019080838360005b838110156103ef5781810151838201526020016103d7565b50505050905090810190601f16801561041c5780820380516001836020036101000a031916815260200191505b509f5050505050505050505050505050505060405180910390f35b61043f610dc8565b60408051918252519081900360200190f35b61047d6004803603604081101561046757600080fd5b506001600160a01b038135169060200135610dce565b6040518082600281111561048d57fe5b815260200191505060405180910390f35b61043f610ee4565b6104cc600480360360208110156104bc57600080fd5b50356001600160a01b0316610f0c565b604080516001600160a01b0390971687526020870195909552858501939093529015156060850152608084015260a0830152519081900360c00190f35b6105356004803603604081101561051f57600080fd5b506001600160a01b038135169060200135610f4f565b005b61043f6004803603604081101561054d57600080fd5b6001600160a01b03823516919081019060408101602082013564010000000081111561057857600080fd5b82018360208201111561058a57600080fd5b803590602001918460018302840111640100000000831117156105ac57600080fd5b91908080601f016020809104026020016040519081016040528093929190818152602001838380828437600092019190915250929550610fcb945050505050565b6105356004803603604081101561060357600080fd5b508035906020013561119d565b61062d6004803603602081101561062657600080fd5b5035611288565b604080516001600160a01b039092168252519081900360200190f35b6105356004803603602081101561065f57600080fd5b50356001600160a01b03166112af565b61062d61154f565b6105356004803603602081101561068d57600080fd5b5035611555565b61043f6117e0565b61043f600480360360208110156106b257600080fd5b50356117e6565b6106df600480360360208110156106cf57600080fd5b50356001600160a01b0316611804565b604080519115158252519081900360200190f35b61062d6004803603602081101561070957600080fd5b50356001600160a01b0316611819565b6105356004803603606081101561072f57600080fd5b81019060208101813564010000000081111561074a57600080fd5b82018360208201111561075c57600080fd5b8035906020019184602083028401116401000000008311171561077e57600080fd5b91908080602002602001604051908101604052809392919081815260200183836020028082843760009201919091525092959493602081019350359150506401000000008111156107ce57600080fd5b8201836020820111156107e057600080fd5b8035906020019184602083028401116401000000008311171561080257600080fd5b9190808060200260200160405190810160405280939291908181526020018383602002808284376000920191909152509295505050503515159050611834565b61043f6004803603604081101561085857600080fd5b506001600160a01b0381358116916020013516611984565b61043f600480360361010081101561088757600080fd5b6001600160a01b038235811692602081013592604082013592606083013592608081013582169260a08201359260c0830135169190810190610100810160e08201356401000000008111156108db57600080fd5b8201836020820111156108ed57600080fd5b8035906020019184600183028401116401000000008311171561090f57600080fd5b91908080601f0160208091040260200160405190810160405280939291908181526020018383808284376000920191909152509295506119a1945050505050565b6105356004803603602081101561096657600080fd5b50356001600160a01b0316611e4a565b61043f612165565b61043f61216b565b61043f6004803603604081101561099c57600080fd5b506001600160a01b0381358116916020013516612171565b6106df600480360360208110156109ca57600080fd5b50356001600160a01b031661219c565b61043f6121b1565b61043f6121b7565b61043f6121bd565b61043f6121c3565b61043f6121c9565b6106df60048036036020811015610a1857600080fd5b50356121cf565b61053560048036036020811015610a3557600080fd5b50356121f6565b61053560048036036040811015610a5257600080fd5b508035906020013560ff1661292d565b61043f612e0f565b6106df60048036036020811015610a8057600080fd5b5035612e15565b61043f612ec4565b610aac60048036036020811015610aa557600080fd5b5035612eca565b604051808260c080838360005b83811015610ad1578181015183820152602001610ab9565b5050505090500191505060405180910390f35b61043f612f34565b61062d612f3a565b61043f612f49565b61053560048036036020811015610b1257600080fd5b50356001600160a01b0316612f4f565b61053560048036036020811015610b3857600080fd5b50356130cc565b6106df60048036036020811015610b5557600080fd5b50356001600160a01b03166132cb565b61053560048036036020811015610b7b57600080fd5b50356132e0565b61053560048036036020811015610b9857600080fd5b5035613532565b61062d613ba5565b61062d613bab565b61043f60048036036040811015610bc557600080fd5b6001600160a01b038235169190810190604081016020820135640100000000811115610bf057600080fd5b820183602082011115610c0257600080fd5b80359060200191846001830284011164010000000083111715610c2457600080fd5b91908080601f016020809104026020016040519081016040528093929190818152602001838380828437600092019190915250929550613bb1945050505050565b60146020528060005260406000206000915090508060000160009054906101000a90046001600160a01b0316908060010160009054906101000a90046001600160a01b0316908060020160009054906101000a90046001600160a01b0316908060030154908060040154908060050154908060060160009054906101000a90046001600160a01b0316908060070154908060080160009054906101000a90046001600160a01b03169080600901549080600a01549080600b01549080600d018054600181600116156101000203166002900480601f016020809104026020016040519081016040528092919081815260200182805460018160011615610100020316600290048015610db85780601f10610d8d57610100808354040283529160200191610db8565b820191906000526020600020905b815481529060010190602001808311610d9b57829003601f168201915b50505050509080600e015490508e565b60065481565b6001600160a01b03821660009081526012602052604081206003015460ff16610e3e576040805162461bcd60e51b815260206004820152601560248201527f6d656d62657220646f6573206e6f742065786973740000000000000000000000604482015290519081900360640190fd5b6015548210610e94576040805162461bcd60e51b815260206004820152601760248201527f70726f706f73616c20646f6573206e6f74206578697374000000000000000000604482015290519081900360640190fd5b6014600060158481548110610ea557fe5b6000918252602080832090910154835282810193909352604091820181206001600160a01b0387168252600f0190925290205460ff1690505b92915050565b6000610f07600154610f0160075442613d6390919063ffffffff16565b90613daa565b905090565b6012602052600090815260409020805460018201546002830154600384015460048501546005909501546001600160a01b03909416949293919260ff9091169186565b60005460ff16610fa6576040805162461bcd60e51b815260206004820152601f60248201527f5265656e7472616e637947756172643a207265656e7472616e742063616c6c00604482015290519081900360640190fd5b6000805460ff19169055610fba8282613dcc565b50506000805460ff19166001179055565b6000805460ff16611023576040805162461bcd60e51b815260206004820152601f60248201527f5265656e7472616e637947756172643a207265656e7472616e742063616c6c00604482015290519081900360640190fd5b6000805460ff191690556110356149fa565b506001600160a01b03808416600090815260126020908152604091829020825160c081018452815490941684526001810154918401829052600281015492840192909252600382015460ff16151560608401526004820154608084015260059091015460a08301521515806110ae575060008160400151115b6110e95760405162461bcd60e51b815260040180806020018281038252602f815260200180614d27602f913960400191505060405180910390fd5b6001600160a01b038416600090815260126020526040902060050154156111415760405162461bcd60e51b8152600401808060200182810382526021815260200180614c986021913960400191505060405180910390fd5b611149614a3b565b600160a082015261116285600080808080808b89613f7b565b50506009546000805460ff191660011790557fffffffffffffffffffffffffffffffffffffffffffffffffffffffffffffffff019392505050565b60005460ff166111f4576040805162461bcd60e51b815260206004820152601f60248201527f5265656e7472616e637947756172643a207265656e7472616e742063616c6c00604482015290519081900360640190fd5b6000805460ff191681553381526012602052604090206001015415158061122c57503360009081526012602052604090206002015415155b61127d576040805162461bcd60e51b815260206004820152600c60248201527f6e6f742061206d656d6265720000000000000000000000000000000000000000604482015290519081900360640190fd5b610fba3383836141e1565b600f818154811061129557fe5b6000918252602090912001546001600160a01b0316905081565b60005460ff16611306576040805162461bcd60e51b815260206004820152601f60248201527f5265656e7472616e637947756172643a207265656e7472616e742063616c6c00604482015290519081900360640190fd5b6000805460ff1916815533815260126020526040902060010154611371576040805162461bcd60e51b815260206004820152601160248201527f6e6f742061207368617265686f6c646572000000000000000000000000000000604482015290519081900360640190fd5b6001600160a01b0381166113cc576040805162461bcd60e51b815260206004820152601a60248201527f6e657744656c65676174654b65792063616e6e6f742062652030000000000000604482015290519081900360640190fd5b6001600160a01b03811633146114a1576001600160a01b03811660009081526012602052604090206003015460ff16156114375760405162461bcd60e51b8152600401808060200182810382526021815260200180614e2e6021913960400191505060405180910390fd5b6001600160a01b03808216600090815260136020908152604080832054909316825260129052206003015460ff16156114a15760405162461bcd60e51b8152600401808060200182810382526027815260200180614b946027913960400191505060405180910390fd5b33600081815260126020908152604080832080546001600160a01b0390811685526013845282852080547fffffffffffffffffffffffff000000000000000000000000000000000000000090811690915590871680865294839020805482168717905581541684178155815193845290519093927fde7b64a369e10562cc2e71f0f1f944eaf144b75fead6ecb51fac9c4dd693488592908290030190a250506000805460ff19166001179055565b61babe81565b60005460ff166115ac576040805162461bcd60e51b815260206004820152601f60248201527f5265656e7472616e637947756172643a207265656e7472616e742063616c6c00604482015290519081900360640190fd5b6000805460ff191690556115bf816144f6565b6000601582815481106115ce57fe5b60009182526020808320919091015480835260149091526040909120600c81015491925090640100000000900460ff1661164f576040805162461bcd60e51b815260206004820152601c60248201527f6d75737420626520612077686974656c6973742070726f706f73616c00000000604482015290519081900360640190fd5b600c810180547fffffffffffffffffffffffffffffffffffffffffffffffffffffffffffff00ff166101001790556000611688846146c8565b600f549091506101901161169a575060005b801561175f57600c820180547fffffffffffffffffffffffffffffffffffffffffffffffffffffffffff00ffff16620100001790556006820180546001600160a01b039081166000908152600e60205260408120805460ff191660019081179091559254600f805494850181559091527f8d1108e10bcb7c27dddfc02ed9d693a074039d026cf4ea4240b40f7d581ac8029092018054929091167fffffffffffffffffffffffff00000000000000000000000000000000000000009092169190911790555b60068201546001600160a01b039081166000908152601060205260409020805460ff1916905560028301546117949116614764565b6040805182151581529051849186917f2094fc13d2ecb0acd6861e82bd006c7e5ab6f312ec0c6cdfe3d1a01ee54d885a9181900360200190a350506000805460ff191660011790555050565b600a5481565b601581815481106117f357fe5b600091825260209091200154905081565b60116020526000908152604090205460ff1681565b6013602052600090815260409020546001600160a01b031681565b60005460ff1661188b576040805162461bcd60e51b815260206004820152601f60248201527f5265656e7472616e637947756172643a207265656e7472616e742063616c6c00604482015290519081900360640190fd5b6000805460ff1916905581518351146118d55760405162461bcd60e51b8152600401808060200182810382526032815260200180614d7e6032913960400191505060405180910390fd5b60005b83518110156119715760008382815181106118ef57fe5b60200260200101519050821561194b57336000908152600d60205260408120865190919087908590811061191f57fe5b60200260200101516001600160a01b03166001600160a01b031681526020019081526020016000205490505b61196885838151811061195a57fe5b602002602001015182613dcc565b506001016118d8565b50506000805460ff191660011790555050565b600d60209081526000928352604080842090915290825290205481565b6000805460ff166119f9576040805162461bcd60e51b815260206004820152601f60248201527f5265656e7472616e637947756172643a207265656e7472616e742063616c6c00604482015290519081900360640190fd5b6000805460ff19169055670de0b6b3a7640000611a1689896147b3565b1115611a69576040805162461bcd60e51b815260206004820152601960248201527f746f6f206d616e79207368617265732072657175657374656400000000000000604482015290519081900360640190fd5b6001600160a01b0385166000908152600e602052604090205460ff16611ad6576040805162461bcd60e51b815260206004820152601f60248201527f74726962757465546f6b656e206973206e6f742077686974656c697374656400604482015290519081900360640190fd5b6001600160a01b0383166000908152600e602052604090205460ff16611b43576040805162461bcd60e51b815260206004820152601a60248201527f7061796d656e74206973206e6f742077686974656c6973746564000000000000604482015290519081900360640190fd5b6001600160a01b038916611b9e576040805162461bcd60e51b815260206004820152601560248201527f6170706c6963616e742063616e6e6f7420626520300000000000000000000000604482015290519081900360640190fd5b6001600160a01b03891661dead14801590611bc457506001600160a01b03891661beef14155b8015611bdb57506001600160a01b03891661babe14155b611c165760405162461bcd60e51b8152600401808060200182810382526024815260200180614c2d6024913960400191505060405180910390fd5b6001600160a01b03891660009081526012602052604090206005015415611c6e5760405162461bcd60e51b8152600401808060200182810382526025815260200180614de66025913960400191505060405180910390fd5b600086118015611cb357506001600160a01b03851660009081527fdc7fafdc41998a74ecacb8f8bd877011aba1f1d03a3a0d37a2e7879a393b1d6a6020526040902054155b15611cf95760c8600c5410611cf95760405162461bcd60e51b8152600401808060200182810382526047815260200180614c516047913960600191505060405180910390fd5b604080517f23b872dd0000000000000000000000000000000000000000000000000000000081523360048201523060248201526044810188905290516001600160a01b038716916323b872dd9160648083019260209291908290030181600087803b158015611d6757600080fd5b505af1158015611d7b573d6000803e3d6000fd5b505050506040513d6020811015611d9157600080fd5b5051611de4576040805162461bcd60e51b815260206004820152601d60248201527f7472696275746520746f6b656e207472616e73666572206661696c6564000000604482015290519081900360640190fd5b611df161beef8688614814565b611df9614a3b565b611e0a8a8a8a8a8a8a8a8a89613f7b565b50506009547fffffffffffffffffffffffffffffffffffffffffffffffffffffffffffffffff016000805460ff1916600117905598975050505050505050565b336000908152601360209081526040808320546001600160a01b031683526012909152902060010154611ec4576040805162461bcd60e51b815260206004820152600e60248201527f6e6f7420612064656c6567617465000000000000000000000000000000000000604482015290519081900360640190fd5b60005460ff16611f1b576040805162461bcd60e51b815260206004820152601f60248201527f5265656e7472616e637947756172643a207265656e7472616e742063616c6c00604482015290519081900360640190fd5b6000805460ff191681556001600160a01b0382168082527fa30f7a7832bd8a7a8daa3a3f5b7a6f7cec6a2fbb1a121fa5b76520e44736771c602090815260408084205481517f70a082310000000000000000000000000000000000000000000000000000000081523060048201529151611fe794919391926370a08231926024808301939192829003018186803b158015611fb557600080fd5b505afa158015611fc9573d6000803e3d6000fd5b505050506040513d6020811015611fdf57600080fd5b505190613d63565b90506000811161203e576040805162461bcd60e51b815260206004820152601460248201527f6e6f20746f6b656e7320746f20636f6c6c656374000000000000000000000000604482015290519081900360640190fd5b6001600160a01b0382166000908152600e602052604090205460ff166120955760405162461bcd60e51b8152600401808060200182810382526024815260200180614cdc6024913960400191505060405180910390fd5b6001600160a01b03821660009081527fdc7fafdc41998a74ecacb8f8bd877011aba1f1d03a3a0d37a2e7879a393b1d6a60205260409020546121085760405162461bcd60e51b8152600401808060200182810382526036815260200180614db06036913960400191505060405180910390fd5b61211561dead8383614814565b6040805182815290516001600160a01b038416917f9381e53ffdc9733a6783a6f8665be3f89c231bb81a6771996ed553b4e75c0fe3919081900360200190a250506000805460ff19166001179055565b600b5481565b60035481565b6001600160a01b039182166000908152600d6020908152604080832093909416825291909152205490565b600e6020526000908152604090205460ff1681565b600f5490565b60155490565b60075481565b60025481565b60045481565b60006121e6600254836147b390919063ffffffff16565b6121ee610ee4565b101592915050565b60005460ff1661224d576040805162461bcd60e51b815260206004820152601f60248201527f5265656e7472616e637947756172643a207265656e7472616e742063616c6c00604482015290519081900360640190fd5b6000805460ff19168155338152601360209081526040808320546001600160a01b0316835260129091529020600101546122ce576040805162461bcd60e51b815260206004820152600e60248201527f6e6f7420612064656c6567617465000000000000000000000000000000000000604482015290519081900360640190fd5b60085460048054604080517f23b872dd00000000000000000000000000000000000000000000000000000000815233938101939093523060248401526044830191909152516001600160a01b03909216916323b872dd916064808201926020929091908290030181600087803b15801561234757600080fd5b505af115801561235b573d6000803e3d6000fd5b505050506040513d602081101561237157600080fd5b50516123ae5760405162461bcd60e51b8152600401808060200182810382526026815260200180614eea6026913960400191505060405180910390fd5b6008546004546123cd9161beef916001600160a01b0390911690614814565b600081815260146020526040902060018101546001600160a01b031661243a576040805162461bcd60e51b815260206004820181905260248201527f70726f706f73616c206d7573742068617665206265656e2070726f706f736564604482015290519081900360640190fd5b600c81015460ff161561247e5760405162461bcd60e51b8152600401808060200182810382526023815260200180614e0b6023913960400191505060405180910390fd5b600c8101546301000000900460ff16156124df576040805162461bcd60e51b815260206004820152601b60248201527f70726f706f73616c20686173206265656e2063616e63656c6c65640000000000604482015290519081900360640190fd5b80546001600160a01b0316600090815260126020526040902060050154156125385760405162461bcd60e51b8152600401808060200182810382526025815260200180614de66025913960400191505060405180910390fd5b60008160050154118015612585575060068101546001600160a01b031660009081527fdc7fafdc41998a74ecacb8f8bd877011aba1f1d03a3a0d37a2e7879a393b1d6a6020526040902054155b156125cb5760c8600c54106125cb5760405162461bcd60e51b8152600401808060200182810382526048815260200180614ea26048913960600191505060405180910390fd5b600c810154640100000000900460ff161561271c5760068101546001600160a01b03166000908152600e602052604090205460ff161561263c5760405162461bcd60e51b8152600401808060200182810382526029815260200180614f556029913960400191505060405180910390fd5b60068101546001600160a01b031660009081526010602052604090205460ff16156126ae576040805162461bcd60e51b815260206004820152601d60248201527f616c72656164792070726f706f73656420746f2077686974656c697374000000604482015290519081900360640190fd5b600f54610190116126f05760405162461bcd60e51b8152600401808060200182810382526027815260200180614d006027913960400191505060405180910390fd5b60068101546001600160a01b03166000908152601060205260409020805460ff191660011790556127c6565b600c81015465010000000000900460ff16156127c65780546001600160a01b031660009081526011602052604090205460ff16156127a1576040805162461bcd60e51b815260206004820152601860248201527f616c72656164792070726f706f73656420746f206b69636b0000000000000000604482015290519081900360640190fd5b80546001600160a01b03166000908152601160205260409020805460ff191660011790555b600061282f60016128296127d8610ee4565b6015541561282157601580546014916000916127f5906001613d63565b815481106127ff57fe5b9060005260206000200154815260200190815260200160002060090154612824565b60005b614872565b906147b3565b60098301819055336000818152601360205260408120546002860180547fffffffffffffffffffffffff0000000000000000000000000000000000000000166001600160a01b039092169182179055600c8601805460ff19166001908117909155601580548083018255938190527f55f448fdea98c4d29eb340757ef0a66cd03dbb9538908a6a81d96026b71ec4759093018890559154939450928392917f2a383a979381335e3eb401ac01dd8083e024ff0256bf5338456ffc0063390bbd9188916128fb9190613d63565b604080519283526020830191909152818101879052519081900360600190a350506000805460ff191660011790555050565b60005460ff16612984576040805162461bcd60e51b815260206004820152601f60248201527f5265656e7472616e637947756172643a207265656e7472616e742063616c6c00604482015290519081900360640190fd5b6000805460ff19168155338152601360209081526040808320546001600160a01b031683526012909152902060010154612a05576040805162461bcd60e51b815260206004820152600e60248201527f6e6f7420612064656c6567617465000000000000000000000000000000000000604482015290519081900360640190fd5b336000908152601360209081526040808320546001600160a01b031680845260129092529091206015548410612a82576040805162461bcd60e51b815260206004820152601760248201527f70726f706f73616c20646f6573206e6f74206578697374000000000000000000604482015290519081900360640190fd5b60006014600060158781548110612a9557fe5b90600052602060002001548152602001908152602001600020905060038460ff1610612b08576040805162461bcd60e51b815260206004820152601360248201527f6d757374206265206c657373207468616e203300000000000000000000000000604482015290519081900360640190fd5b60008460ff166002811115612b1957fe5b90508160090154612b28610ee4565b1015612b7b576040805162461bcd60e51b815260206004820152601d60248201527f766f74696e6720706572696f6420686173206e6f742073746172746564000000604482015290519081900360640190fd5b612b8882600901546121cf565b15612bc45760405162461bcd60e51b8152600401808060200182810382526022815260200180614f106022913960400191505060405180910390fd5b6001600160a01b0384166000908152600f8301602052604081205460ff166002811115612bed57fe5b14612c3f576040805162461bcd60e51b815260206004820152601860248201527f6d656d6265722068617320616c726561647920766f7465640000000000000000604482015290519081900360640190fd5b6001816002811115612c4d57fe5b1480612c6457506002816002811115612c6257fe5b145b612cb5576040805162461bcd60e51b815260206004820152601d60248201527f766f7465206d7573742062652065697468657220596573206f72204e6f000000604482015290519081900360640190fd5b6001600160a01b0384166000908152600f830160205260409020805482919060ff19166001836002811115612ce657fe5b02179055506001816002811115612cf957fe5b1415612d5f576001830154600a830154612d12916147b3565b600a8301556004830154861115612d2b57600483018690555b600e820154600b54600a54612d3f916147b3565b1115612d5a57600b54600a54612d54916147b3565b600e8301555b612d8c565b6002816002811115612d6d57fe5b1415612d8c576001830154600b830154612d86916147b3565b600b8301555b836001600160a01b0316336001600160a01b0316877f804f03797630bf8b8a46b9371608abbf7d78a20df720e477bab641957ca68a2060158a81548110612dcf57fe5b906000526020600020015489604051808381526020018260ff1681526020019250505060405180910390a450506000805460ff1916600117905550505050565b600c5481565b6015546000908210612e6e576040805162461bcd60e51b815260206004820152601760248201527f70726f706f73616c20646f6573206e6f74206578697374000000000000000000604482015290519081900360640190fd5b6014600060158481548110612e7f57fe5b90600052602060002001548152602001908152602001600020600c01600160068110612ea757fe5b602081049091015460ff601f9092166101000a9004169050919050565b60055481565b612ed2614a3b565b600082815260146020526040808220815160c081019283905292600c909101916006918390855b825461010083900a900460ff161515815260206001928301818104948501949093039092029101808411612ef9575094979650505050505050565b60015481565b6008546001600160a01b031681565b60095481565b60005460ff16612fa6576040805162461bcd60e51b815260206004820152601f60248201527f5265656e7472616e637947756172643a207265656e7472616e742063616c6c00604482015290519081900360640190fd5b6000805460ff191681556001600160a01b0382168152601260205260409020600581015461301b576040805162461bcd60e51b815260206004820152601660248201527f6d656d626572206d75737420626520696e206a61696c00000000000000000000604482015290519081900360640190fd5b6000816002015411613074576040805162461bcd60e51b815260206004820152601a60248201527f6d656d626572206d757374206861766520736f6d65206c6f6f74000000000000604482015290519081900360640190fd5b6130818160040154612e15565b6130bc5760405162461bcd60e51b815260040180806020018281038252604d815260200180614bbb604d913960600191505060405180910390fd5b610fba82600083600201546141e1565b60005460ff16613123576040805162461bcd60e51b815260206004820152601f60248201527f5265656e7472616e637947756172643a207265656e7472616e742063616c6c00604482015290519081900360640190fd5b6000805460ff19168155818152601460205260409020600c81015460ff161561317d5760405162461bcd60e51b8152600401808060200182810382526023815260200180614e0b6023913960400191505060405180910390fd5b600c8101546301000000900460ff16156131c85760405162461bcd60e51b8152600401808060200182810382526023815260200180614f326023913960400191505060405180910390fd5b60018101546001600160a01b03163314613229576040805162461bcd60e51b815260206004820152601e60248201527f736f6c656c79207468652070726f706f7365722063616e2063616e63656c0000604482015290519081900360640190fd5b600c810180547fffffffffffffffffffffffffffffffffffffffffffffffffffffffff00ffffff1663010000001790556001810154600682015460058301546132849261beef926001600160a01b0391821692911690614889565b60408051338152905183917fc215fed6680bb02d323dc3f8b8f85241572607538426059c9232601bd293c3be919081900360200190a250506000805460ff19166001179055565b60106020526000908152604090205460ff1681565b60005460ff16613337576040805162461bcd60e51b815260206004820152601f60248201527f5265656e7472616e637947756172643a207265656e7472616e742063616c6c00604482015290519081900360640190fd5b6000805460ff1916905561334a816144f6565b60006015828154811061335957fe5b60009182526020808320919091015480835260149091526040909120600c8101549192509065010000000000900460ff166133db576040805162461bcd60e51b815260206004820152601d60248201527f6d7573742062652061206775696c64206b69636b2070726f706f73616c000000604482015290519081900360640190fd5b600c810180547fffffffffffffffffffffffffffffffffffffffffffffffffffffffffffff00ff166101001790556000613414846146c8565b905080156134b457600c820180547fffffffffffffffffffffffffffffffffffffffffffffffffffffffffff00ffff166201000017905581546001600160a01b03166000908152601260205260409020600581018590556001810154600282015461347e916147b3565b60028201556001810154600a5461349491613d63565b600a556001810154600b546134a8916147b3565b600b5560006001909101555b81546001600160a01b039081166000908152601160205260409020805460ff1916905560028301546134e69116614764565b6040805182151581529051849186917f0e347d00d3e9e6cdff9e6c09092c9ff1bd448f9b3dfb7091b30939ec5e7a3c739181900360200190a350506000805460ff191660011790555050565b60005460ff16613589576040805162461bcd60e51b815260206004820152601f60248201527f5265656e7472616e637947756172643a207265656e7472616e742063616c6c00604482015290519081900360640190fd5b6000805460ff1916905561359c816144f6565b6000601582815481106135ab57fe5b60009182526020808320919091015480835260149091526040909120600c81015491925090640100000000900460ff161580156135f65750600c81015465010000000000900460ff16155b613647576040805162461bcd60e51b815260206004820152601b60248201527f6d7573742062652061207374616e646172642070726f706f73616c0000000000604482015290519081900360640190fd5b600c810180547fffffffffffffffffffffffffffffffffffffffffffffffffffffffffffff00ff166101001790556000613680846146c8565b9050670de0b6b3a76400006136b283600401546128298560030154612829600b54600a546147b390919063ffffffff16565b11156136bc575060005b60088201546001600160a01b031660009081527fdc7fafdc41998a74ecacb8f8bd877011aba1f1d03a3a0d37a2e7879a393b1d6a602052604090205460078301541115613707575060005b60008260050154118015613754575060068201546001600160a01b031660009081527fdc7fafdc41998a74ecacb8f8bd877011aba1f1d03a3a0d37a2e7879a393b1d6a6020526040902054155b8015613763575060c8600c5410155b1561376c575060005b8015613b1757600c820180547fffffffffffffffffffffffffffffffffffffffffffffffffffffffffff00ffff166201000017905581546001600160a01b031660009081526012602052604090206003015460ff161561385357600382015482546001600160a01b03166000908152601260205260409020600101546137f1916147b3565b82546001600160a01b03908116600090815260126020526040808220600101939093556004850154855490921681529190912060020154613831916147b3565b82546001600160a01b03166000908152601260205260409020600201556139c6565b81546001600160a01b03908116600090815260136020908152604080832054909316825260129052206003015460ff16156138ef5781546001600160a01b0390811660009081526013602090815260408083205490931680835283832080547fffffffffffffffffffffffff00000000000000000000000000000000000000009081168317909155601290925292909120805490911690911790555b6040805160c08101825283546001600160a01b0390811680835260038087015460208086019182526004808a0154878901908152600160608901818152600060808b0181815260a08c01828152998252601287528c82209b518c54908c167fffffffffffffffffffffffff0000000000000000000000000000000000000000918216178d559751938c0193909355925160028b015551958901805496151560ff1990971696909617909555935190870155925160059095019490945586549092168083526013909152929020805490911690911790555b6003820154600a546139d7916147b3565b600a556004820154600b546139eb916147b3565b600b5560068201546001600160a01b031660009081527fdc7fafdc41998a74ecacb8f8bd877011aba1f1d03a3a0d37a2e7879a393b1d6a6020526040902054158015613a3b575060008260050154115b15613a4a57600c805460010190555b60068201546005830154613a6f9161beef9161dead916001600160a01b031690614889565b815460088301546007840154613a979261dead926001600160a01b0391821692911690614889565b60088201546001600160a01b031660009081527fdc7fafdc41998a74ecacb8f8bd877011aba1f1d03a3a0d37a2e7879a393b1d6a6020526040902054158015613ae4575060008260070154115b15613b1257600c80547fffffffffffffffffffffffffffffffffffffffffffffffffffffffffffffffff0190555b613b42565b600182015460068301546005840154613b429261beef926001600160a01b0391821692911690614889565b6002820154613b59906001600160a01b0316614764565b6040805182151581529051849186917f86f74240ecee9e4230d26ff92e17fee978460d9c0f78f5c88b2864c9e7a494279181900360200190a350506000805460ff191660011790555050565b61beef81565b61dead81565b6000805460ff16613c09576040805162461bcd60e51b815260206004820152601f60248201527f5265656e7472616e637947756172643a207265656e7472616e742063616c6c00604482015290519081900360640190fd5b6000805460ff191690556001600160a01b038316613c6e576040805162461bcd60e51b815260206004820152601a60248201527f6d7573742070726f7669646520746f6b656e2061646472657373000000000000604482015290519081900360640190fd5b6001600160a01b0383166000908152600e602052604090205460ff1615613cc65760405162461bcd60e51b8152600401808060200182810382526029815260200180614f556029913960400191505060405180910390fd5b600f5461019011613d085760405162461bcd60e51b8152600401808060200182810382526026815260200180614e4f6026913960400191505060405180910390fd5b613d10614a3b565b60016080820152613d2960008080808881808a89613f7b565b50506009547fffffffffffffffffffffffffffffffffffffffffffffffffffffffffffffffff016000805460ff1916600117905592915050565b600082821115613da45760405162461bcd60e51b815260040180806020018281038252602d815260200180614e75602d913960400191505060405180910390fd5b50900390565b6000808211613db857600080fd5b6000828481613dc357fe5b04949350505050565b336000908152600d602090815260408083206001600160a01b0386168452909152902054811115613e44576040805162461bcd60e51b815260206004820152601460248201527f696e73756666696369656e742062616c616e6365000000000000000000000000604482015290519081900360640190fd5b613e4f3383836148a5565b604080517fa9059cbb0000000000000000000000000000000000000000000000000000000081523360048201526024810183905290516001600160a01b0384169163a9059cbb9160448083019260209291908290030181600087803b158015613eb757600080fd5b505af1158015613ecb573d6000803e3d6000fd5b505050506040513d6020811015613ee157600080fd5b5051613f34576040805162461bcd60e51b815260206004820152600f60248201527f7472616e73666572206661696c65640000000000000000000000000000000000604482015290519081900360640190fd5b604080516001600160a01b038416815260208101839052815133927f9b1bfa7fa9ee420a16e124f794c35ac9f90472acc99140eb2f6447c714cad8eb928290030190a25050565b60098054600090815260146020526040812080546001600160a01b03808e167fffffffffffffffffffffffff000000000000000000000000000000000000000092831617835560018301805483163317905560028301805483169055600383018d9055600483018c9055600583018b9055600680840180548c8416908516179055600784018a9055600884018054928a169290931691909117909155928101829055600a8101829055600b8101919091559061403d90600c8301908490614a59565b50825161405390600d8301906020860190614aeb565b50600081600e0181905550600060136000336001600160a01b03166001600160a01b0316815260200190815260200160002060009054906101000a90046001600160a01b03169050806001600160a01b0316336001600160a01b03168c6001600160a01b03167fa763e0f5e4f4e33a3397b4ba22677c9b6fd2075ed6504596333006ff2f3e38748d8d8d8d8d8d8d8d600954604051808a8152602001898152602001888152602001876001600160a01b03168152602001868152602001856001600160a01b031681526020018060200184600660200280838360005b8381101561414757818101518382015260200161412f565b50505050905001838152602001828103825285818151815260200191508051906020019080838360005b83811015614189578181015183820152602001614171565b50505050905090810190601f1680156141b65780820380516001836020036101000a031916815260200191505b509a505050505050505050505060405180910390a45050600980546001019055505050505050505050565b60006141fa600b54600a546147b390919063ffffffff16565b6001600160a01b038516600090815260126020526040902060018101549192509084111561426f576040805162461bcd60e51b815260206004820152601360248201527f696e73756666696369656e742073686172657300000000000000000000000000604482015290519081900360640190fd5b82816002015410156142c8576040805162461bcd60e51b815260206004820152601160248201527f696e73756666696369656e74206c6f6f74000000000000000000000000000000604482015290519081900360640190fd5b6142d58160040154612e15565b6143105760405162461bcd60e51b815260040180806020018281038252604d815260200180614bbb604d913960600191505060405180910390fd5b600061431c85856147b3565b600183015490915061432e9086613d63565b600183015560028201546143429085613d63565b6002830155600a546143549086613d63565b600a55600b546143649085613d63565b600b5560005b600f548110156144b35761dead6000908152600d602052600f80546143e4917fdc7fafdc41998a74ecacb8f8bd877011aba1f1d03a3a0d37a2e7879a393b1d6a91849190869081106143b857fe5b60009182526020808320909101546001600160a01b031683528201929092526040019020548487614905565b905080156144aa5761dead6000908152600d602052600f805483927fdc7fafdc41998a74ecacb8f8bd877011aba1f1d03a3a0d37a2e7879a393b1d6a9290918690811061442d57fe5b60009182526020808320909101546001600160a01b0390811684528382019490945260409283018220805495909503909455918b168252600d909252908120600f8054849391908690811061447e57fe5b60009182526020808320909101546001600160a01b031683528201929092526040019020805490910190555b5060010161436a565b506040805186815260208101869052815133927fcad1a1c68982832d9abc314de8a1e5d5e8c81b0588961e360766736d10c3be1a928290030190a2505050505050565b601554811061454c576040805162461bcd60e51b815260206004820152601760248201527f70726f706f73616c20646f6573206e6f74206578697374000000000000000000604482015290519081900360640190fd5b6000601460006015848154811061455f57fe5b90600052602060002001548152602001908152602001600020905061459960035461282960025484600901546147b390919063ffffffff16565b6145a1610ee4565b10156145de5760405162461bcd60e51b8152600401808060200182810382526025815260200180614c086025913960400191505060405180910390fd5b600c810154610100900460ff16156146275760405162461bcd60e51b8152600401808060200182810382526023815260200180614f7e6023913960400191505060405180910390fd5b8115806146895750601460006015614640856001613d63565b8154811061464a57fe5b90600052602060002001548152602001908152602001600020600c0160016006811061467257fe5b602081049091015460ff601f9092166101000a9004165b6146c45760405162461bcd60e51b8152600401808060200182810382526023815260200180614cb96023913960400191505060405180910390fd5b5050565b60008060146000601585815481106146dc57fe5b90600052602060002001548152602001908152602001600020905080600b015481600a015411915080600e015461472c600554614726600b54600a546147b390919063ffffffff16565b906149a1565b101561473757600091505b80546001600160a01b03166000908152601260205260409020600501541561475e57600091505b50919050565b6008546006546147839161beef9133916001600160a01b031690614889565b6008546006546004546147b09261beef9285926001600160a01b03909216916147ab91613d63565b614889565b50565b60008282018381101561480d576040805162461bcd60e51b815260206004820152601c60248201527f75696e74206f766572666c6f77207768696c65206164646974696f6e00000000604482015290519081900360640190fd5b9392505050565b6001600160a01b039283166000908152600d602090815260408083209490951682529283528381208054830190557fa30f7a7832bd8a7a8daa3a3f5b7a6f7cec6a2fbb1a121fa5b76520e44736771c90925291902080549091019055565b600081831015614882578161480d565b5090919050565b6148948483836148a5565b61489f838383614814565b50505050565b6001600160a01b039283166000908152600d60209081526040808320949095168252928352838120805483900390557fa30f7a7832bd8a7a8daa3a3f5b7a6f7cec6a2fbb1a121fa5b76520e44736771c9092529190208054919091039055565b600081614959576040805162461bcd60e51b815260206004820152601c60248201527f746f74616c207368617265732073686f756c64206e6f74206265203000000000604482015290519081900360640190fd5b836149665750600061480d565b8383028385828161497357fe5b04141561498c5782818161498357fe5b0491505061480d565b8383868161499657fe5b040295945050505050565b6000826149b057506000610ede565b828202828482816149bd57fe5b041461480d5760405162461bcd60e51b8152600401808060200182810382526028815260200180614d566028913960400191505060405180910390fd5b6040518060c0016040528060006001600160a01b03168152602001600081526020016000815260200160001515815260200160008152602001600081525090565b6040518060c001604052806006906020820280368337509192915050565b600183019183908215614adb5791602002820160005b83821115614aac57835183826101000a81548160ff0219169083151502179055509260200192600101602081600001049283019260010302614a6f565b8015614ad95782816101000a81549060ff0219169055600101602081600001049283019260010302614aac565b505b50614ae7929150614b65565b5090565b828054600181600116156101000203166002900490600052602060002090601f016020900481019282601f10614b2c57805160ff1916838001178555614b59565b82800160010185558215614b59579182015b82811115614b59578251825591602001919060010190614b3e565b50614ae7929150614b7e565b5b80821115614ae757805460ff19168155600101614b66565b5b80821115614ae75760008155600101614b7f56fe63616e6e6f74206f7665727772697465206578697374696e672064656c6567617465206b65797363616e6e6f7420726167657175697420756e74696c206869676865737420696e6465782070726f706f73616c206d656d62657220766f74656420594553206f6e2069732070726f63657373656470726f706f73616c206973206e6f7420726561647920746f2062652070726f6365737365646170706c6963616e7420616464726573732063616e6e6f7420626520726573657276656463616e6e6f74207375626d6974206d6f726520747269627574652070726f706f73616c7320666f72206e657720746f6b656e73202d206775696c6462616e6b2069732066756c6c6d656d626572206d757374206e6f7420616c7265616479206265206a61696c656470726576696f75732070726f706f73616c206d7573742062652070726f636573736564746f6b656e20746f20636f6c6c656374206d7573742062652077686974656c697374656463616e6e6f742073706f6e736f72206d6f72652077686974656c6973742070726f706f73616c736d656d626572206d7573742068617665206174206c65617374206f6e65207368617265206f72206f6e65206c6f6f7475696e74206f766572666c6f77206465746563746564207768696c65206d756c7469706c79696e67746f6b656e7320616e6420616d6f756e747320617272617973206d757374206265206d61746368696e67206c656e67746873746f6b656e20746f20636f6c6c656374206d7573742068617665206e6f6e2d7a65726f206775696c642062616e6b2062616c616e636570726f706f73616c206170706c6963616e74206d757374206e6f74206265206a61696c656470726f706f73616c2068617320616c7265616479206265656e2073706f6e736f72656463616e6e6f74206f7665727772697465206578697374696e67206d656d6265727363616e6e6f74207375626d6974206d6f72652077686974656c6973742070726f706f73616c73737562737472616374696f6e20776f756c64206c65616420746f2061206e65676174697665206e756d6265722163616e6e6f742073706f6e736f72206d6f726520747269627574652070726f706f73616c7320666f72206e657720746f6b656e73202d206775696c6462616e6b2069732066756c6c70726f706f73616c206465706f73697420746f6b656e207472616e73666572206661696c656470726f706f73616c20766f74696e6720706572696f6420686173206578706972656470726f706f73616c2068617320616c7265616479206265656e2063616e63656c6c656463616e6e6f7420616c726561647920686176652077686974656c69737465642074686520746f6b656e70726f706f73616c2068617320616c7265616479206265656e2070726f636573736564a2646970667358221220bf640a87fbe858c3823d12927d406c14345c8a1325ee191085493c9eb50aef5064736f6c634300070000335f766f74696e67506572696f644c656e6774682065786365656473206c696d69745f70726f706f73616c4465706f7369742063616e6e6f7420626520736d616c6c6572207468616e205f70726f63657373696e67526577617264a2646970667358221220f857296ea0e6d2525ec6b630a1d65f276607abf8ecd0fbf4eae9c287cf3560f564736f6c63430007000033",
  "immutableReferences": {},
  "source": "pragma solidity ^0.7.0;\n// SPDX-License-Identifier: MIT\nimport \"./Moloch.sol\";\n\ncontract MolochSummoner {\n\n    Moloch private M;\n\n    address[] public Molochs;\n\n    event Summoned(address indexed M, address indexed _summoner);\n\n    function summonMoloch(\n        address _summoner,\n        address[] memory _approvedTokens,\n        uint256 _periodDuration,\n        uint256 _votingPeriodLength,\n        uint256 _gracePeriodLength,\n        uint256 _proposalDeposit,\n        uint256 _dilutionBound,\n        uint256 _processingReward) public {\n\n        M = new Moloch(\n            _summoner,\n            _approvedTokens,\n            _periodDuration,\n            _votingPeriodLength,\n            _gracePeriodLength,\n            _proposalDeposit,\n            _dilutionBound,\n            _processingReward);\n\n        Molochs.push(address(M));\n\n        emit Summoned(address(M), _summoner);\n\n    }\n\n    function getMolochCount() public view returns (uint256 MolochCount) {\n        return Molochs.length;\n    }\n}\n",
  "sourcePath": "/Users/davidroon/projects/moloch/contracts/MolochSummoner.sol",
  "compiler": {
    "name": "solc",
    "version": "0.7.0+commit.9e61f92b.Emscripten.clang"
  },
  "schemaVersion": "3.2.3",
  "updatedAt": "2020-09-17T11:52:26.471Z",
  "devdoc": {
    "kind": "dev",
    "methods": {},
    "version": 1
  },
  "userdoc": {
    "kind": "user",
    "methods": {},
    "version": 1
  }
}