{
  "contractName": "OffchainVotingContract",
  "abi": [
    {
      "inputs": [
        {
          "internalType": "address",
          "name": "dao",
          "type": "address"
        },
        {
          "internalType": "uint256",
          "name": "votingPeriod",
          "type": "uint256"
        }
      ],
      "name": "registerDao",
      "outputs": [],
      "stateMutability": "nonpayable",
      "type": "function"
    },
    {
      "inputs": [
        {
          "internalType": "contract Registry",
          "name": "dao",
          "type": "address"
        },
        {
          "internalType": "uint256",
          "name": "proposalId",
          "type": "uint256"
        }
      ],
      "name": "voteResult",
      "outputs": [
        {
          "internalType": "uint256",
          "name": "state",
          "type": "uint256"
        }
      ],
      "stateMutability": "view",
      "type": "function"
    },
    {
      "inputs": [
        {
          "internalType": "contract Registry",
          "name": "dao",
          "type": "address"
        },
        {
          "internalType": "uint256",
          "name": "proposalId",
          "type": "uint256"
        },
        {
          "internalType": "uint256",
          "name": "nbYes",
          "type": "uint256"
        },
        {
          "internalType": "uint256",
          "name": "nbNo",
          "type": "uint256"
        },
        {
          "internalType": "bytes32",
          "name": "resultRoot",
          "type": "bytes32"
        }
      ],
      "name": "submitVoteResult",
      "outputs": [],
      "stateMutability": "nonpayable",
      "type": "function"
    },
    {
      "inputs": [
        {
          "internalType": "contract Registry",
          "name": "dao",
          "type": "address"
        },
        {
          "internalType": "uint256",
          "name": "proposalId",
          "type": "uint256"
        },
        {
          "internalType": "bytes",
          "name": "data",
          "type": "bytes"
        }
      ],
      "name": "startNewVotingForProposal",
      "outputs": [
        {
          "internalType": "uint256",
          "name": "",
          "type": "uint256"
        }
      ],
      "stateMutability": "nonpayable",
      "type": "function"
    },
    {
      "inputs": [
        {
          "internalType": "contract Registry",
          "name": "dao",
          "type": "address"
        },
        {
          "internalType": "uint256",
          "name": "proposalId",
          "type": "uint256"
        },
        {
          "internalType": "uint256",
          "name": "index",
          "type": "uint256"
        },
        {
          "components": [
            {
              "internalType": "address",
              "name": "voter",
              "type": "address"
            },
            {
              "internalType": "uint256",
              "name": "nbNo",
              "type": "uint256"
            },
            {
              "internalType": "uint256",
              "name": "nbYes",
              "type": "uint256"
            },
            {
              "internalType": "uint256",
              "name": "weight",
              "type": "uint256"
            },
            {
              "internalType": "bytes",
              "name": "sig",
              "type": "bytes"
            },
            {
              "internalType": "bytes",
              "name": "proof",
              "type": "bytes"
            }
          ],
          "internalType": "struct OffchainVotingContract.VoteResultNode",
          "name": "nodePrevious",
          "type": "tuple"
        },
        {
          "components": [
            {
              "internalType": "address",
              "name": "voter",
              "type": "address"
            },
            {
              "internalType": "uint256",
              "name": "nbNo",
              "type": "uint256"
            },
            {
              "internalType": "uint256",
              "name": "nbYes",
              "type": "uint256"
            },
            {
              "internalType": "uint256",
              "name": "weight",
              "type": "uint256"
            },
            {
              "internalType": "bytes",
              "name": "sig",
              "type": "bytes"
            },
            {
              "internalType": "bytes",
              "name": "proof",
              "type": "bytes"
            }
          ],
          "internalType": "struct OffchainVotingContract.VoteResultNode",
          "name": "nodeCurrent",
          "type": "tuple"
        }
      ],
      "name": "challengeWrongOrder",
      "outputs": [],
      "stateMutability": "view",
      "type": "function"
    },
    {
      "inputs": [
        {
          "internalType": "contract Registry",
          "name": "dao",
          "type": "address"
        },
        {
          "internalType": "uint256",
          "name": "proposalId",
          "type": "uint256"
        },
        {
          "internalType": "address",
          "name": "voter",
          "type": "address"
        },
        {
          "internalType": "uint256",
          "name": "weight",
          "type": "uint256"
        },
        {
          "internalType": "uint256",
          "name": "nbYes",
          "type": "uint256"
        },
        {
          "internalType": "uint256",
          "name": "nbNo",
          "type": "uint256"
        },
        {
          "internalType": "bytes",
          "name": "voteSignature",
          "type": "bytes"
        },
        {
          "internalType": "bytes",
          "name": "proof",
          "type": "bytes"
        }
      ],
      "name": "fixResult",
      "outputs": [],
      "stateMutability": "view",
      "type": "function"
    }
  ],
  "bytecode": "0x608060405234801561001057600080fd5b506112fb806100206000396000f3fe608060405234801561001057600080fd5b50600436106100725760003560e01c80638df8ca2c116100505780638df8ca2c146100b25780638fdc54c6146100db578063bc785a9b146100ee57610072565b806309269d14146100775780631f36911e1461008c578063354f795f1461009f575b600080fd5b61008a610085366004610d6d565b610101565b005b61008a61009a366004610bb2565b610145565b61008a6100ad366004610b87565b610281565b6100c56100c0366004610b87565b6102b1565b6040516100d29190611270565b60405180910390f35b61008a6100e9366004610ce6565b6103ad565b6100c56100fc366004610c8f565b6105df565b73ffffffffffffffffffffffffffffffffffffffff909416600090815260208181526040808320958352949052929092206004810192909255600382015560010155565b61014d610a19565b5073ffffffffffffffffffffffffffffffffffffffff89166000908152602081815260408083208b84528252808320815160e081018352815481526001820154818501526002820154818401526003820154606082015260048201546080820152600582015460a082015260069091015460ff16151560c082015290519092916101e3918b918b91899189918d918d9101610dbe565b60405160208183030381529060405280519060200120905061020f838360200151838560400151610668565b61024e576040517f08c379a0000000000000000000000000000000000000000000000000000000008152600401610245906111dc565b60405180910390fd5b8682606001511461026157606082018790525b8582608001511461027457608082018690525b5050505050505050505050565b73ffffffffffffffffffffffffffffffffffffffff90911660009081526001602081905260409091208181550155565b73ffffffffffffffffffffffffffffffffffffffff8216600090815260208181526040808320848452909152812060058101546102f25760009150506103a7565b80600201548160030154600202111561030f5760029150506103a7565b80600201548160040154600202111561032c5760029150506103a7565b73ffffffffffffffffffffffffffffffffffffffff84166000908152600160208190526040909120015460058201540142101561036d5760049150506103a7565b8060040154816003015411156103875760029150506103a7565b8060040154816003015410156103a15760039150506103a7565b60019150505b92915050565b600083116103e7576040517f08c379a000000000000000000000000000000000000000000000000000000000815260040161024590611042565b6103ef610a19565b5073ffffffffffffffffffffffffffffffffffffffff85166000908152602081815260408083208784528252808320815160e0810183528154815260018201548185015260028201548184015260038201546060808301919091526004830154608080840191909152600584015460a084015260069093015460ff16151560c0830152865190870151928701518785015188870151955193979661049a969395949293919201610e3f565b6040516020818303038152906040528051906020012090506000846000015185606001518660800151876040015188602001516040516020016104e1959493929190610e3f565b60405160208183030381529060405280519060200120905061050d8460a0015184602001518489610668565b610543576040517f08c379a00000000000000000000000000000000000000000000000000000000081526004016102459061117f565b61055a8560a0015184602001518360018a03610668565b610590576040517f08c379a000000000000000000000000000000000000000000000000000000000815260040161024590611213565b82516040516000916105a8918b908b90602001610ee5565b6040516020818303038152906040528051906020012090506105d3856000015182876080015161075d565b50505050505050505050565b6000815160401461061c576040517f08c379a00000000000000000000000000000000000000000000000000000000081526004016102459061109f565b73ffffffffffffffffffffffffffffffffffffffff9093166000908152602081815260408083209483529381529083902042600582015590820151919092015190825560029091015590565b600080838160205b8851811161074f578089015193506020818a51036020018161068e57fe5b0491505b6000821180156106a55750600286066001145b80156106b357508160020a86115b156106c657600286046001019550610692565b6002860661070b5783836040516020016106e1929190610db0565b6040516020818303038152906040528051906020012092506002868161070357fe5b049550610747565b828460405160200161071e929190610db0565b6040516020818303038152906040528051906020012092506002868161074057fe5b0460010195505b602001610670565b505090941495945050505050565b60008373ffffffffffffffffffffffffffffffffffffffff166107a984600160405160200161078d929190610f11565b6040516020818303038152906040528051906020012084610858565b73ffffffffffffffffffffffffffffffffffffffff1614156107cd57506001610851565b8373ffffffffffffffffffffffffffffffffffffffff166107fb84600260405160200161078d929190610f11565b73ffffffffffffffffffffffffffffffffffffffff16141561081f57506000610851565b6040517f08c379a000000000000000000000000000000000000000000000000000000000815260040161024590610f77565b9392505050565b60008151604114610895576040517f08c379a000000000000000000000000000000000000000000000000000000000815260040161024590610fae565b60208201516040830151606084015160001a7f7fffffffffffffffffffffffffffffff5d576e7357a4501ddfe92f46681b20a0821115610901576040517f08c379a000000000000000000000000000000000000000000000000000000000815260040161024590610fe5565b8060ff16601b1415801561091957508060ff16601c14155b15610950576040517f08c379a000000000000000000000000000000000000000000000000000000000815260040161024590611122565b6000600187838686604051600081526020016040526040516109759493929190610f22565b6020604051602081039080840390855afa158015610997573d6000803e3d6000fd5b50506040517fffffffffffffffffffffffffffffffffffffffffffffffffffffffffffffffe0015191505073ffffffffffffffffffffffffffffffffffffffff8116610a0f576040517f08c379a000000000000000000000000000000000000000000000000000000000815260040161024590610f40565b9695505050505050565b6040805160e081018252600080825260208201819052918101829052606081018290526080810182905260a0810182905260c081019190915290565b80356103a7816112a0565b600082601f830112610a70578081fd5b813567ffffffffffffffff811115610a86578182fd5b610ab760207fffffffffffffffffffffffffffffffffffffffffffffffffffffffffffffffe0601f84011601611279565b9150808252836020828501011115610ace57600080fd5b8060208401602084013760009082016020015292915050565b600060c08284031215610af8578081fd5b610b0260c0611279565b9050610b0e8383610a55565b8152602082013560208201526040820135604082015260608201356060820152608082013567ffffffffffffffff80821115610b4957600080fd5b610b5585838601610a60565b608084015260a0840135915080821115610b6e57600080fd5b50610b7b84828501610a60565b60a08301525092915050565b60008060408385031215610b99578182fd5b8235610ba4816112a0565b946020939093013593505050565b60008060008060008060008060006101008a8c031215610bd0578485fd5b8935610bdb816112a0565b985060208a0135975060408a0135610bf2816112a0565b965060608a0135955060808a0135945060a08a0135935060c08a013567ffffffffffffffff80821115610c23578485fd5b818c0191508c601f830112610c36578485fd5b813581811115610c44578586fd5b8d6020828501011115610c55578586fd5b6020830195508094505060e08c0135915080821115610c72578283fd5b50610c7f8c828d01610a60565b9150509295985092959850929598565b600080600060608486031215610ca3578283fd5b8335610cae816112a0565b925060208401359150604084013567ffffffffffffffff811115610cd0578182fd5b610cdc86828701610a60565b9150509250925092565b600080600080600060a08688031215610cfd578081fd5b8535610d08816112a0565b94506020860135935060408601359250606086013567ffffffffffffffff80821115610d32578283fd5b610d3e89838a01610ae7565b93506080880135915080821115610d53578283fd5b50610d6088828901610ae7565b9150509295509295909350565b600080600080600060a08688031215610d84578081fd5b8535610d8f816112a0565b97602087013597506040870135966060810135965060800135945092505050565b918252602082015260400190565b600073ffffffffffffffffffffffffffffffffffffffff8816825286602083015260a060408301528460a0830152848660c08401378060c0868401015260c07fffffffffffffffffffffffffffffffffffffffffffffffffffffffffffffffe0601f8701168301019050836060830152826080830152979650505050505050565b600073ffffffffffffffffffffffffffffffffffffffff871682526020868184015260a0604084015285518060a0850152825b81811015610e8e5787810183015185820160c001528201610e72565b81811115610e9f578360c083870101525b5060c07fffffffffffffffffffffffffffffffffffffffffffffffffffffffffffffffe0601f830116850101925050508360608301528260808301529695505050505050565b92835273ffffffffffffffffffffffffffffffffffffffff919091166020830152604082015260600190565b91825260ff16602082015260400190565b93845260ff9290921660208401526040830152606082015260800190565b60208082526018908201527f45434453413a20696e76616c6964207369676e61747572650000000000000000604082015260600190565b60208082526011908201527f696e76616c6964207369676e6174757265000000000000000000000000000000604082015260600190565b6020808252601f908201527f45434453413a20696e76616c6964207369676e6174757265206c656e67746800604082015260600190565b60208082526022908201527f45434453413a20696e76616c6964207369676e6174757265202773272076616c60408201527f7565000000000000000000000000000000000000000000000000000000000000606082015260800190565b60208082526035908201527f636865636b206265747765656e2063757272656e7420616e642070726576696f60408201527f75732c20696e6465782063616e6e6f7420626520300000000000000000000000606082015260800190565b60208082526056908201527f766f746520646174612073686f756c6420726570726573656e742061206d657260408201527f6b6c65207472656520726f6f742028627974657333322920616e64206e756d6260608201527f6572206f6620766f74657273202875696e743235362900000000000000000000608082015260a00190565b60208082526022908201527f45434453413a20696e76616c6964207369676e6174757265202776272076616c60408201527f7565000000000000000000000000000000000000000000000000000000000000606082015260800190565b60208082526021908201527f70726f6f6620636865636b20666f722063757272656e74206d69736d6174636860408201527f2100000000000000000000000000000000000000000000000000000000000000606082015260800190565b60208082526015908201527f70726f6f6620636865636b206d69736d61746368210000000000000000000000604082015260600190565b60208082526022908201527f70726f6f6620636865636b20666f722070726576696f7573206d69736d61746360408201527f6821000000000000000000000000000000000000000000000000000000000000606082015260800190565b90815260200190565b60405181810167ffffffffffffffff8111828210171561129857600080fd5b604052919050565b73ffffffffffffffffffffffffffffffffffffffff811681146112c257600080fd5b5056fea2646970667358221220645c34ad8ed47b84e808ae644118ad38e30a6c9cddbe517b6e113b9b024edea164736f6c63430007000033",
  "immutableReferences": {},
  "source": "pragma solidity ^0.7.0;\npragma experimental ABIEncoderV2;\n\n// SPDX-License-Identifier: MIT\n\nimport '../Registry.sol';\nimport '../Module.sol';\nimport '../interfaces/IProposal.sol';\nimport '../interfaces/IMember.sol';\nimport '../interfaces/IVoting.sol';\nimport '../../helpers/FlagHelper.sol';\n\ncontract OffchainVotingContract is IVoting, Module {\n\n    using FlagHelper for uint256;\n\n    struct VotingConfig {\n        uint256 flags;\n        uint256 votingPeriod;\n        uint256 votingCount;\n    }\n    struct Voting {\n        bytes32 snapshotRoot;\n        bytes32 resultRoot;\n        uint256 nbVoters;\n        uint256 nbYes;\n        uint256 nbNo;\n        uint256 startingTime;\n        bool isChallenged;\n    }\n\n    struct VoteResultNode {\n        address voter;\n        uint256 nbNo;\n        uint256 nbYes;\n        uint256 weight;\n        bytes sig;\n        bytes proof;\n    }\n    \n    mapping(address => mapping(uint256 => Voting)) votes;\n    mapping(address => VotingConfig) votingConfigs;\n\n    function registerDao(address dao, uint256 votingPeriod) override external {\n        votingConfigs[dao].flags = 1; // mark as exists\n        votingConfigs[dao].votingPeriod = votingPeriod;\n    }\n\n    /**\n    possible results here:\n    0: has not started\n    1: tie\n    2: pass\n    3: not pass\n    4: in progress\n     */\n    function voteResult(Registry dao, uint256 proposalId) override external view returns (uint256 state) {\n        Voting storage vote = votes[address(dao)][proposalId];\n        if(vote.startingTime == 0) {\n            return 0;\n        }\n\n        if(vote.nbYes * 2 > vote.nbVoters) {\n            return 2;\n        }\n\n        if(vote.nbNo * 2 > vote.nbVoters) {\n            return 2;\n        }\n\n        if(block.timestamp < vote.startingTime + votingConfigs[address(dao)].votingPeriod) {\n            return 4;\n        }\n\n        if(vote.nbYes > vote.nbNo) {\n            return 2;\n        } \n        if (vote.nbYes < vote.nbNo) {\n            return 3;\n        } \n\n        return 1;\n    }\n    \n    function submitVoteResult(Registry dao, uint256 proposalId, uint256 nbYes, uint256 nbNo, bytes32 resultRoot) external {\n        Voting storage vote = votes[address(dao)][proposalId];\n        vote.nbNo = nbNo;\n        vote.nbYes = nbYes;\n        vote.resultRoot = resultRoot;\n    }\n\n    function startNewVotingForProposal(Registry dao, uint256 proposalId, bytes memory data) override external returns (uint256) {\n        require(data.length == 64, \"vote data should represent a merkle tree root (bytes32) and number of voters (uint256)\");\n    \n        Voting storage vote = votes[address(dao)][proposalId];\n        vote.startingTime = block.timestamp;\n        bytes32 root;\n        uint256 nbVoters;\n\n        assembly {\n            root := mload(add(data, 32))\n        }\n\n        assembly {\n            nbVoters := mload(add(data, 64))\n        }\n\n        vote.snapshotRoot = root;\n        vote.nbVoters = nbVoters;\n    }\n\n    function challengeWrongOrder(Registry dao, uint256 proposalId, uint256 index, VoteResultNode memory nodePrevious, VoteResultNode memory nodeCurrent) view external {\n        require(index > 0, \"check between current and previous, index cannot be 0\");\n        Voting memory vote = votes[address(dao)][proposalId];\n        bytes32 hashCurrent = keccak256(abi.encode(nodeCurrent.voter, nodeCurrent.weight, nodeCurrent.sig, nodeCurrent.nbYes, nodeCurrent.nbNo));\n        bytes32 hashPrevious = keccak256(abi.encode(nodePrevious.voter, nodePrevious.weight, nodePrevious.sig, nodePrevious.nbYes, nodePrevious.nbNo));\n        require(checkProofOrdered(nodeCurrent.proof, vote.resultRoot, hashCurrent, index), \"proof check for current mismatch!\");\n        require(checkProofOrdered(nodePrevious.proof, vote.resultRoot, hashPrevious, index - 1), \"proof check for previous mismatch!\");\n\n        bytes32 proposalHash = keccak256(abi.encode(vote.snapshotRoot, address(dao), proposalId));\n        if(hasVotedYes(nodeCurrent.voter, proposalHash, nodeCurrent.sig)) {\n            if(nodePrevious.nbYes + 1 != nodeCurrent.nbYes) {\n                //reset vote\n            } else if (nodePrevious.nbNo != nodeCurrent.nbNo) {\n                //reset vote\n            }\n        } else {\n            if(nodePrevious.nbYes != nodeCurrent.nbYes) {\n                //reset vote\n            } else if (nodePrevious.nbNo + 1 != nodeCurrent.nbNo) {\n                //reset vote\n            }\n        }\n    }\n\n    function hasVotedYes(address voter, bytes32 proposalHash, bytes memory sig) internal pure returns(bool) {\n        if(recover(keccak256(abi.encode(proposalHash, 1)), sig) == voter) {\n            return true;\n        } else if (recover(keccak256(abi.encode(proposalHash, 2)), sig) == voter) {\n            return false;\n        } else {\n            revert(\"invalid signature\");\n        }\n    }\n\n    /**\n     * @dev Returns the address that signed a hashed message (`hash`) with\n     * `signature`. This address can then be used for verification purposes.\n     *\n     * The `ecrecover` EVM opcode allows for malleable (non-unique) signatures:\n     * this function rejects them by requiring the `s` value to be in the lower\n     * half order, and the `v` value to be either 27 or 28.\n     *\n     * IMPORTANT: `hash` _must_ be the result of a hash operation for the\n     * verification to be secure: it is possible to craft signatures that\n     * recover to arbitrary addresses for non-hashed data. A safe way to ensure\n     * this is by receiving a hash of the original message (which may otherwise\n     * be too long), and then calling {toEthSignedMessageHash} on it.\n     */\n    function recover(bytes32 hash, bytes memory signature) internal pure returns (address) {\n        // Check the signature length\n        if (signature.length != 65) {\n            revert(\"ECDSA: invalid signature length\");\n        }\n\n        // Divide the signature in r, s and v variables\n        bytes32 r;\n        bytes32 s;\n        uint8 v;\n\n        // ecrecover takes the signature parameters, and the only way to get them\n        // currently is to use assembly.\n        // solhint-disable-next-line no-inline-assembly\n        assembly {\n            r := mload(add(signature, 0x20))\n            s := mload(add(signature, 0x40))\n            v := byte(0, mload(add(signature, 0x60)))\n        }\n\n        // EIP-2 still allows signature malleability for ecrecover(). Remove this possibility and make the signature\n        // unique. Appendix F in the Ethereum Yellow paper (https://ethereum.github.io/yellowpaper/paper.pdf), defines\n        // the valid range for s in (281): 0 < s < secp256k1n  2 + 1, and for v in (282): v  {27, 28}. Most\n        // signatures from current libraries generate a unique signature with an s-value in the lower half order.\n        //\n        // If your library generates malleable signatures, such as s-values in the upper range, calculate a new s-value\n        // with 0xFFFFFFFFFFFFFFFFFFFFFFFFFFFFFFFEBAAEDCE6AF48A03BBFD25E8CD0364141 - s1 and flip v from 27 to 28 or\n        // vice versa. If your library also generates signatures with 0/1 for v instead 27/28, add 27 to v to accept\n        // these malleable signatures as well.\n        if (uint256(s) > 0x7FFFFFFFFFFFFFFFFFFFFFFFFFFFFFFF5D576E7357A4501DDFE92F46681B20A0) {\n            revert(\"ECDSA: invalid signature 's' value\");\n        }\n\n        if (v != 27 && v != 28) {\n            revert(\"ECDSA: invalid signature 'v' value\");\n        }\n\n        // If the signature is valid (and not malleable), return the signer address\n        address signer = ecrecover(hash, v, r, s);\n        require(signer != address(0), \"ECDSA: invalid signature\");\n\n        return signer;\n    }\n\n    function fixResult(Registry dao, uint256 proposalId, address voter, uint256 weight, uint256 nbYes, uint256 nbNo, bytes calldata voteSignature, bytes memory proof) view external {\n        Voting memory vote = votes[address(dao)][proposalId];\n        bytes32 hash = keccak256(abi.encode(voter, weight, voteSignature, nbYes, nbNo));\n        require(checkProofOrdered(proof, vote.resultRoot, hash, vote.nbVoters), \"proof check mismatch!\");\n        if(vote.nbYes != nbYes) {\n            vote.nbYes = nbYes;\n        }\n        if(vote.nbNo != nbNo) {\n            vote.nbNo = nbNo;\n        }\n    }\n\n    function checkProofOrdered(bytes memory proof, bytes32 root, bytes32 hash, uint256 index) pure internal returns (bool) {\n        // use the index to determine the node ordering\n        // index ranges 1 to n\n\n        bytes32 el;\n        bytes32 h = hash;\n        uint256 remaining;\n\n        for (uint256 j = 32; j <= proof.length; j += 32) {\n        assembly {\n            el := mload(add(proof, j))\n        }\n\n        // calculate remaining elements in proof\n        remaining = (proof.length - j + 32) / 32;\n\n        // we don't assume that the tree is padded to a power of 2\n        // if the index is odd then the proof will start with a hash at a higher\n        // layer, so we have to adjust the index to be the index at that layer\n        while (remaining > 0 && index % 2 == 1 && index > 2 ** remaining) {\n            index = uint(index) / 2 + 1;\n        }\n\n        if (index % 2 == 0) {\n            h = keccak256(abi.encodePacked(el, h));\n            index = index / 2;\n        } else {\n            h = keccak256(abi.encodePacked(h, el));\n            index = uint(index) / 2 + 1;\n        }\n        }\n\n        return h == root;\n    }\n}",
  "sourcePath": "/Users/davidroon/projects/moloch/contracts/v3/core/voting/OffchainVoting.sol",
  "compiler": {
    "name": "solc",
    "version": "0.7.0+commit.9e61f92b.Emscripten.clang"
  },
  "schemaVersion": "3.2.3",
  "updatedAt": "2020-09-17T11:52:26.500Z",
  "devdoc": {
    "kind": "dev",
    "methods": {},
    "version": 1
  },
  "userdoc": {
    "kind": "user",
    "methods": {
      "voteResult(address,uint256)": {
        "notice": "possible results here: 0: has not started 1: tie 2: pass 3: not pass 4: in progress"
      }
    },
    "version": 1
  }
}