{
  "contractName": "OnboardingContract",
  "abi": [
    {
      "inputs": [
        {
          "internalType": "address",
          "name": "",
          "type": "address"
        }
      ],
      "name": "configs",
      "outputs": [
        {
          "internalType": "uint256",
          "name": "chunkSize",
          "type": "uint256"
        },
        {
          "internalType": "uint256",
          "name": "sharesPerChunk",
          "type": "uint256"
        }
      ],
      "stateMutability": "view",
      "type": "function"
    },
    {
      "inputs": [
        {
          "internalType": "address",
          "name": "",
          "type": "address"
        },
        {
          "internalType": "uint256",
          "name": "",
          "type": "uint256"
        }
      ],
      "name": "proposals",
      "outputs": [
        {
          "internalType": "uint256",
          "name": "amount",
          "type": "uint256"
        },
        {
          "internalType": "uint256",
          "name": "sharesRequested",
          "type": "uint256"
        },
        {
          "internalType": "bool",
          "name": "processed",
          "type": "bool"
        },
        {
          "internalType": "address",
          "name": "applicant",
          "type": "address"
        }
      ],
      "stateMutability": "view",
      "type": "function"
    },
    {
      "inputs": [
        {
          "internalType": "contract Registry",
          "name": "dao",
          "type": "address"
        },
        {
          "internalType": "uint256",
          "name": "chunkSize",
          "type": "uint256"
        },
        {
          "internalType": "uint256",
          "name": "sharesPerChunk",
          "type": "uint256"
        }
      ],
      "name": "configureOnboarding",
      "outputs": [],
      "stateMutability": "nonpayable",
      "type": "function"
    },
    {
      "inputs": [
        {
          "internalType": "contract Registry",
          "name": "dao",
          "type": "address"
        }
      ],
      "name": "processOnboarding",
      "outputs": [],
      "stateMutability": "payable",
      "type": "function"
    },
    {
      "inputs": [
        {
          "internalType": "contract Registry",
          "name": "dao",
          "type": "address"
        },
        {
          "internalType": "uint256",
          "name": "proposalId",
          "type": "uint256"
        },
        {
          "internalType": "bytes",
          "name": "data",
          "type": "bytes"
        }
      ],
      "name": "sponsorProposal",
      "outputs": [],
      "stateMutability": "nonpayable",
      "type": "function"
    },
    {
      "inputs": [
        {
          "internalType": "contract Registry",
          "name": "dao",
          "type": "address"
        },
        {
          "internalType": "uint256",
          "name": "proposalId",
          "type": "uint256"
        }
      ],
      "name": "processProposal",
      "outputs": [],
      "stateMutability": "nonpayable",
      "type": "function"
    }
  ],
  "bytecode": "0x608060405234801561001057600080fd5b5061118c806100206000396000f3fe6080604052600436106100655760003560e01c8063bd85df0e11610043578063bd85df0e146101d9578063da4dfce61461020c578063fce898781461025257610065565b80637eb9b6741461006a5780638e23a2f51461010b5780638f30aa231461018d575b600080fd5b34801561007657600080fd5b506101096004803603606081101561008d57600080fd5b73ffffffffffffffffffffffffffffffffffffffff823516916020810135918101906060810160408201356401000000008111156100ca57600080fd5b8201836020820111156100dc57600080fd5b803590602001918460018302840111640100000000831117156100fe57600080fd5b5090925090506102ab565b005b34801561011757600080fd5b506101516004803603604081101561012e57600080fd5b5073ffffffffffffffffffffffffffffffffffffffff81351690602001356105c6565b6040805194855260208501939093529015158383015273ffffffffffffffffffffffffffffffffffffffff166060830152519081900360800190f35b34801561019957600080fd5b50610109600480360360608110156101b057600080fd5b5073ffffffffffffffffffffffffffffffffffffffff813516906020810135906040013561060e565b610109600480360360208110156101ef57600080fd5b503573ffffffffffffffffffffffffffffffffffffffff16610727565b34801561021857600080fd5b506101096004803603604081101561022f57600080fd5b5073ffffffffffffffffffffffffffffffffffffffff8135169060200135610851565b34801561025e57600080fd5b506102926004803603602081101561027557600080fd5b503573ffffffffffffffffffffffffffffffffffffffff16610dc7565b6040805192835260208301919091528051918290030190f35b8360008173ffffffffffffffffffffffffffffffffffffffff166321f8a7217f14ceb1149cdab84b395151a21d3de6707dd76fff3e7bc4e018925a9986b7f72f6040518263ffffffff1660e01b81526004018082815260200191505060206040518083038186803b15801561031f57600080fd5b505afa158015610333573d6000803e3d6000fd5b505050506040513d602081101561034957600080fd5b5051604080517f8ecf772000000000000000000000000000000000000000000000000000000000815273ffffffffffffffffffffffffffffffffffffffff8581166004830152336024830152915192935090831691638ecf7720916044808201926020929091908290030181600087803b1580156103c657600080fd5b505af11580156103da573d6000803e3d6000fd5b505050506040513d60208110156103f057600080fd5b5051610447576040517f08c379a00000000000000000000000000000000000000000000000000000000081526004018080602001828103825260328152602001806111256032913960400191505060405180910390fd5b60008673ffffffffffffffffffffffffffffffffffffffff166321f8a7217fb6d2dc83590271a7c0a5ab5fbf6a2dad418bbfd533c253e3d69a6772712809c76040518263ffffffff1660e01b81526004018082815260200191505060206040518083038186803b1580156104ba57600080fd5b505afa1580156104ce573d6000803e3d6000fd5b505050506040513d60208110156104e457600080fd5b50516040517ff62ee05a00000000000000000000000000000000000000000000000000000000815273ffffffffffffffffffffffffffffffffffffffff89811660048301908152602483018a90523360448401819052608060648501908152608485018a90529495509185169363f62ee05a938c938c9390928c928c92919060a401848480828437600081840152601f19601f8201169050808301925050509650505050505050600060405180830381600087803b1580156105a557600080fd5b505af11580156105b9573d6000803e3d6000fd5b5050505050505050505050565b6001602081815260009384526040808520909152918352912080549181015460029091015460ff811690610100900473ffffffffffffffffffffffffffffffffffffffff1684565b828073ffffffffffffffffffffffffffffffffffffffff166342f6e389336040518263ffffffff1660e01b8152600401808273ffffffffffffffffffffffffffffffffffffffff16815260200191505060206040518083038186803b15801561067657600080fd5b505afa15801561068a573d6000803e3d6000fd5b505050506040513d60208110156106a057600080fd5b50516106f7576040517f08c379a000000000000000000000000000000000000000000000000000000000815260040180806020018281038252603381526020018061109c6033913960400191505060405180910390fd5b5073ffffffffffffffffffffffffffffffffffffffff909216600090815260208190526040902090815560010155565b61072f611037565b5073ffffffffffffffffffffffffffffffffffffffff81166000908152602081815260408083208151808301909252805480835260019091015492820192909252919061077d903490610de0565b9050600081116107d8576040517f08c379a00000000000000000000000000000000000000000000000000000000081526004018080602001828103825260258152602001806110776025913960400191505060405180910390fd5b81516000906107e8908390610e04565b90506000610803846020015184610e0490919063ffffffff16565b905061081185338385610e7e565b8134111561084a5760405133903484900380156108fc02916000818181858888f19350505050158015610848573d6000803e3d6000fd5b505b5050505050565b60008273ffffffffffffffffffffffffffffffffffffffff166321f8a7217f14ceb1149cdab84b395151a21d3de6707dd76fff3e7bc4e018925a9986b7f72f6040518263ffffffff1660e01b81526004018082815260200191505060206040518083038186803b1580156108c457600080fd5b505afa1580156108d8573d6000803e3d6000fd5b505050506040513d60208110156108ee57600080fd5b5051604080517f8ecf772000000000000000000000000000000000000000000000000000000000815273ffffffffffffffffffffffffffffffffffffffff8681166004830152336024830152915192935090831691638ecf7720916044808201926020929091908290030181600087803b15801561096b57600080fd5b505af115801561097f573d6000803e3d6000fd5b505050506040513d602081101561099557600080fd5b50516109ec576040517f08c379a000000000000000000000000000000000000000000000000000000000815260040180806020018281038252602e8152602001806110f7602e913960400191505060405180910390fd5b60008373ffffffffffffffffffffffffffffffffffffffff166321f8a7217f0e49311626a26ba5be58a3b13d239908e80ce0dffdd5c50bf1d9c82ff35d1ab36040518263ffffffff1660e01b81526004018082815260200191505060206040518083038186803b158015610a5f57600080fd5b505afa158015610a73573d6000803e3d6000fd5b505050506040513d6020811015610a8957600080fd5b5051604080517f8df8ca2c00000000000000000000000000000000000000000000000000000000815273ffffffffffffffffffffffffffffffffffffffff878116600483015260248201879052915192935090831691638df8ca2c916044808201926020929091908290030181600087803b158015610b0757600080fd5b505af1158015610b1b573d6000803e3d6000fd5b505050506040513d6020811015610b3157600080fd5b5051600214610b8b576040517f08c379a00000000000000000000000000000000000000000000000000000000081526004018080602001828103825260258152602001806110526025913960400191505060405180910390fd5b73ffffffffffffffffffffffffffffffffffffffff808516600081815260016020818152604080842089855290915280832060028101549281015482517fbed09038000000000000000000000000000000000000000000000000000000008152600481019690965261010090930486166024860152604485019290925251909386169263bed0903892606480830193919282900301818387803b158015610c3157600080fd5b505af1158015610c45573d6000803e3d6000fd5b5050505060008573ffffffffffffffffffffffffffffffffffffffff166321f8a7217fea0ca03c7adbe41dc655fec28a9209dc8e6e042f3d991a67765ba285b9cf73a06040518263ffffffff1660e01b81526004018082815260200191505060206040518083038186803b158015610cbc57600080fd5b505afa158015610cd0573d6000803e3d6000fd5b505050506040513d6020811015610ce657600080fd5b50518254604080517f03d8fed90000000000000000000000000000000000000000000000000000000081526000600482018190526024820193909352905192935073ffffffffffffffffffffffffffffffffffffffff8416926303d8fed99260448084019391929182900301818387803b158015610d6357600080fd5b505af1158015610d77573d6000803e3d6000fd5b5050835460405173ffffffffffffffffffffffffffffffffffffffff8516935081156108fc0292506000818181858888f19350505050158015610dbe573d6000803e3d6000fd5b50505050505050565b6000602081905290815260409020805460019091015482565b6000808211610dee57600080fd5b6000828481610df957fe5b049150505b92915050565b600082610e1357506000610dfe565b82820282848281610e2057fe5b0414610e77576040517f08c379a00000000000000000000000000000000000000000000000000000000081526004018080602001828103825260288152602001806110cf6028913960400191505060405180910390fd5b9392505050565b60008473ffffffffffffffffffffffffffffffffffffffff166321f8a7217fb6d2dc83590271a7c0a5ab5fbf6a2dad418bbfd533c253e3d69a6772712809c76040518263ffffffff1660e01b81526004018082815260200191505060206040518083038186803b158015610ef157600080fd5b505afa158015610f05573d6000803e3d6000fd5b505050506040513d6020811015610f1b57600080fd5b5051604080517f07eecaf500000000000000000000000000000000000000000000000000000000815273ffffffffffffffffffffffffffffffffffffffff88811660048301529151929350600092918416916307eecaf59160248082019260209290919082900301818787803b158015610f9457600080fd5b505af1158015610fa8573d6000803e3d6000fd5b505050506040513d6020811015610fbe57600080fd5b505173ffffffffffffffffffffffffffffffffffffffff968716600090815260016020818152604080842094845293905291902093845583019390935550600201805492909316610100027fffffffffffffffffffffff0000000000000000000000000000000000000000ff9092169190911790915550565b60405180604001604052806000815260200160008152509056fe70726f706f73616c206e65656420746f207061737320746f2062652070726f636573736564616d6f756e74206f66204554482073656e7420776173206e6f742073756666696369656e746f6e6c7920636f7265206d6f64756c65732061726520616c6c6f77656420746f2063616c6c20746869732066756e6374696f6e75696e74206f766572666c6f77206465746563746564207768696c65206d756c7469706c79696e676f6e6c79206d656d626572732063616e2073706f6e736f722061206d656d626572736869702070726f706f73616c6f6e6c792044414f206d656d626572732061726520616c6c6f77656420746f2063616c6c20746869732066756e6374696f6ea2646970667358221220d642fd9ecf6e7c74858de0b68afa8bee27f2b525757e56df76f8076d334eec2664736f6c63430007000033",
  "immutableReferences": {},
  "source": "pragma solidity ^0.7.0;\n\n// SPDX-License-Identifier: MIT\n\nimport './interfaces/IOnboarding.sol';\nimport '../core/Module.sol';\nimport '../core/Registry.sol';\nimport '../core/interfaces/IVoting.sol';\nimport '../core/interfaces/IProposal.sol';\nimport '../core/interfaces/IBank.sol';\nimport '../utils/SafeMath.sol';\nimport '../guards/AdapterGuard.sol';\nimport '../guards/ModuleGuard.sol';\n\ncontract OnboardingContract is IOnboarding, Module, AdapterGuard, ModuleGuard {\n    using SafeMath for uint256;\n\n    struct ProposalDetails {\n        uint256 amount;\n        uint256 sharesRequested;\n        bool processed;\n        address applicant;\n    }\n\n    struct OnboardingConfig {\n        uint256 chunkSize;\n        uint256 sharesPerChunk;\n    }\n\n    mapping(address => OnboardingConfig) public configs;\n    mapping(address => mapping(uint256 => ProposalDetails)) public proposals;\n\n    function configureOnboarding(Registry dao, uint256 chunkSize, uint256 sharesPerChunk) external onlyModule(dao) {\n        configs[address(dao)].chunkSize = chunkSize;\n        configs[address(dao)].sharesPerChunk = sharesPerChunk;\n    }\n\n    function processOnboarding(Registry dao) override external payable {\n        OnboardingConfig memory config = configs[address(dao)];\n        uint256 numberOfChunks = msg.value.div(config.chunkSize);\n        require(numberOfChunks > 0, \"amount of ETH sent was not sufficient\");\n        uint256 amount = numberOfChunks.mul(config.chunkSize);\n        uint256 sharesRequested = numberOfChunks.mul(config.sharesPerChunk);\n\n        _submitMembershipProposal(dao, msg.sender, sharesRequested, amount);\n\n        if (msg.value > amount) {\n            msg.sender.transfer(msg.value - amount);\n        }\n    }\n\n    function _submitMembershipProposal(Registry dao, address newMember, uint256 sharesRequested, uint256 amount) internal {\n        IProposal proposalContract = IProposal(dao.getAddress(PROPOSAL_MODULE));\n        uint256 proposalId = proposalContract.createProposal(dao);\n        ProposalDetails storage proposal = proposals[address(dao)][proposalId];\n        proposal.amount = amount;\n        proposal.sharesRequested = sharesRequested;\n        proposal.applicant = newMember;\n    }\n\n    function sponsorProposal(Registry dao, uint256 proposalId, bytes calldata data) override external onlyMember(dao) {\n        IProposal proposalContract = IProposal(dao.getAddress(PROPOSAL_MODULE));\n        proposalContract.sponsorProposal(dao, proposalId, msg.sender, data);\n    }\n\n    function processProposal(Registry dao, uint256 proposalId) override external {\n        IMember memberContract = IMember(dao.getAddress(MEMBER_MODULE));\n        require(memberContract.isActiveMember(dao, msg.sender), \"only members can sponsor a membership proposal\");\n        IVoting votingContract = IVoting(dao.getAddress(VOTING_MODULE));\n        require(votingContract.voteResult(dao, proposalId) == 2, \"proposal need to pass to be processed\");\n        ProposalDetails storage proposal = proposals[address(dao)][proposalId];\n        memberContract.updateMember(dao, proposal.applicant, proposal.sharesRequested);\n        IBank bankContract = IBank(dao.getAddress(BANK_MODULE));\n        // address 0 represents native ETH\n        bankContract.addToGuild(address(0), proposal.amount);\n        payable(address(bankContract)).transfer(proposal.amount); \n    }\n}",
  "sourcePath": "/Users/davidroon/projects/moloch/contracts/v3/adapters/Onboarding.sol",
  "compiler": {
    "name": "solc",
    "version": "0.7.0+commit.9e61f92b.Emscripten.clang"
  },
  "schemaVersion": "3.2.3",
  "updatedAt": "2020-09-17T11:52:26.477Z",
  "devdoc": {
    "kind": "dev",
    "methods": {},
    "version": 1
  },
  "userdoc": {
    "kind": "user",
    "methods": {},
    "version": 1
  }
}