{
  "contractName": "ProposalContract",
  "abi": [
    {
      "anonymous": false,
      "inputs": [
        {
          "indexed": false,
          "internalType": "uint256",
          "name": "proposalId",
          "type": "uint256"
        },
        {
          "indexed": false,
          "internalType": "uint256",
          "name": "proposalIndex",
          "type": "uint256"
        }
      ],
      "name": "NewProposal",
      "type": "event"
    },
    {
      "anonymous": false,
      "inputs": [
        {
          "indexed": false,
          "internalType": "uint256",
          "name": "proposalId",
          "type": "uint256"
        },
        {
          "indexed": false,
          "internalType": "uint256",
          "name": "proposalIndex",
          "type": "uint256"
        },
        {
          "indexed": false,
          "internalType": "uint256",
          "name": "startingTime",
          "type": "uint256"
        }
      ],
      "name": "SponsorProposal",
      "type": "event"
    },
    {
      "inputs": [
        {
          "internalType": "address",
          "name": "",
          "type": "address"
        }
      ],
      "name": "proposalCount",
      "outputs": [
        {
          "internalType": "uint256",
          "name": "",
          "type": "uint256"
        }
      ],
      "stateMutability": "view",
      "type": "function"
    },
    {
      "inputs": [
        {
          "internalType": "address",
          "name": "",
          "type": "address"
        },
        {
          "internalType": "uint256",
          "name": "",
          "type": "uint256"
        }
      ],
      "name": "proposals",
      "outputs": [
        {
          "internalType": "uint256",
          "name": "flags",
          "type": "uint256"
        }
      ],
      "stateMutability": "view",
      "type": "function"
    },
    {
      "inputs": [
        {
          "internalType": "contract Registry",
          "name": "dao",
          "type": "address"
        }
      ],
      "name": "createProposal",
      "outputs": [
        {
          "internalType": "uint256",
          "name": "",
          "type": "uint256"
        }
      ],
      "stateMutability": "nonpayable",
      "type": "function"
    },
    {
      "inputs": [
        {
          "internalType": "contract Registry",
          "name": "dao",
          "type": "address"
        },
        {
          "internalType": "uint256",
          "name": "proposalId",
          "type": "uint256"
        },
        {
          "internalType": "address",
          "name": "sponsoringMember",
          "type": "address"
        },
        {
          "internalType": "bytes",
          "name": "votingData",
          "type": "bytes"
        }
      ],
      "name": "sponsorProposal",
      "outputs": [],
      "stateMutability": "nonpayable",
      "type": "function"
    }
  ],
  "bytecode": "0x608060405234801561001057600080fd5b50610bbe806100206000396000f3fe608060405234801561001057600080fd5b506004361061004c5760003560e01c806307eecaf5146100515780638e23a2f514610096578063a966ccbb146100cf578063f62ee05a14610102575b600080fd5b6100846004803603602081101561006757600080fd5b503573ffffffffffffffffffffffffffffffffffffffff166101a0565b60408051918252519081900360200190f35b610084600480360360408110156100ac57600080fd5b5073ffffffffffffffffffffffffffffffffffffffff8135169060200135610321565b610084600480360360208110156100e557600080fd5b503573ffffffffffffffffffffffffffffffffffffffff1661033e565b61019e6004803603608081101561011857600080fd5b73ffffffffffffffffffffffffffffffffffffffff823581169260208101359260408201359092169181019060808101606082013564010000000081111561015f57600080fd5b82018360208201111561017157600080fd5b8035906020019184600183028401116401000000008311171561019357600080fd5b509092509050610350565b005b6000818073ffffffffffffffffffffffffffffffffffffffff166342f6e389336040518263ffffffff1660e01b8152600401808273ffffffffffffffffffffffffffffffffffffffff16815260200191505060206040518083038186803b15801561020a57600080fd5b505afa15801561021e573d6000803e3d6000fd5b505050506040513d602081101561023457600080fd5b505161028b576040517f08c379a0000000000000000000000000000000000000000000000000000000008152600401808060200182810382526033815260200180610adc6033913960400191505060405180910390fd5b73ffffffffffffffffffffffffffffffffffffffff831660008181526020818152604080832080548251808501845260018082528787528086528487208388528652848720915190915595855293835293830193849055805183815291820184905280517f3685551657f54db5c359912b431ddb2fc106cefc4a2526672aa7295fdc34cb269281900390910190a1949350505050565b600160209081526000928352604080842090915290825290205481565b60006020819052908152604090205481565b848073ffffffffffffffffffffffffffffffffffffffff166342f6e389336040518263ffffffff1660e01b8152600401808273ffffffffffffffffffffffffffffffffffffffff16815260200191505060206040518083038186803b1580156103b857600080fd5b505afa1580156103cc573d6000803e3d6000fd5b505050506040513d60208110156103e257600080fd5b5051610439576040517f08c379a0000000000000000000000000000000000000000000000000000000008152600401808060200182810382526033815260200180610adc6033913960400191505060405180910390fd5b610441610ac8565b5073ffffffffffffffffffffffffffffffffffffffff8616600090815260016020908152604080832088845282529182902082518083018452905480825283517f4f558e7900000000000000000000000000000000000000000000000000000000815260048101919091529251909273__FlagHelper____________________________92634f558e7992602480840193829003018186803b1580156104e657600080fd5b505af41580156104fa573d6000803e3d6000fd5b505050506040513d602081101561051057600080fd5b5051610567576040517f08c379a0000000000000000000000000000000000000000000000000000000008152600401808060200182810382526024815260200180610b3e6024913960400191505060405180910390fd5b8051604080517f3aa5289e00000000000000000000000000000000000000000000000000000000815260048101929092525173__FlagHelper____________________________91633aa5289e916024808301926020929190829003018186803b1580156105d457600080fd5b505af41580156105e8573d6000803e3d6000fd5b505050506040513d60208110156105fe57600080fd5b505115610656576040517f08c379a0000000000000000000000000000000000000000000000000000000008152600401808060200182810382526027815260200180610b626027913960400191505060405180910390fd5b8051604080517fcdf92c2700000000000000000000000000000000000000000000000000000000815260048101929092525173__FlagHelper____________________________9163cdf92c27916024808301926020929190829003018186803b1580156106c357600080fd5b505af41580156106d7573d6000803e3d6000fd5b505050506040513d60208110156106ed57600080fd5b50511561075b57604080517f08c379a000000000000000000000000000000000000000000000000000000000815260206004820152601f60248201527f7468652070726f706f73616c20686173206265656e2063616e63656c6c656400604482015290519081900360640190fd5b60008773ffffffffffffffffffffffffffffffffffffffff166321f8a7217f14ceb1149cdab84b395151a21d3de6707dd76fff3e7bc4e018925a9986b7f72f6040518263ffffffff1660e01b81526004018082815260200191505060206040518083038186803b1580156107ce57600080fd5b505afa1580156107e2573d6000803e3d6000fd5b505050506040513d60208110156107f857600080fd5b5051604080517f8ecf772000000000000000000000000000000000000000000000000000000000815273ffffffffffffffffffffffffffffffffffffffff8b811660048301528981166024830152915192935090831691638ecf7720916044808201926020929091908290030181600087803b15801561087757600080fd5b505af115801561088b573d6000803e3d6000fd5b505050506040513d60208110156108a157600080fd5b50516108f8576040517f08c379a000000000000000000000000000000000000000000000000000000000815260040180806020018281038252602f815260200180610b0f602f913960400191505060405180910390fd5b60008873ffffffffffffffffffffffffffffffffffffffff166321f8a7217f0e49311626a26ba5be58a3b13d239908e80ce0dffdd5c50bf1d9c82ff35d1ab36040518263ffffffff1660e01b81526004018082815260200191505060206040518083038186803b15801561096b57600080fd5b505afa15801561097f573d6000803e3d6000fd5b505050506040513d602081101561099557600080fd5b50516040517fbc785a9b00000000000000000000000000000000000000000000000000000000815273ffffffffffffffffffffffffffffffffffffffff8b811660048301908152602483018c9052606060448401908152606484018a90529394506000939185169263bc785a9b928e928e928d928d9291608401848480828437600081840152601f19601f82011690508083019250505095505050505050602060405180830381600087803b158015610a4d57600080fd5b505af1158015610a61573d6000803e3d6000fd5b505050506040513d6020811015610a7757600080fd5b5051604080518b815260208101839052428183015290519192507f0d039d82842f17ede7e4e8cda37330c3edf97ebfa86a92a442b8553d858fa6c1919081900360600190a150505050505050505050565b604051806020016040528060008152509056fe6f6e6c7920636f7265206d6f64756c65732061726520616c6c6f77656420746f2063616c6c20746869732066756e6374696f6e6f6e6c7920616374697665206d656d626572732063616e2073706f6e736f7220736f6d656f6e65206a6f696e696e6770726f706f73616c20646f6573206e6f7420657869737420666f7220746869732064616f7468652070726f706f73616c2068617320616c7265616479206265656e2073706f6e736f726564a2646970667358221220399a2769c1705556df84bdc989950c66e71155eb8b14ee2af3fdf255f88b51e564736f6c63430007000033",
  "immutableReferences": {},
  "source": "pragma solidity ^0.7.0;\n\n// SPDX-License-Identifier: MIT\n\nimport '../Registry.sol';\nimport '../Module.sol';\nimport '../interfaces/IMember.sol';\nimport '../interfaces/IProposal.sol';\nimport '../interfaces/IVoting.sol';\nimport '../../helpers/FlagHelper.sol';\nimport '../../guards/ModuleGuard.sol';\n\ncontract ProposalContract is IProposal, Module, ModuleGuard {\n    \n    using FlagHelper for uint256;\n\n    event SponsorProposal(uint256 proposalId, uint256 proposalIndex, uint256 startingTime);\n    event NewProposal(uint256 proposalId, uint256 proposalIndex);\n\n    struct Proposal {\n        uint256 flags; // using bit function to read the flag. That means that we have up to 256 slots for flags\n    }\n\n    mapping(address => uint256) public proposalCount;\n    mapping(address => mapping(uint256 => Proposal)) public proposals;\n\n    function createProposal(Registry dao) override external onlyModule(dao) returns(uint256) {\n        uint256 counter = proposalCount[address(dao)];\n        proposals[address(dao)][counter++] = Proposal(1);\n        proposalCount[address(dao)] = counter;\n        uint256 proposalId = counter - 1;\n\n        emit NewProposal(proposalId, counter);\n        \n        return proposalId;\n    }\n\n    function sponsorProposal(Registry dao, uint256 proposalId, address sponsoringMember, bytes calldata votingData) override external onlyModule(dao) {\n        Proposal memory proposal = proposals[address(dao)][proposalId];\n        require(proposal.flags.exists(), \"proposal does not exist for this dao\");\n        require(!proposal.flags.isSponsored(), \"the proposal has already been sponsored\");\n        require(!proposal.flags.isCancelled(), \"the proposal has been cancelled\");\n\n        IMember memberContract = IMember(dao.getAddress(MEMBER_MODULE));\n        require(memberContract.isActiveMember(dao, sponsoringMember), \"only active members can sponsor someone joining\");\n\n        IVoting votingContract = IVoting(dao.getAddress(VOTING_MODULE));\n        uint256 votingId = votingContract.startNewVotingForProposal(dao, proposalId, votingData);\n        \n        emit SponsorProposal(proposalId, votingId, block.timestamp);\n    }\n}",
  "sourcePath": "/Users/davidroon/projects/moloch/contracts/v3/core/proposals/Proposal.sol",
  "compiler": {
    "name": "solc",
    "version": "0.7.0+commit.9e61f92b.Emscripten.clang"
  },
  "schemaVersion": "3.2.3",
  "updatedAt": "2020-09-17T11:52:26.498Z",
  "devdoc": {
    "kind": "dev",
    "methods": {},
    "version": 1
  },
  "userdoc": {
    "kind": "user",
    "methods": {},
    "version": 1
  }
}