{
  "contractName": "RagequitContract",
  "abi": [
    {
      "inputs": [],
      "stateMutability": "nonpayable",
      "type": "constructor"
    },
    {
      "anonymous": false,
      "inputs": [
        {
          "indexed": true,
          "internalType": "address",
          "name": "member",
          "type": "address"
        },
        {
          "indexed": false,
          "internalType": "uint256",
          "name": "burnedShares",
          "type": "uint256"
        }
      ],
      "name": "Ragequit",
      "type": "event"
    },
    {
      "stateMutability": "payable",
      "type": "receive"
    },
    {
      "inputs": [
        {
          "internalType": "contract Registry",
          "name": "dao",
          "type": "address"
        },
        {
          "internalType": "uint256",
          "name": "sharesToBurn",
          "type": "uint256"
        }
      ],
      "name": "ragequit",
      "outputs": [],
      "stateMutability": "nonpayable",
      "type": "function"
    }
  ],
  "bytecode": "0x608060405234801561001057600080fd5b506000805460ff191660011790556106808061002d6000396000f3fe6080604052600436106100225760003560e01c8063a1a1ba33146100315761002c565b3661002c57600080fd5b600080fd5b34801561003d57600080fd5b506100776004803603604081101561005457600080fd5b5073ffffffffffffffffffffffffffffffffffffffff8135169060200135610079565b005b60005460ff166100ea57604080517f08c379a000000000000000000000000000000000000000000000000000000000815260206004820152601f60248201527f5265656e7472616e637947756172643a207265656e7472616e742063616c6c00604482015290519081900360640190fd5b600080547fffffffffffffffffffffffffffffffffffffffffffffffffffffffffffffff00168155604080517f21f8a7210000000000000000000000000000000000000000000000000000000081527f14ceb1149cdab84b395151a21d3de6707dd76fff3e7bc4e018925a9986b7f72f6004820152905184929173ffffffffffffffffffffffffffffffffffffffff8416916321f8a72191602480820192602092909190829003018186803b1580156101a257600080fd5b505afa1580156101b6573d6000803e3d6000fd5b505050506040513d60208110156101cc57600080fd5b5051604080517f8ecf772000000000000000000000000000000000000000000000000000000000815273ffffffffffffffffffffffffffffffffffffffff8581166004830152336024830152915192935090831691638ecf7720916044808201926020929091908290030181600087803b15801561024957600080fd5b505af115801561025d573d6000803e3d6000fd5b505050506040513d602081101561027357600080fd5b50516102ca576040517f08c379a00000000000000000000000000000000000000000000000000000000081526004018080602001828103825260328152602001806106196032913960400191505060405180910390fd5b60008473ffffffffffffffffffffffffffffffffffffffff166321f8a7217f14ceb1149cdab84b395151a21d3de6707dd76fff3e7bc4e018925a9986b7f72f6040518263ffffffff1660e01b81526004018082815260200191505060206040518083038186803b15801561033d57600080fd5b505afa158015610351573d6000803e3d6000fd5b505050506040513d602081101561036757600080fd5b5051604080517f09681d0300000000000000000000000000000000000000000000000000000000815273ffffffffffffffffffffffffffffffffffffffff8881166004830152336024830152604482018890529151929350908316916309681d0391606480820192602092909190829003018186803b1580156103e957600080fd5b505afa1580156103fd573d6000803e3d6000fd5b505050506040513d602081101561041357600080fd5b505161048057604080517f08c379a000000000000000000000000000000000000000000000000000000000815260206004820152601360248201527f696e73756666696369656e742073686172657300000000000000000000000000604482015290519081900360640190fd5b60008573ffffffffffffffffffffffffffffffffffffffff166321f8a7217fea0ca03c7adbe41dc655fec28a9209dc8e6e042f3d991a67765ba285b9cf73a06040518263ffffffff1660e01b81526004018082815260200191505060206040518083038186803b1580156104f357600080fd5b505afa158015610507573d6000803e3d6000fd5b505050506040513d602081101561051d57600080fd5b5051604080517fee7a7c0400000000000000000000000000000000000000000000000000000000815233600482015260248101889052905191925073ffffffffffffffffffffffffffffffffffffffff83169163ee7a7c049160448082019260009290919082900301818387803b15801561059757600080fd5b505af11580156105ab573d6000803e3d6000fd5b50506040805188815290513393507f667cb7a1818eacd2e3a421e734429ba9c4c7dec85e578e098b6d72cd2bfbf2f692509081900360200190a25050600080547fffffffffffffffffffffffffffffffffffffffffffffffffffffffffffffff001660011790555050505056fe6f6e6c792044414f206d656d626572732061726520616c6c6f77656420746f2063616c6c20746869732066756e6374696f6ea26469706673582212209b78902f241b646585c905f366b52e07163a503ad5c007def4a010cc6cac40d364736f6c63430007000033",
  "immutableReferences": {},
  "source": "pragma solidity ^0.7.0;\n\n// SPDX-License-Identifier: MIT\n\nimport '../core/Module.sol';\nimport '../core/Registry.sol';\nimport '../core/interfaces/IBank.sol';\nimport '../core/interfaces/IMember.sol';\nimport '../guards/AdapterGuard.sol';\nimport '../guards/ReentrancyGuard.sol';\n\ncontract RagequitContract is Module, AdapterGuard, ReentrancyGuard {\n\n    event Ragequit(address indexed member, uint256 burnedShares);\n\n    constructor () {\n    }\n\n    /* \n     * default fallback function to prevent from sending ether to the contract\n     */\n    receive() external payable {\n        revert();\n    }\n\n    function ragequit(Registry dao, uint256 sharesToBurn) public nonReentrant onlyMember(dao) {\n        IMember memberContract = IMember(dao.getAddress(MEMBER_MODULE));\n\n        // FIXME: we still don't track the index to block the ragequit if member voted YES on a non-processed proposal \n        // require(canRagequit(member.highestIndexYesVote), \"cannot ragequit until highest index proposal member voted YES on is processed\");\n        require(memberContract.hasEnoughShares(dao, msg.sender, sharesToBurn), \"insufficient shares\");\n        IBank bank = IBank(dao.getAddress(BANK_MODULE));\n        bank.burnShares(msg.sender, sharesToBurn);\n\n        emit Ragequit(msg.sender, sharesToBurn);\n    }\n\n    // can only ragequit if the latest proposal you voted YES on has been processed\n    // function canRagequit(uint256 highestIndexYesVote) public view returns (bool) {\n    //     require(highestIndexYesVote < proposalQueue.length, \"proposal does not exist\");\n    //     return proposals[proposalQueue[highestIndexYesVote]].flags[1];\n    // }\n\n}",
  "sourcePath": "/Users/davidroon/projects/moloch/contracts/v3/adapters/Ragequit.sol",
  "compiler": {
    "name": "solc",
    "version": "0.7.0+commit.9e61f92b.Emscripten.clang"
  },
  "schemaVersion": "3.2.3",
  "updatedAt": "2020-09-17T11:52:26.481Z",
  "devdoc": {
    "kind": "dev",
    "methods": {},
    "version": 1
  },
  "userdoc": {
    "kind": "user",
    "methods": {},
    "version": 1
  }
}