{
  "contractName": "Registry",
  "abi": [
    {
      "inputs": [],
      "stateMutability": "nonpayable",
      "type": "constructor"
    },
    {
      "anonymous": false,
      "inputs": [
        {
          "indexed": true,
          "internalType": "address",
          "name": "previousOwner",
          "type": "address"
        },
        {
          "indexed": true,
          "internalType": "address",
          "name": "newOwner",
          "type": "address"
        }
      ],
      "name": "OwnershipTransferred",
      "type": "event"
    },
    {
      "inputs": [],
      "name": "isOwner",
      "outputs": [
        {
          "internalType": "bool",
          "name": "",
          "type": "bool"
        }
      ],
      "stateMutability": "view",
      "type": "function"
    },
    {
      "inputs": [],
      "name": "owner",
      "outputs": [
        {
          "internalType": "address",
          "name": "",
          "type": "address"
        }
      ],
      "stateMutability": "view",
      "type": "function"
    },
    {
      "inputs": [],
      "name": "renounceOwnership",
      "outputs": [],
      "stateMutability": "nonpayable",
      "type": "function"
    },
    {
      "inputs": [
        {
          "internalType": "address",
          "name": "newOwner",
          "type": "address"
        }
      ],
      "name": "transferOwnership",
      "outputs": [],
      "stateMutability": "nonpayable",
      "type": "function"
    },
    {
      "stateMutability": "payable",
      "type": "receive"
    },
    {
      "inputs": [
        {
          "internalType": "bytes32",
          "name": "moduleId",
          "type": "bytes32"
        },
        {
          "internalType": "address",
          "name": "moduleAddress",
          "type": "address"
        }
      ],
      "name": "addModule",
      "outputs": [],
      "stateMutability": "nonpayable",
      "type": "function"
    },
    {
      "inputs": [
        {
          "internalType": "bytes32",
          "name": "moduleId",
          "type": "bytes32"
        }
      ],
      "name": "removeModule",
      "outputs": [],
      "stateMutability": "nonpayable",
      "type": "function"
    },
    {
      "inputs": [
        {
          "internalType": "address",
          "name": "module",
          "type": "address"
        }
      ],
      "name": "isModule",
      "outputs": [
        {
          "internalType": "bool",
          "name": "",
          "type": "bool"
        }
      ],
      "stateMutability": "view",
      "type": "function"
    },
    {
      "inputs": [
        {
          "internalType": "bytes32",
          "name": "moduleId",
          "type": "bytes32"
        }
      ],
      "name": "getAddress",
      "outputs": [
        {
          "internalType": "address",
          "name": "",
          "type": "address"
        }
      ],
      "stateMutability": "view",
      "type": "function"
    }
  ],
  "bytecode": "0x608060405234801561001057600080fd5b50600080546001600160a01b031916339081178255604051909182917f8be0079c531659141344cd1fd0a4f28419497f9722a3daafe3b4186f6b6457e0908290a3507f14748f6bfff2d8158c3447bdb0641e791ab47d274e214ef85cf9b2fc9b5d7c5a80546001600160a01b0319163390811790915560009081526002602052604090207f02016836a56b71f0d02689e69e326f4f4c1b9057164ef592671cf0d37c8040c09055610a77806100c66000396000f3fe60806040526004361061007f5760003560e01c8063715018a61161004e578063715018a6146102775780638da5cb5b1461028c5780638f32d59b146102a1578063f2fde38b146102b657610159565b806321f8a7211461015e57806335324eee146101b15780634114509b146101f957806342f6e3891461022357610159565b36610159577f68c24fc24acf5b51ccf67c01fea706e9e0e110825d4f88d07623f64f32f55d89600090815260016020527f92f52b956cda82911ad57c5f95472a35257cc429d7d1c9eb7d553b49d2d1f02a54604080517fbd85df0e000000000000000000000000000000000000000000000000000000008152306004820152905173ffffffffffffffffffffffffffffffffffffffff90921692839263bd85df0e92602480820193929182900301818387803b15801561013e57600080fd5b505af1158015610152573d6000803e3d6000fd5b5050505050005b600080fd5b34801561016a57600080fd5b506101886004803603602081101561018157600080fd5b50356102f6565b6040805173ffffffffffffffffffffffffffffffffffffffff9092168252519081900360200190f35b3480156101bd57600080fd5b506101f7600480360360408110156101d457600080fd5b508035906020013573ffffffffffffffffffffffffffffffffffffffff1661031e565b005b34801561020557600080fd5b506101f76004803603602081101561021c57600080fd5b5035610560565b34801561022f57600080fd5b506102636004803603602081101561024657600080fd5b503573ffffffffffffffffffffffffffffffffffffffff16610724565b604080519115158252519081900360200190f35b34801561028357600080fd5b506101f761074e565b34801561029857600080fd5b50610188610830565b3480156102ad57600080fd5b5061026361084c565b3480156102c257600080fd5b506101f7600480360360208110156102d957600080fd5b503573ffffffffffffffffffffffffffffffffffffffff1661086a565b60009081526001602052604090205473ffffffffffffffffffffffffffffffffffffffff1690565b33600090815260026020526040902054610383576040517f08c379a0000000000000000000000000000000000000000000000000000000008152600401808060200182810382526039815260200180610a096039913960400191505060405180910390fd5b816103ef57604080517f08c379a000000000000000000000000000000000000000000000000000000000815260206004820152601b60248201527f6d6f64756c65206964206d757374206e6f7420626520656d7074790000000000604482015290519081900360640190fd5b73ffffffffffffffffffffffffffffffffffffffff811661047157604080517f08c379a000000000000000000000000000000000000000000000000000000000815260206004820181905260248201527f6d6f64756c652061646472657373206d757374206e6f7420626520656d707479604482015290519081900360640190fd5b60008281526001602052604090205473ffffffffffffffffffffffffffffffffffffffff161561050257604080517f08c379a000000000000000000000000000000000000000000000000000000000815260206004820152601860248201527f6d6f64756c6520696420616c726561647920696e207573650000000000000000604482015290519081900360640190fd5b6000828152600160209081526040808320805473ffffffffffffffffffffffffffffffffffffffff9095167fffffffffffffffffffffffff000000000000000000000000000000000000000090951685179055928252600290522055565b336000908152600260205260409020546105c5576040517f08c379a0000000000000000000000000000000000000000000000000000000008152600401808060200182810382526039815260200180610a096039913960400191505060405180910390fd5b8061063157604080517f08c379a000000000000000000000000000000000000000000000000000000000815260206004820152601b60248201527f6d6f64756c65206964206d757374206e6f7420626520656d7074790000000000604482015290519081900360640190fd5b60008181526001602052604090205473ffffffffffffffffffffffffffffffffffffffff166106c157604080517f08c379a000000000000000000000000000000000000000000000000000000000815260206004820152601560248201527f6d6f64756c65206e6f7420726567697374657265640000000000000000000000604482015290519081900360640190fd5b6000818152600160208181526040808420805473ffffffffffffffffffffffffffffffffffffffff1685526002835290842084905593909252905280547fffffffffffffffffffffffff0000000000000000000000000000000000000000169055565b73ffffffffffffffffffffffffffffffffffffffff16600090815260026020526040902054151590565b61075661084c565b6107c157604080517f08c379a000000000000000000000000000000000000000000000000000000000815260206004820181905260248201527f4f776e61626c653a2063616c6c6572206973206e6f7420746865206f776e6572604482015290519081900360640190fd5b6000805460405173ffffffffffffffffffffffffffffffffffffffff909116907f8be0079c531659141344cd1fd0a4f28419497f9722a3daafe3b4186f6b6457e0908390a3600080547fffffffffffffffffffffffff0000000000000000000000000000000000000000169055565b60005473ffffffffffffffffffffffffffffffffffffffff1690565b60005473ffffffffffffffffffffffffffffffffffffffff16331490565b61087261084c565b6108dd57604080517f08c379a000000000000000000000000000000000000000000000000000000000815260206004820181905260248201527f4f776e61626c653a2063616c6c6572206973206e6f7420746865206f776e6572604482015290519081900360640190fd5b6108e6816108e9565b50565b73ffffffffffffffffffffffffffffffffffffffff8116610955576040517f08c379a00000000000000000000000000000000000000000000000000000000081526004018080602001828103825260268152602001806109e36026913960400191505060405180910390fd5b6000805460405173ffffffffffffffffffffffffffffffffffffffff808516939216917f8be0079c531659141344cd1fd0a4f28419497f9722a3daafe3b4186f6b6457e091a3600080547fffffffffffffffffffffffff00000000000000000000000000000000000000001673ffffffffffffffffffffffffffffffffffffffff9290921691909117905556fe4f776e61626c653a206e6577206f776e657220697320746865207a65726f20616464726573736f6e6c7920612072656769737465726564206d6f64756c6520697320616c6c6f77656420746f2063616c6c20746869732066756e6374696f6ea264697066735822122090d20afde1baee2d256f46cfb6aba0e34f5f93e1ccf94ebc54885b6bbd40cc7064736f6c63430007000033",
  "immutableReferences": {},
  "source": "pragma solidity ^0.7.0;\n\n// SPDX-License-Identifier: MIT\n\nimport '../utils/Ownable.sol';\nimport '../adapters/interfaces/IOnboarding.sol';\nimport './Module.sol';\n\ncontract Registry is Ownable, Module{\n    mapping(bytes32 => address) registry;\n    mapping(address => bytes32) inverseRegistry;\n\n    constructor() {\n        bytes32 ownerId = keccak256(\"owner\");\n        registry[ownerId] = msg.sender;\n        inverseRegistry[msg.sender] = ownerId;\n    }\n\n    modifier onlyModule {\n        require(inverseRegistry[msg.sender] != bytes32(0), \"only a registered module is allowed to call this function\");\n        _;\n    }\n\n    function addModule(bytes32 moduleId, address moduleAddress) onlyModule external {\n        require(moduleId != bytes32(0), \"module id must not be empty\");\n        require(moduleAddress != address(0x0), \"module address must not be empty\");\n        require(registry[moduleId] == address(0x0), \"module id already in use\");\n        registry[moduleId] = moduleAddress;\n        inverseRegistry[moduleAddress] = moduleId;\n    }\n\n    function removeModule(bytes32 moduleId) onlyModule external {\n        require(moduleId != bytes32(0), \"module id must not be empty\");\n        require(registry[moduleId] != address(0x0), \"module not registered\");\n        delete inverseRegistry[registry[moduleId]];\n        delete registry[moduleId];\n    }\n\n    function isModule(address module) public view returns (bool) {\n        return inverseRegistry[module] != bytes32(0);\n    }\n\n    function getAddress(bytes32 moduleId) view external returns(address) {\n        return registry[moduleId];\n    }\n\n    receive() external payable {\n        IOnboarding onboarding = IOnboarding(registry[ONBOARDING_MODULE]);\n        onboarding.processOnboarding(this);\n    }\n}",
  "sourcePath": "/Users/davidroon/projects/moloch/contracts/v3/core/Registry.sol",
  "compiler": {
    "name": "solc",
    "version": "0.7.0+commit.9e61f92b.Emscripten.clang"
  },
  "schemaVersion": "3.2.3",
  "updatedAt": "2020-09-17T11:52:26.486Z",
  "devdoc": {
    "kind": "dev",
    "methods": {
      "isOwner()": {
        "details": "Returns true if the caller is the current owner."
      },
      "owner()": {
        "details": "Returns the address of the current owner."
      },
      "renounceOwnership()": {
        "details": "Leaves the contract without owner. It will not be possible to call `onlyOwner` functions anymore. Can only be called by the current owner. NOTE: Renouncing ownership will leave the contract without an owner, thereby removing any functionality that is only available to the owner."
      },
      "transferOwnership(address)": {
        "details": "Transfers ownership of the contract to a new account (`newOwner`). Can only be called by the current owner."
      }
    },
    "version": 1
  },
  "userdoc": {
    "kind": "user",
    "methods": {},
    "version": 1
  }
}