{
  "contractName": "Submitter",
  "abi": [
    {
      "inputs": [
        {
          "internalType": "address",
          "name": "molochAddress",
          "type": "address"
        }
      ],
      "stateMutability": "nonpayable",
      "type": "constructor"
    },
    {
      "anonymous": false,
      "inputs": [
        {
          "indexed": false,
          "internalType": "uint256",
          "name": "proposalId",
          "type": "uint256"
        }
      ],
      "name": "Submit",
      "type": "event"
    },
    {
      "inputs": [],
      "name": "moloch",
      "outputs": [
        {
          "internalType": "contract Moloch",
          "name": "",
          "type": "address"
        }
      ],
      "stateMutability": "view",
      "type": "function"
    },
    {
      "inputs": [
        {
          "internalType": "address",
          "name": "applicant",
          "type": "address"
        },
        {
          "internalType": "uint256",
          "name": "sharesRequested",
          "type": "uint256"
        },
        {
          "internalType": "uint256",
          "name": "lootRequested",
          "type": "uint256"
        },
        {
          "internalType": "uint256",
          "name": "tributeOffered",
          "type": "uint256"
        },
        {
          "internalType": "address",
          "name": "tributeToken",
          "type": "address"
        },
        {
          "internalType": "uint256",
          "name": "paymentRequested",
          "type": "uint256"
        },
        {
          "internalType": "address",
          "name": "paymentToken",
          "type": "address"
        },
        {
          "internalType": "string",
          "name": "details",
          "type": "string"
        }
      ],
      "name": "submitProposal",
      "outputs": [],
      "stateMutability": "nonpayable",
      "type": "function"
    },
    {
      "inputs": [
        {
          "internalType": "address",
          "name": "tokenToWhitelist",
          "type": "address"
        },
        {
          "internalType": "string",
          "name": "details",
          "type": "string"
        }
      ],
      "name": "submitWhitelistProposal",
      "outputs": [],
      "stateMutability": "nonpayable",
      "type": "function"
    },
    {
      "inputs": [
        {
          "internalType": "address",
          "name": "memberToKick",
          "type": "address"
        },
        {
          "internalType": "string",
          "name": "details",
          "type": "string"
        }
      ],
      "name": "submitGuildKickProposal",
      "outputs": [],
      "stateMutability": "nonpayable",
      "type": "function"
    }
  ],
  "bytecode": "0x608060405234801561001057600080fd5b506040516107423803806107428339818101604052602081101561003357600080fd5b5051600080546001600160a01b039092166001600160a01b03199092169190911790556106dd806100656000396000f3fe608060405234801561001057600080fd5b506004361061004c5760003560e01c8063115b2d1814610051578063590f940b14610116578063623d9ac914610203578063feb7ea1d14610234575b600080fd5b6101146004803603604081101561006757600080fd5b73ffffffffffffffffffffffffffffffffffffffff823516919081019060408101602082013564010000000081111561009f57600080fd5b8201836020820111156100b157600080fd5b803590602001918460018302840111640100000000831117156100d357600080fd5b91908080601f0160208091040260200160405190810160405280939291908181526020018383808284376000920191909152509295506102f7945050505050565b005b610114600480360361010081101561012d57600080fd5b73ffffffffffffffffffffffffffffffffffffffff8235811692602081013592604082013592606083013592608081013582169260a08201359260c0830135169190810190610100810160e082013564010000000081111561018e57600080fd5b8201836020820111156101a057600080fd5b803590602001918460018302840111640100000000831117156101c257600080fd5b91908080601f01602080910402602001604051908101604052809392919081815260200183838082843760009201919091525092955061043d945050505050565b61020b6105fd565b6040805173ffffffffffffffffffffffffffffffffffffffff9092168252519081900360200190f35b6101146004803603604081101561024a57600080fd5b73ffffffffffffffffffffffffffffffffffffffff823516919081019060408101602082013564010000000081111561028257600080fd5b82018360208201111561029457600080fd5b803590602001918460018302840111640100000000831117156102b657600080fd5b91908080601f016020809104026020016040519081016040528093929190818152602001838380828437600092019190915250929550610619945050505050565b60008054604080517f115b2d1800000000000000000000000000000000000000000000000000000000815273ffffffffffffffffffffffffffffffffffffffff8681166004830190815260248301938452865160448401528651919094169363115b2d18938893889360649091019060208501908083838c5b83811015610388578181015183820152602001610370565b50505050905090810190601f1680156103b55780820380516001836020036101000a031916815260200191505b509350505050602060405180830381600087803b1580156103d557600080fd5b505af11580156103e9573d6000803e3d6000fd5b505050506040513d60208110156103ff57600080fd5b50516040805182815290519192507f08324b3d745b914e3abd4ffbfead91e3b78391a98c173202129215ab933adfbe919081900360200190a1505050565b60008060009054906101000a900473ffffffffffffffffffffffffffffffffffffffff1673ffffffffffffffffffffffffffffffffffffffff1663590f940b8a8a8a8a8a8a8a8a6040518963ffffffff1660e01b8152600401808973ffffffffffffffffffffffffffffffffffffffff1681526020018881526020018781526020018681526020018573ffffffffffffffffffffffffffffffffffffffff1681526020018481526020018373ffffffffffffffffffffffffffffffffffffffff16815260200180602001828103825283818151815260200191508051906020019080838360005b8381101561053c578181015183820152602001610524565b50505050905090810190601f1680156105695780820380516001836020036101000a031916815260200191505b509950505050505050505050602060405180830381600087803b15801561058f57600080fd5b505af11580156105a3573d6000803e3d6000fd5b505050506040513d60208110156105b957600080fd5b50516040805182815290519192507f08324b3d745b914e3abd4ffbfead91e3b78391a98c173202129215ab933adfbe919081900360200190a1505050505050505050565b60005473ffffffffffffffffffffffffffffffffffffffff1681565b60008054604080517ffeb7ea1d00000000000000000000000000000000000000000000000000000000815273ffffffffffffffffffffffffffffffffffffffff8681166004830190815260248301938452865160448401528651919094169363feb7ea1d938893889360649091019060208501908083838c831561038857818101518382015260200161037056fea264697066735822122038e8419a42d22d1c88dcf1fffd86c856070af9588facd9a82199b3fdadcc528264736f6c63430007000033",
  "immutableReferences": {},
  "source": "// helper for testing moloch.submitProposal return value\n\npragma solidity ^0.7.0;\n// SPDX-License-Identifier: MIT\n\nimport \"../Moloch.sol\";\n\ncontract Submitter {\n\n  event Submit(uint256 proposalId);\n\n  Moloch public moloch; // moloch contract reference\n\n  constructor(address molochAddress) {\n    moloch = Moloch(molochAddress);\n  }\n\n  function submitProposal(\n    address applicant,\n    uint256 sharesRequested,\n    uint256 lootRequested,\n    uint256 tributeOffered,\n    address tributeToken,\n    uint256 paymentRequested,\n    address paymentToken,\n    string memory details\n  ) public {\n    uint256 proposalId = moloch.submitProposal(\n      applicant,\n      sharesRequested,\n      lootRequested,\n      tributeOffered,\n      tributeToken,\n      paymentRequested,\n      paymentToken,\n      details\n    );\n\n    emit Submit(proposalId);\n  }\n\n  function submitWhitelistProposal(\n    address tokenToWhitelist,\n    string memory details\n  ) public {\n    uint256 proposalId = moloch.submitWhitelistProposal(\n      tokenToWhitelist,\n      details\n    );\n\n    emit Submit(proposalId);\n  }\n\n  function submitGuildKickProposal(\n    address memberToKick,\n    string memory details\n  ) public {\n    uint256 proposalId = moloch.submitGuildKickProposal(\n      memberToKick,\n      details\n    );\n\n    emit Submit(proposalId);\n  }\n}\n",
  "sourcePath": "/Users/davidroon/projects/moloch/contracts/test/Submitter.sol",
  "compiler": {
    "name": "solc",
    "version": "0.7.0+commit.9e61f92b.Emscripten.clang"
  },
  "schemaVersion": "3.2.3",
  "updatedAt": "2020-09-17T11:52:26.472Z",
  "devdoc": {
    "kind": "dev",
    "methods": {},
    "version": 1
  },
  "userdoc": {
    "kind": "user",
    "methods": {},
    "version": 1
  }
}