{
  "contractName": "VotingContract",
  "abi": [
    {
      "inputs": [
        {
          "internalType": "address",
          "name": "dao",
          "type": "address"
        },
        {
          "internalType": "uint256",
          "name": "votingPeriod",
          "type": "uint256"
        }
      ],
      "name": "registerDao",
      "outputs": [],
      "stateMutability": "nonpayable",
      "type": "function"
    },
    {
      "inputs": [
        {
          "internalType": "contract Registry",
          "name": "dao",
          "type": "address"
        },
        {
          "internalType": "uint256",
          "name": "proposalId",
          "type": "uint256"
        }
      ],
      "name": "voteResult",
      "outputs": [
        {
          "internalType": "uint256",
          "name": "state",
          "type": "uint256"
        }
      ],
      "stateMutability": "view",
      "type": "function"
    },
    {
      "inputs": [
        {
          "internalType": "contract Registry",
          "name": "dao",
          "type": "address"
        },
        {
          "internalType": "uint256",
          "name": "proposalId",
          "type": "uint256"
        },
        {
          "internalType": "bytes",
          "name": "",
          "type": "bytes"
        }
      ],
      "name": "startNewVotingForProposal",
      "outputs": [
        {
          "internalType": "uint256",
          "name": "",
          "type": "uint256"
        }
      ],
      "stateMutability": "nonpayable",
      "type": "function"
    },
    {
      "inputs": [
        {
          "internalType": "contract Registry",
          "name": "dao",
          "type": "address"
        },
        {
          "internalType": "uint256",
          "name": "proposalId",
          "type": "uint256"
        },
        {
          "internalType": "uint256",
          "name": "voteValue",
          "type": "uint256"
        }
      ],
      "name": "submitVote",
      "outputs": [],
      "stateMutability": "nonpayable",
      "type": "function"
    }
  ],
  "bytecode": "0x608060405234801561001057600080fd5b506106d0806100206000396000f3fe608060405234801561001057600080fd5b506004361061004c5760003560e01c8063354f795f146100515780634c738c721461008c5780638df8ca2c146100cb578063bc785a9b14610116575b600080fd5b61008a6004803603604081101561006757600080fd5b5073ffffffffffffffffffffffffffffffffffffffff81351690602001356101a8565b005b61008a600480360360608110156100a257600080fd5b5073ffffffffffffffffffffffffffffffffffffffff81351690602081013590604001356101d8565b610104600480360360408110156100e157600080fd5b5073ffffffffffffffffffffffffffffffffffffffff8135169060200135610539565b60408051918252519081900360200190f35b6101046004803603606081101561012c57600080fd5b73ffffffffffffffffffffffffffffffffffffffff8235169160208101359181019060608101604082013564010000000081111561016957600080fd5b82018360208201111561017b57600080fd5b8035906020019184600183028401116401000000008311171561019d57600080fd5b5090925090506105f5565b73ffffffffffffffffffffffffffffffffffffffff90911660009081526001602081905260409091208181550155565b60008373ffffffffffffffffffffffffffffffffffffffff166321f8a7217f14ceb1149cdab84b395151a21d3de6707dd76fff3e7bc4e018925a9986b7f72f6040518263ffffffff1660e01b81526004018082815260200191505060206040518083038186803b15801561024b57600080fd5b505afa15801561025f573d6000803e3d6000fd5b505050506040513d602081101561027557600080fd5b5051604080517f8ecf772000000000000000000000000000000000000000000000000000000000815273ffffffffffffffffffffffffffffffffffffffff8781166004830152336024830152915192935090831691638ecf7720916044808201926020929091908290030181600087803b1580156102f257600080fd5b505af1158015610306573d6000803e3d6000fd5b505050506040513d602081101561031c57600080fd5b505161038957604080517f08c379a000000000000000000000000000000000000000000000000000000000815260206004820152601c60248201527f6f6e6c7920616374697665206d656d626572732063616e20766f746500000000604482015290519081900360640190fd5b600382106103e2576040517f08c379a00000000000000000000000000000000000000000000000000000000081526004018080602001828103825260368152602001806106656036913960400191505060405180910390fd5b73ffffffffffffffffffffffffffffffffffffffff84166000908152602081815260408083208684529091529020600281015461046a576040517f08c379a00000000000000000000000000000000000000000000000000000000081526004018080602001828103825260338152602001806106326033913960400191505060405180910390fd5b73ffffffffffffffffffffffffffffffffffffffff851660009081526001602081905260409091200154600282015401421061050757604080517f08c379a000000000000000000000000000000000000000000000000000000000815260206004820152601660248201527f766f74652068617320616c726561647920656e64656400000000000000000000604482015290519081900360640190fd5b826001141561051c5780546001018155610532565b8260021415610532576001808201805490910190555b5050505050565b73ffffffffffffffffffffffffffffffffffffffff82166000908152602081815260408083208484529091528120600281015461057a5760009150506105ef565b73ffffffffffffffffffffffffffffffffffffffff8416600090815260016020819052604090912001546002820154014210156105bb5760049150506105ef565b6001810154815411156105d25760029150506105ef565b6001810154815410156105e95760039150506105ef565b60019150505b92915050565b505073ffffffffffffffffffffffffffffffffffffffff909116600090815260208181526040808320938352929052908120426002909101559056fe746869732070726f706f73616c496420686173206e6f7420766f746520676f696e67206f6e20617420746865206d6f6d656e746f6e6c7920626c616e6b202830292c207965732028312920616e64206e6f202832292061726520706f737369626c652076616c756573a26469706673582212203b3867ad57eeaa1be5fafd7a0b4db9e1170ad98935a3216bd59720d6b95c63fb64736f6c63430007000033",
  "immutableReferences": {},
  "source": "pragma solidity ^0.7.0;\n\n// SPDX-License-Identifier: MIT\n\nimport '../Registry.sol';\nimport '../Module.sol';\nimport '../interfaces/IMember.sol';\nimport '../interfaces/IVoting.sol';\nimport '../../helpers/FlagHelper.sol';\n\ncontract VotingContract is IVoting, Module {\n\n    using FlagHelper for uint256;\n\n    struct VotingConfig {\n        uint256 flags;\n        uint256 votingPeriod;\n        uint256 votingCount;\n    }\n    struct Voting {\n        uint256 nbYes;\n        uint256 nbNo;\n        uint256 startingTime;\n    }\n    \n    mapping(address => mapping(uint256 => Voting)) votes;\n    mapping(address => VotingConfig) votingConfigs;\n\n    function registerDao(address dao, uint256 votingPeriod) override external {\n        votingConfigs[dao].flags = 1; // mark as exists\n        votingConfigs[dao].votingPeriod = votingPeriod;\n    }\n\n    /**\n    possible results here:\n    0: has not started\n    1: tie\n    2: pass\n    3: not pass\n    4: in progress\n     */\n    function voteResult(Registry dao, uint256 proposalId) override external view returns (uint256 state) {\n        Voting storage vote = votes[address(dao)][proposalId];\n        if(vote.startingTime == 0) {\n            return 0;\n        }\n\n        if(block.timestamp < vote.startingTime + votingConfigs[address(dao)].votingPeriod) {\n            return 4;\n        }\n\n        if(vote.nbYes > vote.nbNo) {\n            return 2;\n        } else if (vote.nbYes < vote.nbNo) {\n            return 3;\n        } else {\n            return 1;\n        }\n    }\n    //voting  data is not used for pure onchain voting\n    function startNewVotingForProposal(Registry dao, uint256 proposalId, bytes calldata) override external returns (uint256){\n        // compute startingPeriod for proposal\n        Voting storage vote = votes[address(dao)][proposalId];\n        vote.startingTime = block.timestamp;\n    }\n\n    function submitVote(Registry dao, uint256 proposalId, uint256 voteValue) external {\n        IMember memberContract = IMember(dao.getAddress(MEMBER_MODULE));\n        require(memberContract.isActiveMember(dao, msg.sender), \"only active members can vote\");\n        require(voteValue < 3, \"only blank (0), yes (1) and no (2) are possible values\");\n\n        Voting storage vote = votes[address(dao)][proposalId];\n\n        require(vote.startingTime > 0, \"this proposalId has not vote going on at the moment\");\n        require(block.timestamp < vote.startingTime + votingConfigs[address(dao)].votingPeriod, \"vote has already ended\");\n        if(voteValue == 1) {\n            vote.nbYes = vote.nbYes + 1;\n        } else if (voteValue == 2) {\n            vote.nbNo = vote.nbNo + 1;\n        }\n    }\n}",
  "sourcePath": "/Users/davidroon/projects/moloch/contracts/v3/core/voting/Voting.sol",
  "compiler": {
    "name": "solc",
    "version": "0.7.0+commit.9e61f92b.Emscripten.clang"
  },
  "schemaVersion": "3.2.3",
  "updatedAt": "2020-09-17T11:52:26.509Z",
  "devdoc": {
    "kind": "dev",
    "methods": {},
    "version": 1
  },
  "userdoc": {
    "kind": "user",
    "methods": {
      "voteResult(address,uint256)": {
        "notice": "possible results here: 0: has not started 1: tie 2: pass 3: not pass 4: in progress"
      }
    },
    "version": 1
  }
}